:0400000007EF00F016
:0A000800518284ED0AF099EF0CF02C
:10080000004D6F646F20466163746F7269616C00A4
:100810004D6F646F20506F74656E63696100496E3F
:1008200064657465726D696E61646F004C5650202A
:10083000416374697661646F0064652063616C6311
:10084000756C6172004D6F646F2052657374610046
:100850004D6F646F2053756D6100496D706F7369E2
:10086000626C6500496E66696E69746F00456E65FD
:0B08700072676961004D434C520000AC
:10087C000F0EC16E000E956EF00E936E000E966EFE
:10088C00000E946EF19E040EF1EC0CF036EC0AF0B6
:10089C00820ED56EF294C20ED76EF70ED66EF28A19
:1008AC00F28ED58EC40ED36E29EC0DF0D0B6D0A43A
:1008BC0007D029EC0DF06D0E136EE0EC0BF008D0A8
:1008CC00D0B206D029EC0DF0750E136EE0EC0BF0E7
:1008DC00030E256E8A0E246E560EE82EFED7242E9D
:1008EC00FCD7252EFAD729EC0DF0000E8A6E000EDF
:1008FC00396E000E386E7BEC09F0486ECDEC0AF0C8
:10090C00430E4818D8A41BD0200E4F6E200E4E6EEE
:10091C00200E4D6E000E456E000E446E000E436EA2
:10092C00000E426E000E416E000E406E000E306ED8
:10093C00000E316E000E326E000E336ED4D7200EC8
:10094C004F18D8A43DD02B0E4818D8B404D05E0E46
:10095C004818D8A435D0200E4E18D8A431D0200E6B
:10096C004D18D8A42DD0471E4750D8B41AD0800E9D
:10097C0008EC0DF0100E136EE0EC0BF0C00E08EC52
:10098C000DF0300E136EE0EC0BF0020E256E450EE2
:10099C00246EAA0EE82EFED7242EFCD7252EFAD7CD
:1009AC00A2D7800E08EC0DF0500E136EE0EC0BF09D
:1009BC00C00E08EC0DF0300E136EE0EC0BF0E5D72A
:1009CC00200E4F18D8A432D02D0E4818D8B404D00D
:1009DC00210E4818D8A42AD0200E4E18D8A426D000
:1009EC00200E4D18D8A422D0461E4650D8B40FD095
:1009FC00800E08EC0DF0010E136EE0EC0BF0C00E47
:100A0C0008EC0DF0300E136EE0EC0BF0BED7800E40
:100A1C0008EC0DF0450E136EE0EC0BF0C00E08EC7C
:100A2C000DF0300E136EE0EC0BF0AFD7200E4E181D
:100A3C00D8B408D0200E4D18D8B404D0200E4F18BE
:100A4C00D8A492D04650D8A48FD0200E4F18D8A43A
:100A5C0025D02B0E4818D8B410D02D0E4818D8B469
:100A6C000CD02F0E4818D8B408D0780E4818D8B42B
:100A7C0004D05E0E4818D8A411D0200E4E18D8B44D
:100A8C000DD0200E4D18D8A409D0810E08EC0DF015
:100A9C004850FDEC0CF048C04FF00FD2200E4E1811
:100AAC00D8A42BD02B0E4818D8A418D02D0E48182B
:100ABC00D8A414D02F0E4818D8A410D0780E4818EB
:100ACC00D8A40CD03D0E4818D8A408D0430E481812
:100ADC00D8A404D05E0E4818D8B40FD0800E08EC01
:100AEC000DF04850FDEC0CF048C04EF0D00E4824F0
:100AFC00446E456AFF0E4522E0D1200E4D18D8A455
:100B0C00DCD1200E4F18D8B4D8D1200E4E18D8B442
:100B1C00D4D12B0E4818D8A418D02D0E4818D8A410
:100B2C0014D02F0E4818D8A410D0780E4818D8A47A
:100B3C000CD03D0E4818D8A408D0430E4818D8A4A1
:100B4C0004D05E0E4818D8B4B8D1820E08EC0DF063
:100B5C004850FDEC0CF048C04DF0D00E4824426ECD
:100B6C00436AFF0E4322A9D1010E266E200E4E18A9
:100B7C00D8B406D0200E4F18D8B402D0000E266E72
:100B8C00265046140009D8B456D0200E4F18D8A4BD
:100B9C0027D02B0E4818D8B414D02D0E4818D8B422
:100BAC0010D02F0E4818D8B40CD0780E4818D8B4E2
:100BBC0008D05E0E4818D8B404D0210E4818D8A41A
:100BCC000FD0200E4E18D8B40BD0200E4D18D8A430
:100BDC0007D0810E08EC0DF04850FDEC0CF05BD703
:100BEC00200E4E18D8A469D12B0E4818D8A41CD0AE
:100BFC002D0E4818D8A418D02F0E4818D8A414D0ED
:100C0C00780E4818D8A410D03D0E4818D8A40CD093
:100C1C00430E4818D8A408D05E0E4818D8A404D0A7
:100C2C00210E4818D8B449D1800E08EC0DF048506C
:100C3C00FDEC0CF059D73D0E4818D8A4F4D0200E7A
:100C4C004D18D8B4F0D0200E4F18D8B4ECD0200EDC
:100C5C004E18D8B4E8D04650D8A4E5D0830E08EC92
:100C6C000DF03D0EFDEC0CF0BFD042504424246E30
:100C7C0043504520256E24C02CF025C02DF02E6A43
:100C8C002F6A2CC00EF02DC00FF02EC010F02FC00C
:100C9C0011F0640E126E000E136E000E146E000E28
:100CAC00156E36EC0BF00EC030F00FC031F010C0EA
:100CBC0032F011C033F0A9D04250445C246E435042
:100CCC004558D8D744C00EF045C00FF042C010F0C4
:100CDC0043C011F0DEEC0CF00EC02CF00FC02DF068
:100CEC00CED742504310D8B42FD044504510D8B46E
:100CFC008CD044C014F045C015F042C016F043C06F
:100D0C0017F0B7EC0BF014C02CF015C02DF02E6AB8
:100D1C002F6A44C00EF045C00FF0000E116E640E29
:100D2C00106EDEEC0CF00EC014F00FC015F042C0CB
:100D3C0016F043C017F0B7EC0BF014C030F015C030
:100D4C0031F0326A336A61D044504510D8B406D0C1
:100D5C0042504310D8A402D0E80E09D0445045109C
:100D6C00D8A48FD742504310D8A48BD7E90E2C6E41
:100D7C00030E2D6E000E2E6E000E2F6E82D744C009
:100D8C002CF045C02DF02E6A2F6A000E416E010E1C
:100D9C00406E1AD044C00EF045C00FF0106A116AB4
:100DAC002CC012F02DC013F02EC014F02FC015F073
:100DBC0036EC0BF00EC02CF00FC02DF010C02EF046
:100DCC0011C02FF0404A412A4250405C43504158D8
:100DDC00D8B057D7DFD7000E2C6E000E2D6E000E3C
:100DEC002E6E000E2F6E11D04F502B0AD8B43DD75B
:100DFC00060AD8B461D7020AD8B473D7710AD8B42A
:100E0C00BED7260AD8B45ED7E6D7840E08EC0DF010
:100E1C002CC01CF02DC01DF02EC01EF02FC01FF0DA
:100E2C006CEC07F04AD0000E276E3D0E4818D8A483
:100E3C000AD0210E4F18D8A406D0200E4E18D8B4C4
:100E4C0002D0010E276E275046140009D8B432D0B8
:100E5C00820E08EC0DF03D0EFDEC0CF044C014F0CD
:100E6C0045C015F00AEC0BF014C02CF015C02DF099
:100E7C0016C02EF017C02FF02CC00EF02DC00FF0A6
:100E8C002EC010F02FC011F0640E126E000E136EF7
:100E9C00000E146E000E156E36EC0BF00EC030F01A
:100EAC000FC031F010C032F011C033F0830E08ECDB
:100EBC000DF0AED7570EFDEC0CF0E40E246E440E84
:100ECC00E82EFED7242EFCD700D00FD5000E000143
:100EDC00606F1CC00EF01DC00FF01EC010F01FC0C4
:100EEC0011F09C0E126EFF0E136EFF0E146EFF0EA1
:100EFC00156E36EC0BF030500E24206E31500F2056
:100F0C00216E32501020226E33501120236E20504F
:100F1C00211022102310D8B458D0000E0001646F99
:100F2C00000E636F44C014F045C015F042C016F0BB
:100F3C0043C017F0B7EC0BF014C01CF015C01DF03B
:100F4C001E6A1F6A44C00EF045C00FF042C010F07C
:100F5C0043C011F078EC0CF00EC049F00FC04AF011
:100F6C004B6A4C6A1C50300FFDEC0CF000016351C5
:100F7C006411D8A409D049504A104B104C10D8B465
:100F8C0003D02C0EFDEC0CF049504A104B104C10B9
:100F9C00D8B4120049C00EF04AC00FF0000E116E0A
:100FAC000A0E106EDEEC0CF00EC044F00FC045F0D3
:100FBC000001634B642B64BFB5D7645105E1030E8C
:100FCC00635DD8B01200AED712001FBE2BD04A0EF4
:100FDC001C5C910E1D58170E1E58170E1F58D8A0CA
:100FEC0021D0E80E1C1806E1030E1D181E101F1050
:100FFC00D8B418D0E90E1C1806E1030E1D181E10EB
:10100C001F10D8B40FD0850E08EC0DF05A0E136ECD
:10101C00E0EC0BF0C00E08EC0DF0390E136EE0ECAA
:10102C000BF012001FBED7D01F501E101D1004E174
:10103C000A0E1C5CD8A0CFD0E80E1C1806E1030EDB
:10104C001D181E101F10D8B4C6D0E90E1C1806E1CE
:10105C00030E1D181E101F10D8B4BDD0000E0001B9
:10106C00666F090E656F0A0E676F000E686F000ED3
:10107C00696F000E6A6FFF0E6525616FFF0E6621AA
:10108C00626F62BF24D0625103E16105D8A01FD00A
:10109C0067C00EF068C00FF069C010F06AC011F0A4
:1010AC000A0E126E000E136E000E146E000E156EEC
:1010BC0036EC0BF00EC067F00FC068F010C069F092
:1010CC0011C06AF000016107D8A06207DAD71CC012
:1010DC000EF01DC00FF01EC010F01FC011F067C045
:1010EC0012F068C013F069C014F06AC015F015EC6A
:1010FC0009F011BE3BD0115010100F1003E10E047B
:10110C00D8A034D0010E0001606F1CC00EF01DC0C1
:10111C000FF01EC010F01FC011F067C012F068C0B5
:10112C0013F069C014F06AC015F015EC09F00E50FC
:10113C00300FFDEC0CF01CC00EF01DC00FF01EC0EB
:10114C0010F01FC011F067C012F068C013F069C036
:10115C0014F06AC015F0E0EC09F00EC01CF00FC0E2
:10116C001DF010C01EF011C01FF02ED01CC00EF0D0
:10117C001DC00FF01EC010F01FC011F067C012F0A0
:10118C0068C013F069C014F06AC015F015EC09F0D2
:10119C000E500F1010101110D8A416D00001605171
:1011AC00D8B412D01FBE08D01F501E101D1009E15C
:1011BC000A0E1C5CD8B005D01C50300FFDEC0CF0A6
:1011CC0003D0300EFDEC0CF000016507D8A06607CB
:1011DC0066BF120048D7E80E1C180BE1030E1D1851
:1011EC001E101F10D8A405D0640E136EE0EC0BF08B
:1011FC001200E90E1C180EE1030E1D181E101F1014
:10120C00D8A408D0C10E08EC0DF01E0E136EE0EC45
:10121C000BF012001C50300FFDEC0CF01200000E05
:10122C00176E15AE0AD0151E141E131E126C000E6E
:10123C00132214221522010E176E11AE0AD0111EA4
:10124C00101E0F1E0E6C000E0F2210221122010E0A
:10125C00171A000E186E000E196E000E1A6E000E84
:10126C001B6E1250131014101510D8B42AD0010E86
:10127C00166E06D0D8901236133614361536162A3A
:10128C0015AEF8D7D890183619361A361B361250B8
:10129C000E5C13500F581450105815501158D8A0FC
:1012AC0009D012500E5E13500F5A1450105A15508C
:1012BC00115A1880D8901532143213321232162E5D
:1012CC00E1D71750D8B408D01B1E1A1E191E186C63
:1012DC00000E19221A221B2218C00EF019C00FF092
:1012EC001AC010F01BC011F0120081B881AA04D0F2
:1012FC0081AC02D081BEF9D7000E396E010E386E6A
:10130C00FE0E8A6E81B80AD04750D8A402D02B0E9C
:10131C0012004750D8B44CD05E0E120081BA02D0E5
:10132C003D0E120081BC02D0300E120081BE02D0E4
:10133C00430E1200FD0E8A6E81B80AD04650D8A416
:10134C0002D02D0E12004650D8B432D0210E12000D
:10135C0081BA02D0390E120081BC02D0380E1200B4
:10136C0081BE02D0370E1200FB0E8A6E81B802D0FD
:10137C00780E120081BA02D0360E120081BC02D057
:10138C00350E120081BE02D0340E1200F70E8A6E9A
:10139C0081B802D02F0E120081BA02D0330E120087
:1013AC0081BC02D0320E120081BE02D0310E12006E
:1013BC003F0E1200000E176E11AE0AD0111E101E39
:1013CC000F1E0E6C000E0F2210221122010E176E32
:1013DC0015AE08D0151E141E131E126C000E13220F
:1013EC00142215221250131014101510D8B424D036
:1013FC00010E166E06D0D8901236133614361536EA
:10140C00162A15AEF8D712500E5C13500F58145004
:10141C00105815501158D8A008D012500E5E135009
:10142C000F5A1450105A1550115AD89015321432B4
:10143C0013321232162EE7D71750D8B408D0111E1B
:10144C00101E0F1E0E6C000E0F22102211220EC049
:10145C000EF00FC00FF010C010F011C011F0120000
:10146C008D90040E5018D8A404D08C500F0B30095A
:10147C0001D03F0E8C6E3DEC0DF0010E61EC0BF0CB
:10148C00040E5018D8A404D08C500F0B300901D086
:10149C003F0E8C6E3DEC0DF0030E61EC0BF0040E68
:1014AC005018D8A404D08C500F0B300901D03F0E2B
:1014BC008C6E3DEC0DF0040E61EC0BF0040E50182C
:1014CC00D8A411D08C500F0B20098C6E3DEC0DF074
:1014DC00040E61EC0BF02F0E32EC0CF03DEC0DF029
:1014EC00040E61EC0BF029EC0DF00F0E32EC0CF04D
:1014FC003DEC0DF0040E61EC0BF012000600F6CF83
:10150C000AF0F7CF0BF0F8CF0CF0F5CF0DF0F2A4FA
:10151C0019D038503910D8A407D0010E3C243C6E99
:10152C00000E3D203D6E04D0000E3D6E000E3C6E54
:10153C00F2948DB402D08D8401D08D94C20ED76EEE
:10154C00F70ED66E340E3C1818E1080E3D18D8A4D0
:10155C0014D038503910D8A410D08BBE02D08B8E3A
:10156C0001D08B9E33EC0DF0820E1EEC0DF02C0E88
:10157C00066E09EC0CF00300FFD70DC0F5FF0CC094
:10158C00F8FF0BC0F7FF0AC0F6FF51921100080ECE
:10159C003E183F10D8A414D0000E3F6E000E3E6EC5
:1015AC000FD0000E0BD0050E09D0060E07D0030E7F
:1015BC0005D0020E03D0040E01D0070E8B6E21D085
:1015CC003EC00EF03FC00FF00F50000AD8A419D047
:1015DC000E50000AD8B4E5D7010AD8B4E4D7030AF0
:1015EC00D8B4E3D7010AD8B4E2D7070AD8B4E1D704
:1015FC00010AD8B4DAD7030AD8B4DDD7010AD8B4B3
:10160C00DCD73E4A3F2A1200000E196E010E186EEE
:10161C0014C034F015C035F011D018C00EF019C03C
:10162C000FF034C010F035C011F0DEEC0CF00EC031
:10163C0018F00FC019F03406D8A0350635BE06D008
:10164C003550EBE1020E345CD8B0E7D718C014F07B
:10165C0019C015F0000E15BEFF0E166E176E120097
:10166C00000E166E000E176E000E186E000E196E20
:10167C000EA008D012501626135017221450182200
:10168C0015501922D8901236133614361536D890B8
:10169C00113210320F320E320E500F10101011107A
:1016AC00D8A4E6D716C00EF017C00FF018C010F073
:1016BC0019C011F012000F6E1BD0050E0E6EDE0E4F
:1016CC00E82EFED70E2EFCD71200530EE82EFED7B6
:1016DC0000F0350EE82EFED700F01200080EE82EB2
:1016EC00FED700F01200030EE82EFED700F0120019
:1016FC000F50010AD8B4E1D7030AD8B4E6D7010ACF
:10170C00D8B4ECD7070AD8A41200EDD7026E1BD0C0
:10171C00050E016EDE0EE82EFED7012EFCD7120050
:10172C00530EE82EFED700F0350EE82EFED700F053
:10173C001200080EE82EFED700F01200030EE82E61
:10174C00FED700F012000250010AD8B4E1D7030A08
:10175C00D8B4E6D7010AD8B4ECD7070AD8A412003B
:10176C00EDD7000E1A6E000E196E16501710D8B465
:10177C001CD0010E186E04D0D89016361736182AC5
:10178C0017AEFAD7D89019361A361650145C175073
:10179C001558D8A005D01650145E1750155A19803C
:1017AC00D89017321632182EEDD719C014F01AC073
:1017BC0015F01200000E166E000E156E19D0135097
:1017CC001524146E14C0F6FF080EF76E0800F550C1
:1017DC000009D8B4120013501524146E14C0F6FF6F
:1017EC00080EF76E0800F550FDEC0CF0154A162AA1
:1017FC0013C00EF0B6EC0CF00E50155C0F501658D2
:10180C00D8B01200DCD7000E096E000E086E19D08D
:10181C0006500824076E07C0F6FF080EF76E080086
:10182C00F5500009D8B4120006500824076E07C002
:10183C00F6FF080EF76E0800F55013EC0DF0084A91
:10184C00092A06C001F0CAEC0CF00150085C0250E9
:10185C000958D8B01200DCD7116E040E5018D8A459
:10186C0017D011C010F0F00E10168C500F0B10107A
:10187C008C6E3DEC0DF0010E61EC0BF011C010F014
:10188C00103AF00E10168C500F0B10108C6E1200BC
:10189C00080E5018D8A4120011C08CFF1200046E50
:1018AC00040E5018D8A417D004C003F0F00E031681
:1018BC008C500F0B03108C6E44EC0DF0010E8CEC65
:1018CC000BF004C003F0033AF00E03168C500F0B10
:1018DC0003108C6E1200080E5018D8A4120004C00D
:1018EC008CFF120010501110D8B418D0010E126ECB
:1018FC0004D0D89010361136122A11AEFAD71050E7
:10190C000E5C11500F58D8A004D010500E5E115020
:10191C000F5AD89011321032122EF1D70EC00EF091
:10192C000FC00FF01200960EF66E1A0EF76E000E28
:10193C00F86E00EE4DF010EE04F00900F5CFEEFF5E
:10194C00E550E150FAE100EE28F0250EEE6AE806CB
:10195C00FDE151905192000EF86E00013EEF04F043
:10196C000EC010F001D0102A10C0F6FF080EF76E52
:10197C000800F5500009D8A4F6D70E50105C0E6E76
:10198C000F6A0EBE0F06120001C003F001D0032A2D
:10199C0003C0F6FF080EF76E0800F5500009D8A436
:1019AC00F6D70150035C016E026A01BE02061200FA
:1019BC000E501002F3CF12F0F4CF13F00E501102B0
:1019CC00F35013260F501002F350132612C00EF0D2
:1019DC0013C00FF012000E6E040E0E18D8B404D003
:1019EC00080E0E18D8A412000EC050F01200126E81
:1019FC008D80125032EC0CF03DEC0DF0040E61ECCD
:101A0C000BF01200126E8D90125032EC0CF03DEC7B
:101A1C000DF0040E61EC0BF01200056E8D8005507C
:101A2C0055EC0CF044EC0DF0040E8CEC0BF01200A9
:101A3C00056E8D90055055EC0CF044EC0DF0040E39
:101A4C008CEC0BF012008D90010E32EC0CF03DEC96
:101A5C000DF0020E61EC0BF012008D90010E55ECA6
:101A6C000CF044EC0DF0020E8CEC0BF012008D829D
:101A7C00030EE82EFED700F08D9212008D82030E1D
:0E1A8C00E82EFED700F08D92120020202008D8
:020000040020DA
:08000000FFFFFFFFFFFFFFFF00
:020000040030CA
:0E00000000091F1EFF8181FF0FC00FE00F409F
:00000001FF
