:0400000007EF00F016
:0A000800118294ED04F03AEF06F0C7
:1008000000486F6C61206D756E646F00313000318F
:1008100031003132003133003134003135003600DF
:070820003700380039000029
:10082800000E8A6EF00E8118D8B4FCD7070E8A6EB7
:100838008150F00BE00AD8A402D0310E120081508A
:10084800F00BD00AD8A402D0320E12008150F00B5F
:10085800B00AD8A402D0330E12008150F00B700AEF
:10086800D8A402D02B0E12000B0E8A6E8150F00B0A
:10087800E00AD8A402D0340E12008150F00BD00A3E
:10088800D8A402D0350E12008150F00BB00AD8A4BB
:1008980002D0360E12008150F00B700AD8A402D094
:1008A8002D0E12000D0E8A6E8150F00BE00AD8A4AE
:1008B80002D0370E12008150F00BD00AD8A402D013
:1008C800380E12008150F00BB00AD8A402D0390EAD
:1008D80012008150F00B700AD8A402D02A0E120020
:1008E8000E0E8A6E8150F00BE00AD8A402D0650E75
:1008F80012008150F00BD00AD8A402D0300E12009A
:100908008150F00BB00AD8A402D03D0E12008150DD
:10091800F00B700AD8A402D02F0E12003F0E12005E
:100928000600F2A059D0F00E8118D8B44CD0100EA1
:100938000F6EFE0E8A6E81B802D00D0E41D081BABC
:1009480002D0100E3DD081BC02D0130E39D081BE2A
:1009580002D0160E35D0FD0E8A6E81B802D0190E5F
:100968002FD081BA02D01C0E2BD081BC02D01E0E13
:1009780027D081BE02D0200E23D0FB0E8A6E81B80C
:1009880002D0220E1DD081BA02D0240E19D081BC0B
:1009980002D00C0E15D081BE02D00F0E11D0F70E6A
:1009A8008A6E81B802D0120E0BD081BA02D0150E11
:1009B80007D081BC02D0180E03D081BE02D01B0E16
:1009C8000F6EF00E8A6E210E016E760EE82EFED79F
:1009D800012EFCD700D0F290F2A40AD0F2940B0EAC
:1009E800D76EDC0ED66E8CB202D08C8201D08C927F
:1009F800119211000F0EC16E000E956E000E966ECC
:100A0800F00E936E000E8C6E000E8D6E000E8A6EC8
:100A1800210E0D6E760EE82EFED70D2EFCD700D0D7
:100A2800F19E210E0D6E760EE82EFED70D2EFCD708
:100A380000D0F290F286F28E020E0E6E450E0D6E0A
:100A4800AA0EE82EFED70D2EFCD70E2EFAD7040ECE
:100A58004BEC06F05DEC05F06DEC06F0010E076E50
:100A68000750D8A4080E086EABEC05F0C00E62EC77
:100A780006F0200E076E0750D8A4080E086EABECDF
:100A880005F0020E0E6E450E0D6EAA0EE82EFED76C
:100A98000D2EFCD70E2EFAD714EC04F00F6E0F5063
:100AA8000D6E0E6A0DC007F00EC008F0ABEC05F035
:100AB800F3D78D90040E1018D8A404D08C500F0BC7
:100AC800300901D03F0E8C6E77EC06F0010EECEC8D
:100AD80005F0040E1018D8A404D08C500F0B300960
:100AE80001D03F0E8C6E77EC06F0030EECEC05F0AF
:100AF800040E1018D8A404D08C500F0B300901D064
:100B08003F0E8C6E77EC06F0040EECEC05F0040E4C
:100B18001018D8A411D08C500F0B20098C6E77ECCC
:100B280006F0040EECEC05F02F0E17EC06F077EC4F
:100B380006F0040EECEC05F06DEC06F00F0E17EC69
:100B480006F077EC06F0040EECEC05F01200000E4F
:100B58000C6E000E0B6E0B500724096E0C5008200B
:100B68000A6E09C0F6FF0AC0F7FFF86A070EF764B5
:100B780003D00800F55005D0F6CFE9FFF7CFEAFF1C
:100B8800EF500009D8B412000B500724096E0C501E
:100B980008200A6E09C0F6FF0AC0F7FFF86A070EB8
:100BA800F76403D00800F55005D0F6CFE9FFF7CF7A
:100BB800EAFFEF5057EC06F00B4A0C2A0CBECBD7D5
:100BC8000C5005E1100E0B5CD8B01200C4D712000F
:100BD800036E1BD0050E026EDE0EE82EFED7022E27
:100BE800FCD71200530EE82EFED700F0350EE82E83
:100BF800FED700F01200080EE82EFED700F0120013
:100C0800030EE82EFED700F012000350010AD8B4F4
:100C1800E1D7030AD8B4E6D7010AD8B4ECD7070A53
:100C2800D8A41200EDD7056E040E1018D8A417D05A
:100C380005C004F0F00E04168C500F0B04108C6ED7
:100C480077EC06F0010EECEC05F005C004F0043A70
:100C5800F00E04168C500F0B04108C6E1200080E48
:100C68001018D8A4120005C08CFF1200FC0EF66EF6
:100C78000C0EF76E000EF86E0900F5CF10F00F6A33
:100C880011901192000EF86E0001FEEF04F0026E52
:100C9800040E0218D8B404D0080E0218D8A4120002
:100CA80002C010F01200066E8D80065017EC06F098
:100CB80077EC06F0040EECEC05F01200066E8D9051
:100CC800065017EC06F077EC06F0040EECEC05F095
:100CD80012008D90010E17EC06F077EC06F0020E6C
:100CE800ECEC05F012008D82030EE82EFED700F022
:050CF8008D92120008BE
:020000040020DA
:08000000FFFFFFFFFFFFFFFF00
:020000040030CA
:0E00000000091F1EFF8181FF0FC00FE00F409F
:00000001FF
