:040000001CEF0AF0F7
:100800000020202020202020202020202020202008
:100810002000486F6C61206D756E646F00000F0ED4
:10082000C16E000E956E000E966EF00E936E000E69
:100830008C6E000E8D6E000E8A6E210E396E760E55
:10084000E82EFED7392EFCD700D0F19E210E396E4E
:10085000760EE82EFED7392EFCD700D0E2EC08F059
:100860007EEC0AF0120E066EB2EC09F0030E3A6E40
:100870008A0E396E560EE82EFED7392EFCD73A2E48
:10088000FAD7000E8A6E91EC08F04D6E7EEC0AF0FD
:10089000430E4D18D8A426D0C00E73EC0AF0200EDB
:1008A000506E200E4F6E200E4E6E000E4C6E000EDF
:1008B0004B6E000E4A6E000E496E000E3B6E040E2B
:1008C0005CEC0AF0E2EC08F0800E73EC0AF0010E2A
:1008D000066EB2EC09F0C00E73EC0AF0800E73ECF9
:1008E0000AF0CFD7200E4F18D8B408D0200E4E18DB
:1008F000D8B404D0200E5018D8A4FCD1200E501823
:10090000D8A419D02B0E4D18D8B40CD02D0E4D18DC
:10091000D8B408D02F0E4D18D8B404D0780E4D1886
:10092000D8A409D0810E73EC0AF04D5068EC0AF09F
:100930004DC050F0DFD13D0E4D18D8A436D0200E5A
:100940004F18D8B4D7D1200E4E18D8B4D3D1200E1A
:100950005018D8A4CFD1200E4F18D8A40FD0800E95
:1009600073EC0AF04D5068EC0AF04DC04FF0D00E19
:100970004D244B6E4C6AFF0E4C22BCD1200E4E18FB
:10098000D8A4B8D1200E5018D8B4B4D1820E73ECCC
:100990000AF04D5068EC0AF04DC04EF0D00E4D24D8
:1009A000496E4A6AFF0E4A22A5D13D0E4D18D8A4C1
:1009B00095D1200E4F18D8B4A1D0200E4E18D8B41F
:1009C0009DD0200E5018D8B499D0830E73EC0AF045
:1009D0003D0E68EC0AF080D049504B24396E4A50E5
:1009E0004C203A6E39C03CF03AC03DF03E6A3F6A56
:1009F0003CC009F03DC00AF03EC00BF03FC00CF017
:100A000030EC09F009C044F00AC045F00BC046F0D4
:100A100071D049504B5C396E4A504C58E2D74BC0AC
:100A200001F04CC002F049C003F04AC004F037ECBA
:100A30000AF001C03CF002C03DF0D8D749504A103E
:100A4000D8B42BD04B504C10D8B454D04BC001F07C
:100A50004CC002F049C003F04AC004F089EC09F030
:100A600001C03CF002C03DF03E6A3F6A49C003F05D
:100A70004AC004F04BC001F04CC002F089EC09F010
:100A800001C009F002C00AF04AEC0AF009C044F0C3
:100A90000AC045F00BC046F02DD04B504C10D8B4D6
:100AA00006D049504A10D8A402D0E80E09D04B50C5
:100AB0004C10D8A41FD049504A10D8A41BD0E90E1E
:100AC0003C6E030E03D0000E3C6E000E3D6E000E19
:100AD0003E6E000E3F6E0ED050502B0AD8B47CD71D
:100AE000060AD8B496D7020AD8B4A8D7570AD8B4F9
:100AF00096D7E9D73C50300F68EC0AF0840E73ECBF
:100B00000AF044C015F045C016F046C017F03CC0CE
:100B100009F03DC00AF03EC00BF03FC00CF030ECD5
:100B200009F009C018F00AC019F00BC01AF0FCEC6B
:100B300009F0155016101710D8B442D0000E1E6ED2
:100B4000C80E1F6E420E206E3CC009F03DC00AF078
:100B50003EC00BF03FC00CF030EC09F009C018F0BB
:100B60000AC019F00BC01AF044C015F045C016F0C9
:100B700046C017F0FCEC09F015C01BF016C01CF0C5
:100B800017C01DF057EC07F01BC02AF01CC02BF05B
:100B90001DC02CF0D1EC07F02AC040F02BC041F072
:100BA0002CC042F02DC043F03C50300F68EC0AF0EE
:100BB0002E0E68EC0AF04050300F68EC0AF09AD024
:100BC0003F503E103D1004E1520E3C5CD8A025D0B1
:100BD000E80E3C1806E1030E3D183E103F10D8B455
:100BE0001CD0E90E3C1806E1030E3D183E103F10E4
:100BF000D8B413D02D0E68EC0AF0850E73EC0AF011
:100C00003F1E3E1E3D1E3C6C000E3D223E223F22FA
:100C10003C50300F68EC0AF06DD03F503E103D1054
:100C200004E10B0E3C5CD8A034D0E80E3C1806E181
:100C3000030E3D183E103F10D8B42BD0E90E3C18DF
:100C400006E1030E3D183E103F10D8B422D03B28D9
:100C50003B6EF60E3C243C6EFF0E3D203D6EFF0EBB
:100C60003E203E6EFF0E3F203F6E3F503E103D1037
:100C7000EEE10B0E3C5CD8B0EAD73B50300F68EC8D
:100C80000AF0850E73EC0AF03C50300F68EC0AF065
:100C900031D0E80E3C1810E1030E3D183E103F1015
:100CA000D8A40AD0490E68EC0AF04E0E68EC0AF09F
:100CB000460E68EC0AF01ED0E90E3C6E030E3D6E47
:100CC000000E3E6E000E3F6E490E68EC0AF04E0EAE
:100CD00068EC0AF0440E68EC0AF00CD0200E4F18B5
:100CE000D8A404D04D5068EC0AF03FD64D5068ECC3
:100CF0000AF052D6E40E396E440EE82EFED7392E95
:100D0000FCD700D0BED50BC00FF0106A116A0A34B0
:100D10000F3601E310800F50146E0EC00FF0106AF2
:100D2000116A0D340F3601E310800F50136E14500A
:100D3000D8B40AD01350145CD8B00DD01450135C42
:100D40000F6E180E0F6407D00CC009F00DC00AF02A
:100D50000EC00BF012001350D8B40AD01450135C1C
:100D6000D8B00DD01350145C0F6E180E0F6407D05E
:100D700009C009F00AC00AF00BC00BF01200060E01
:100D8000126E0BBE128E0EBE128C0A8EFF0E09164C
:100D9000FF0E0A16000E0B160D8EFF0E0C16FF0E20
:100DA0000D16000E0E161350145CD8B01BD0D89040
:100DB0000C360D360E36130614501318D8B40DD059
:100DC000120612C00FF0070E0F16D8B406D0EFD7D8
:100DD000D8900B320A320932142A13501418D8B49E
:100DE0001FD0F6D71450135CD8B01AD0D89009365B
:100DF0000A360B36140614501318D8B40DD0120648
:100E000012C00FF0070E0F16D8B406D0EFD7D89047
:100E10000E320D320C32132A13501418D8A4F7D7FF
:100E200012AE0CD0FF0E091AFF0E0A1AFF0E0B1A93
:100E3000010E0926000E0A22000E0B2212AC0CD065
:100E4000FF0E0C1AFF0E0D1AFF0E0E1A010E0C26C5
:100E5000000E0D22000E0E22000E126E09500C26FE
:100E60000A500D220B500E220EAE0ED0FF0E0C1AA1
:100E7000FF0E0D1AFF0E0E1A010E0C26000E0D228B
:100E8000000E0E22010E126E0CC001F00DC002F019
:100E90000EC003F014C004F012C005F03AEC08F0E4
:100EA00001C009F002C00AF003C00BF012001DC01F
:100EB00021F0226A236A1C34213601E3228021506A
:100EC000246E2450D8A407D0000E1B6E000E1C6E9A
:100ED000000E1D6E120020C021F0226A236A1F340A
:100EE000213601E322802150296E2950D8A407D051
:100EF000000E1B6E000E1C6E000E1D6E120029509F
:100F00007B0F24261DC029F02050291A800E291697
:100F10001C8E1F8EFF0E1E16FF0E1F16000E2016B3
:100F2000000E256E000E266E000E276E070E286E30
:100F30001BA006D01E5025261F50262220502722F7
:100F4000D8901D321C321B32D8901E361F362036E8
:100F5000282EEED7090E286E1BA006D01E5025267F
:100F60001F50262220502722D8901D321C321B32BF
:100F7000D890273226322532282EEED725C001F010
:100F800026C002F027C003F024C004F029C005F0F9
:100F90003AEC08F001C01BF002C01CF003C01DF0C9
:100FA00012002CC02EF02F6A306A2B342E3601E34B
:100FB0002F802E50386E3850D8A409D0000E2A6EDB
:100FC000000E2B6E000E2C6E000E2D6E1200170EF2
:100FD0002E6E2AC02FF02BC030F02CC031F02E28FE
:100FE000326E04D0D890313230322F32322EFAD7CE
:100FF0002F50336E2B8EFF0E2A16FF0E2B16000E6F
:101000002C162A50346E2B50356E2C50366E376AA3
:101010008E0E385E38AE0DD03850800A8F0FD8A0B3
:10102000CDD7D8903732363235323432383EF9D7D0
:101030000DD0170E386407D0C1D7D8903436353666
:101040003636373638063850D8A4F7D73350D8B4A8
:1010500008D0371E361E351E346C000E352236225F
:10106000372234C02AF035C02BF036C02CF037C000
:101070002DF012000450D8B405D001500210031016
:10108000D8A40CD0000E016E000E026E000E036E8E
:101090001200042AD890033202320132000E0114E9
:1010A000066E000E0214076EFE0E0314086E065044
:1010B00007100810D8B40CD0ECD7042A010E012672
:1010C000000E0222000E0322D890033202320132B7
:1010D000000E0114066E000E0214076EFF0E0314BC
:1010E000086E065007100810D8B406D0E6D70406DC
:1010F000D89001360236033602BE03D0020E0460D9
:10110000F6D704A0029ED890043204500312055072
:10111000D8A4038E01C001F002C002F003C003F0A6
:10112000120081B881AA04D081AC02D081BEF9D767
:10113000FE0E8A6E81B802D0310E120081BA02D042
:10114000320E120081BC02D0330E120081BE02D0DA
:101150002B0E1200FD0E8A6E81B802D0340E1200E2
:1011600081BA02D0350E120081BC02D0360E1200B8
:1011700081BE02D02D0E1200FB0E8A6E81B802D005
:10118000370E120081BA02D0380E120081BC02D094
:10119000390E120081BE02D02F0E1200F70E8A6E99
:1011A00081B802D0430E120081BA02D0300E120074
:1011B00081BC02D03D0E120081BE02D0780E12001A
:1011C0003F0E12008D90040E5118D8A404D08C50FC
:1011D0000F0B300901D03F0E8C6E88EC0AF0010E27
:1011E0005EEC09F0040E5118D8A404D08C500F0BFB
:1011F000300901D03F0E8C6E88EC0AF0030E5EECD5
:1012000009F0040E5118D8A404D08C500F0B3009EB
:1012100001D03F0E8C6E88EC0AF0040E5EEC09F0F3
:10122000040E5118D8A411D08C500F0B20098C6ECD
:1012300088EC0AF0040E5EEC09F02F0ED9EC09F0F0
:1012400088EC0AF0040E5EEC09F07EEC0AF00F0E5A
:10125000D9EC09F088EC0AF0040E5EEC09F01200FB
:101260008E0E116E06D0D8900C320B320A32093233
:10127000112A000E09140D6E000E0A140E6E000ED7
:101280000B140F6EFF0E0C14106E0D500E100F107D
:101290001010D8A4E8D709C001F00AC002F00BC0B2
:1012A00003F011C004F0000E056E3AEC08F001C026
:1012B00009F002C00AF003C00BF01200026E1BD04E
:1012C000050E016EDE0EE82EFED7012EFCD71200B1
:1012D000530EE82EFED700F0350EE82EFED700F0B4
:1012E0001200080EE82EFED700F01200030EE82EC2
:1012F000FED700F012000250010AD8B4E1D7030A69
:10130000D8B4E6D7010AD8B4ECD7070AD8A412009B
:10131000EDD7000E066E000E056E03500410D8B413
:101320001CD0010E076E04D0D89003360436072A6D
:1013300004AEFAD7D890053606360350015C045047
:101340000258D8A005D00350015E0450025A05800F
:10135000D89004320332072EEDD705C001F006C045
:1013600002F01200000E096E000E086E06500824EE
:10137000076E07C0F6FF080EF76E0800F55000096B
:10138000D8B4120006500824076E07C0F6FF080EF6
:10139000F76E0800F55068EC0AF0084A092A09BE01
:1013A000E5D7095005E1100E085CD8B01200DED771
:1013B0001200046E040E5118D8A417D004C003F014
:1013C000F00E03168C500F0B03108C6E88EC0AF095
:1013D000010E5EEC09F004C003F0033AF00E0316B0
:1013E0008C500F0B03108C6E1200080E5118D8A4ED
:1013F000120004C08CFF1200185019101A10D8B433
:1014000006D0000E181A000E191A800E1A1A15C0EE
:1014100009F016C00AF017C00BF018C00CF019C084
:101420000DF01AC00EF083EC06F009C015F00AC0EA
:1014300016F00BC017F012001E0EF66E150EF76EAA
:10144000000EF86E00EE4EF010EE04F00900F5CF3D
:10145000EEFFE550E150FAE100EE3CF0120EEE6ACC
:10146000E806FDE1000EF86E00010FEF04F00150F8
:101470000302F3CF05F0F4CF06F001500402F3505D
:10148000062602500302F350062605C001F006C0EE
:1014900002F0120009C001F00AC002F0036A8E0EC9
:1014A000046E000E056E3AEC08F001C009F002C0AF
:1014B0000AF003C00BF01200016E040E0118D8B43C
:1014C00004D0080E0118D8A4120001C051F0120077
:1014D000056E8D800550D9EC09F088EC0AF0040EF9
:1014E0005EEC09F01200056E8D900550D9EC09F004
:1014F00088EC0AF0040E5EEC09F012008D90010EEB
:10150000D9EC09F088EC0AF0020E5EEC09F012004A
:101510008D82030EE82EFED700F08D92120020205F
:021520002008A1
:020000040020DA
:08000000FFFFFFFFFFFFFFFF00
:020000040030CA
:0E00000000091F1EFF8181FF0FC00FE00F409F
:00000001FF
