:0400000007EF00F016
:0A000800518290ED11F098EF13F013
:100800000000803F72313FFE753E58633D951D3CB0
:10081000C5AE3A79213994803793A73556153400FF
:10082000000000803FF0FFBEE2A93E8376BEAE2B03
:100830003E3CC3BDD2133D78D3BB4D6F646F2046A1
:100840006163746F7269616C004D6F646F20506FEB
:1008500074656E63696100496E64657465726D6983
:100860006E61646F004C5650204163746976616418
:100870006F0064652063616C63756C6172004D6F1D
:10088000646F205265737461004D6F646F205375FF
:100890006D6100496D706F7369626C6500496E66C9
:1008A000696E69746F00456E6572676961004D43DA
:1008B0004C5200000F0EC16E000E956EF00E936E3E
:1008C000000E966E000E946EF19E040E95EC15F0DF
:1008D00042EC11F0820ED56EF294C20ED76EF70E76
:1008E000D66EF28AF28ED58EC40ED36ECDEC15F094
:1008F000D0B6D0A407D0CDEC15F0A60E136E6DECDB
:1009000014F008D0D0B206D0CDEC15F0AE0E136EB8
:100910006DEC14F0030E00017D6F8A0E7C6F550E96
:10092000E82EFED77C2FFCD77D2FFAD700D0CDEC58
:1009300015F0000E8A6E000E476E000E466ED0EC6B
:100940000FF000019D6F58EC12F0430E9D19D8A4D2
:100950001FD0C00EACEC15F0200E0001A06F200ED1
:100960009F6F200E9E6F000E9A6F000E996F000E03
:10097000986F000E976F000E966F000E956F000E29
:100980008B6F000E8C6F000E8D6F000E8E6FCFD7A9
:10099000200EA019D8A43ED02B0E9D19D8B404D097
:1009A0005E0E9D19D8A436D0200E9F19D8A432D03F
:1009B000200E9E19D8A42ED09C1F9C51D8B41BD0B9
:1009C000800EACEC15F0490E136E6DEC14F0C00EF9
:1009D000ACEC15F0690E136E6DEC14F0020E000114
:1009E0007D6F450E7C6FA90EE82EFED77C2FFCD7BD
:1009F0007D2FFAD79BD7800EACEC15F0890E136EC5
:100A00006DEC14F0C00EACEC15F0690E136E6DECCD
:100A100014F0E4D7200EA019D8A432D02D0E9D19C1
:100A2000D8B404D0210E9D19D8A42AD0200E9F1925
:100A3000D8A426D0200E9E19D8A422D09B1F9B514B
:100A4000D8B40FD0800EACEC15F03A0E136E6DECEE
:100A500014F0C00EACEC15F0690E136E6DEC14F0D2
:100A6000BDD7800EACEC15F07E0E136E6DEC14F05D
:100A7000C00EACEC15F0690E136E6DEC14F0AED731
:100A8000200E9F19D8B408D0200E9E19D8B404D0D7
:100A9000200EA019D8A497D09B51D8A494D0200E92
:100AA000A019D8A426D02B0E9D19D8B410D02D0E85
:100AB0009D19D8B40CD02F0E9D19D8B408D0780E3B
:100AC0009D19D8B404D05E0E9D19D8A412D0200E62
:100AD0009F19D8B40ED0200E9E19D8A40AD0810E2A
:100AE000ACEC15F000019D51A1EC15F09DC0A0F0FB
:100AF0001ED2200E9F19D8A42DD02B0E9D19D8A43C
:100B000018D02D0E9D19D8A414D02F0E9D19D8A43D
:100B100010D0780E9D19D8A40CD03D0E9D19D8A4E4
:100B200008D0430E9D19D8A404D05E0E9D19D8B4E8
:100B300011D0800EACEC15F000019D51A1EC15F028
:100B40009DC09FF0D00E00019D25996F9A6BFF0EFE
:100B50009A23EDD1200E9E19D8A4E9D1200EA01918
:100B6000D8B4E5D1200E9F19D8B4E1D12B0E9D1930
:100B7000D8A418D02D0E9D19D8A414D02F0E9D19CD
:100B8000D8A410D0780E9D19D8A40CD03D0E9D1974
:100B9000D8A408D0430E9D19D8A404D05E0E9D1988
:100BA000D8B4C5D1820EACEC15F000019D51A1EC7A
:100BB00015F09DC09EF0D00E00019D25976F986B9B
:100BC000FF0E9823B4D1010E816F200E9F19D8B467
:100BD00006D0200EA019D8B402D0000E816F81512A
:100BE0009B150009D8B458D0200EA019D8A428D03D
:100BF0002B0E9D19D8B414D02D0E9D19D8B410D039
:100C00002F0E9D19D8B40CD0780E9D19D8B408D0E9
:100C10005E0E9D19D8B404D0210E9D19D8A410D011
:100C2000200E9F19D8B40CD0200E9E19D8A408D03D
:100C3000810EACEC15F000019D51A1EC15F056D7DA
:100C4000200E9F19D8A473D12B0E9D19D8A41CD0A7
:100C50002D0E9D19D8A418D02F0E9D19D8A414D0EC
:100C6000780E9D19D8A410D03D0E9D19D8A40CD093
:100C7000430E9D19D8A408D05E0E9D19D8A404D0A7
:100C8000210E9D19D8B453D1800EACEC15F00001A3
:100C90009D51A1EC15F054D73D0E9D19D8A4FDD05F
:100CA000200E9E19D8B4F9D0200EA019D8B4F5D0D2
:100CB000200E9F19D8B4F1D09B51D8A4EED0830E4A
:100CC000ACEC15F03D0EA1EC15F0C7D0975199256D
:100CD0007C6F98519A217D6F7CC087F07DC088F031
:100CE000896B8A6B87C00EF088C00FF089C010F046
:100CF0008AC011F0640E126E000E136E000E146E98
:100D0000000E156EC3EC13F00EC08BF00FC08CF00C
:100D100010C08DF011C08EF0B2D09751995D7C6FEC
:100D200098519A59D8D799C00EF09AC00FF097C031
:100D300010F098C011F05EEC15F00EC087F00FC0F7
:100D400088F00001CDD797519811D8B431D099517E
:100D50009A11D8B494D099C014F09AC015F097C0E5
:100D600016F098C017F044EC14F014C087F015C0CA
:100D700088F00001896B8A6B99C00EF09AC00FF061
:100D8000000E116E640E106E5EEC15F00EC014F0C5
:100D90000FC015F097C016F098C017F044EC14F08F
:100DA00014C08BF015C08CF000018D6B8E6B67D07A
:100DB00099519A11D8B406D097519811D8A402D05D
:100DC000E80E09D099519A11D8A48CD7975198114F
:100DD000D8A488D7E90E876F030E886F000E896F3D
:100DE000000E8A6F7FD797C016F098C017F083EC7B
:100DF00015F016C06EF017C06FF018C070F099C0F3
:100E000016F09AC017F083EC15F016C06BF017C0FF
:100E10006CF018C06DF0C6EC0CF06BC07EF06CC0CE
:100E20007FF06DC080F07EC019F07FC01AF080C0E6
:100E30001BF067EC0FF019C087F01AC088F01BC0D8
:100E400089F01CC08AF04ED7000E876F000E886FA5
:100E5000000E896F000E8A6F12D00001A0512B0A7C
:100E6000D8B434D7060AD8B458D7020AD8B46BD746
:100E7000710AD8B4B8D7260AD8B455D7E5D7840EA6
:100E8000ACEC15F087C033F088C034F089C035F081
:100E90008AC036F0DFEC09F04AD0000E826F3D0EBA
:100EA0009D19D8A40AD0210EA019D8A406D0200ECE
:100EB0009F19D8B402D0010E826F82519B15000990
:100EC000D8B432D0820EACEC15F03D0EA1EC15F08A
:100ED00099C014F09AC015F06CEC13F014C087F0B0
:100EE00015C088F016C089F017C08AF087C00EF0D0
:100EF00088C00FF089C010F08AC011F0640E126E25
:100F0000000E136E000E146E000E156EC3EC13F07F
:100F10000EC08BF00FC08CF010C08DF011C08EF0A1
:100F2000830EACEC15F0AED7570EA1EC15F0E40E25
:100F300000017C6F440EE82EFED77C2FFCD700F01A
:100F4000F8D48D802BD224C00EF025C00FF026C01F
:100F500010F027C011F00A0E126E000E136E000E74
:100F6000146E000E156E0BEC13F00E50326E3250F4
:100F7000300FA1EC15F01200640E126E000E136E0D
:100F8000000E146E000E156E24C00EF025C00FF07A
:100F900026C010F027C011F00BEC13F00EC017F0B4
:100FA0000FC018F010C019F011C01AF00A0E1B6E15
:100FB000000E1C6E000E1D6E000E1E6E17EC12F061
:100FC0001750316E24C00EF025C00FF026C010F06F
:100FD00027C011F00A0E126E000E136E000E146E72
:100FE000000E156E0BEC13F00E50326E3150300FB8
:100FF000A1EC15F03250300FA1EC15F01200E80E04
:10100000126E030E136E000E146E000E156E24C0C9
:101010000EF025C00FF026C010F027C011F00BEC29
:1010200013F00EC017F00FC018F010C019F011C067
:101030001AF0640E1B6E000E1C6E000E1D6E000E6C
:101040001E6E17EC12F017C02DF018C02EF019C04C
:101050002FF01AC030F0640E126E000E136E000EE8
:10106000146E000E156E24C00EF025C00FF026C0C1
:1010700010F027C011F00BEC13F00EC017F00FC0EA
:1010800018F010C019F011C01AF00A0E1B6E000EF5
:101090001C6E000E1D6E000E1E6E17EC12F0175027
:1010A000316E24C00EF025C00FF026C010F027C00E
:1010B00011F00A0E126E000E136E000E146E000E6A
:1010C000156E0BEC13F00E50326E2D50300FA1EC5C
:1010D00015F03150300FA1EC15F03250300FA1EC6B
:1010E00015F01200100E126E270E136E000E146E05
:1010F000000E156E24C00EF025C00FF026C010F0B3
:1011000027C011F00BEC13F00EC017F00FC018F051
:1011100010C019F011C01AF0E80E1B6E030E1C6E01
:10112000000E1D6E000E1E6E17EC12F017C029F097
:1011300018C02AF019C02BF01AC02CF0E80E126E5D
:10114000030E136E000E146E000E156E24C00EF00A
:1011500025C00FF026C010F027C011F00BEC13F0E3
:101160000EC017F00FC018F010C019F011C01AF01F
:10117000640E1B6E000E1C6E000E1D6E000E1E6EA9
:1011800017EC12F017C02DF018C02EF019C02FF078
:101190001AC030F0640E126E000E136E000E146E44
:1011A000000E156E24C00EF025C00FF026C010F002
:1011B00027C011F00BEC13F00EC017F00FC018F0A1
:1011C00010C019F011C01AF00A0E1B6E000E1C6E32
:1011D000000E1D6E000E1E6E17EC12F01750316ED1
:1011E00024C00EF025C00FF026C010F027C011F06B
:1011F0000A0E126E000E136E000E146E000E156EA7
:101200000BEC13F00E50326E2950300FA1EC15F09C
:101210002D50300FA1EC15F03150300FA1EC15F02E
:101220003250300FA1EC15F0120024C017F025C089
:1012300018F026C019F027C01AF0100E1B6E270EEA
:101240001C6E000E1D6E000E1E6E17EC12F0175075
:10125000300FA1EC15F0100E126E270E136E000E5B
:10126000146E000E156E24C00EF025C00FF026C0BF
:1012700010F027C011F00BEC13F00EC017F00FC0E8
:1012800018F010C019F011C01AF0E80E1B6E030E12
:101290001C6E000E1D6E000E1E6E17EC12F017C0B5
:1012A00029F018C02AF019C02BF01AC02CF0E80E53
:1012B000126E030E136E000E146E000E156E24C017
:1012C0000EF025C00FF026C010F027C011F00BEC77
:1012D00013F00EC017F00FC018F010C019F011C0B5
:1012E0001AF0640E1B6E000E1C6E000E1D6E000EBA
:1012F0001E6E17EC12F017C02DF018C02EF019C09A
:101300002FF01AC030F0640E126E000E136E000E35
:10131000146E000E156E24C00EF025C00FF026C00E
:1013200010F027C011F00BEC13F00EC017F00FC037
:1013300018F010C019F011C01AF00A0E1B6E000E42
:101340001C6E000E1D6E000E1E6E17EC12F0175074
:10135000316E24C00EF025C00FF026C010F027C05B
:1013600011F00A0E126E000E136E000E146E000EB7
:10137000156E0BEC13F00E50326E2950300FA1ECAD
:1013800015F02D50300FA1EC15F03150300FA1ECBD
:1013900015F03250300FA1EC15F012002850010A60
:1013A000D8B4D1D5030AD8B4E7D5010AD8B427D622
:1013B000070AD8B497D6010AD8A4120036D733C08A
:1013C0000EF034C00FF035C010F036C011F09C0E96
:1013D000126EFF0E136EFF0E146EFF0E156EC3EC31
:1013E00013F000018B510E24376E8C510F20386E94
:1013F0008D511020396E8E5111203A6E37503810B1
:1014000039103A10D8B455D0000E3C6E000E3B6E29
:1014100099C014F09AC015F097C016F098C017F054
:1014200044EC14F014C033F015C034F0356A366A59
:1014300099C00EF09AC00FF097C010F098C011F04C
:1014400001EC15F00EC04CF00FC04DF04E6A4F6A23
:101450003350300FA1EC15F03B503C10D8A409D00C
:101460004C504D104E104F10D8B403D02C0EA1ECA0
:1014700015F04C504D104E104F10D8B412004CC007
:101480000EF04DC00FF0000E116E0A0E106E5EECE5
:1014900015F00EC099F00FC09AF03B4A3C2A3CBEB2
:1014A000B7D73C5005E1030E3B5CD8B01200B0D773
:1014B000120036BE26D0365003E13504D8A021D024
:1014C000E80E331806E1030E341835103610D8B480
:1014D00018D0E90E331806E1030E34183510361013
:1014E000D8B40FD0850EACEC15F0930E136E6DECE6
:1014F00014F0C00EACEC15F0720E136E6DEC14F01F
:10150000120036BE56D036503510341004E10A0EA3
:10151000335CD8A04ED0E80E331806E1030E341821
:1015200035103610D8B445D0E90E331806E1030E55
:10153000341835103610D8B43CD0000E946F000E1D
:10154000936F33C083F034C084F035C085F036C06B
:1015500086F083C017F084C018F085C019F086C0EB
:101560001AF00A0E1B6E000E1C6E000E1D6E000E91
:101570001E6E17EC12F017C083F018C084F019C06B
:1015800085F01AC086F00001865185118411E1E1D1
:10159000020E835DD8B0DDD733C024F034C025F00F
:1015A00035C026F036C027F093C028F0A1EC07F034
:1015B0001200E80E33180BE1030E34183510361004
:1015C000D8A405D09D0E136E6DEC14F01200E90E38
:1015D00033180EE1030E341835103610D8A408D095
:1015E000C10EACEC15F0570E136E6DEC14F012003A
:1015F0003350300FA1EC15F012000001625163115D
:101600006411D8A407D0000E626F800E636F3F0E86
:10161000646F1200720E0E6E310E0F6E440E106E5D
:1016200062C011F063C012F064C013F0D1EC12F08C
:10163000D8B00CD0000E0001906F220E8F6FFF0EFD
:10164000626F7F0E636F7F0E646F120062C00EF0D8
:1016500063C00FF064C010F0490E116E3A0E126EA6
:10166000C40E136ED1EC12F0D8B00CD0000E0001F5
:10167000906F220E8F6F000E626F000E636F000E70
:10168000646F1200000164AF02D0010E01D0000EA1
:101690006A6F6A51D8B40ED062C00EF063C00FF00A
:1016A00064C010F071EC15F00EC062F00FC063F072
:1016B00010C064F062C01AF063C01BF064C01CF07C
:1016C000AA0E1D6EB80E1E6E3F0E1F6E0DEC0EF0B4
:1016D0001AC062F01BC063F01CC064F062C035F039
:1016E00063C036F064C037F0FAEC0EF035C065F038
:1016F00036C066F037C067F065C019F066C01AF0F2
:1017000067C01BF067EC0FF019C068F01AC069F0F1
:1017100062C035F063C036F064C037F068C016F0C0
:1017200069C017F042EC15F016C038F017C039F058
:1017300018C03AF022EC15F035C062F036C063F004
:1017400037C064F062C035F063C036F064C037F073
:10175000010E386E000E3A6E090E396EF3EC10F081
:1017600035C03FF036C040F037C041F068C042F0AD
:1017700069C043F037EC10F03FC062F040C063F046
:1017800041C064F000016A51D8B425D062290EE14D
:101790007F0E63190BE17F0E6419D8A407D0000EE9
:1017A000626F000E636F000E646F1200000E166E03
:1017B000800E176E3F0E186E62C019F063C01AF0EB
:1017C00064C01BF087EC0EF016C062F017C063F027
:1017D00018C064F0120062C062F063C063F064C0BD
:1017E00064F012002BC02FF0306A316A2A342F3691
:1017F00001E330802F50346E2EC02FF0306A316AF2
:101800002D342F3601E330802F50336E3450D8B44E
:101810000AD03350345CD8B00DD03450335C2F6EC6
:10182000180E2F6407D02CC029F02DC02AF02EC02E
:101830002BF012003350D8B40AD03450335CD8B0F7
:101840000DD03350345C2F6E180E2F6407D029C092
:1018500029F02AC02AF02BC02BF01200060E326E9F
:101860002BBE328E2EBE328C2A8EFF0E2916FF0E14
:101870002A16000E2B162D8EFF0E2C16FF0E2D167F
:10188000000E2E163350345CD8B01BD0D8902C36B6
:101890002D362E36330634503318D8B40DD03206D8
:1018A00032C02FF0070E2F16D8B406D0EFD7D8903D
:1018B0002B322A322932342A33503418D8B41FD06C
:1018C000F6D73450335CD8B01AD0D89029362A369F
:1018D0002B36340634503318D8B40DD0320632C00B
:1018E0002FF0070E2F16D8B406D0EFD7D8902E328F
:1018F0002D322C32332A33503418D8A4F7D732AED5
:101900000CD0FF0E291AFF0E2A1AFF0E2B1A010EF9
:101910002926000E2A22000E2B2232AC0CD0FF0EFC
:101920002C1AFF0E2D1AFF0E2E1A010E2C26000E59
:101930002D22000E2E22000E326E29502C262A5007
:101940002D222B502E222EAE0ED0FF0E2C1AFF0E63
:101950002D1AFF0E2E1A010E2C26000E2D22000E1F
:101960002E22010E326E2CC00EF02DC00FF02EC0B4
:1019700010F034C011F032C012F09CEC10F00EC028
:1019800029F00FC02AF010C02BF01200000E000149
:10199000776F6B516C116D11D8A41DD0000E0E6EB7
:1019A000000E0F6E000E106E6EC011F06FC012F0C0
:1019B00070C013F0D1EC12F0D8A005D0000E0001D9
:1019C000906F210E8F6F000E00016B6F000E6C6F19
:1019D000000E6D6F12006E516F117011D8A407D0F8
:1019E000000E6B6F800E6C6F3F0E6D6F12006DAF4F
:1019F00041D06EC019F06FC01AF070C01BF067ECD8
:101A00000FF019C078F01AC079F01BC07AF01CC032
:101A10007BF078C016F079C017F07AC018F07BC060
:101A200019F03EEC13F000016E51161807E16F51EA
:101A3000171804E170511818D8B40BD0000E906F2D
:101A4000210E8F6F000E6B6F000E6C6F000E6D6FAE
:101A500012007851010B776F6BC00EF06CC00FF065
:101A60006DC010F071EC15F00EC06BF00FC06CF093
:101A700010C06DF06BC03FF06CC040F06DC041F025
:101A800084EC0DF03FC071F040C072F041C073F0C3
:101A900071C01AF072C01BF073C01CF06EC01DF054
:101AA0006FC01EF070C01FF00DEC0EF01AC074F085
:101AB0001BC075F01CC076F074C062F075C063F096
:101AC00076C064F0FDEC0AF062C06BF063C06CF0AD
:101AD00064C06DF000017751D8B40FD06BC00EF028
:101AE0006CC00FF06DC010F071EC15F00EC06BF013
:101AF0000FC06CF010C06DF012006BC06BF06CC0CA
:101B00006CF06DC06DF0120041AE0BD0000E906F06
:101B1000210E8F6F000E3F6E000E406E000E416E64
:101B200012003F5040104110D8A40BD0000E906F0F
:101B3000220E8F6F000E3F6E000E406E000E416E43
:101B40001200000E1D6E000E1E6E400E1F6E420E25
:101B5000116E3FC00EF040C00FF041C010F0D6EC47
:101B600011F00EC01AF00FC01BF010C01CF00DECED
:101B70000EF01AC029F01BC02AF01CC02BF0000E7A
:101B80002C6E800E2D6EBF0E2E6EF2EC0BF029C067
:101B90003FF02AC040F02BC041F04206D8A04306D7
:101BA0003FC035F040C036F041C037F01F0E386EF0
:101BB000000E3A6E080E396EF3EC10F035C03FF0AF
:101BC00036C040F037C041F0720E1D6E310E1E6EF1
:101BD0003F0E1F6E42C016F043C017F042EC15F0E6
:101BE00016C01AF017C01BF018C01CF00DEC0EF058
:101BF0001AC029F01BC02AF01CC02BF03FC02CF0EB
:101C000040C02DF041C02EF0F2EC0BF029C03FF0A7
:101C10002AC040F02BC041F012001CC020F0216A05
:101C2000226A1B34203601E321802050236E23508A
:101C3000D8A407D0000E1A6E000E1B6E000E1C6E8C
:101C400012001FC020F0216A226A1E34203601E3F0
:101C500021802050286E2850D8A407D0000E1A6E7C
:101C6000000E1B6E000E1C6E120028507B0F2326E8
:101C70001CC028F01F50281A800E28161B8E1E8E9E
:101C8000FF0E1D16FF0E1E16000E1F16000E246EF0
:101C9000000E256E000E266E070E276E1AA006D0C7
:101CA0001D5024261E5025221F502622D8901C325B
:101CB0001B321A32D8901D361E361F36272EEED70D
:101CC000090E276E1AA006D01D5024261E5025226C
:101CD0001F502622D8901C321B321A32D89026323E
:101CE00025322432272EEED724C00EF025C00FF067
:101CF00026C010F023C011F028C012F09CEC10F0A8
:101D00000EC01AF00FC01BF010C01CF0120018C05B
:101D10001CF01D6A1E6A17341C3601E31D801C501E
:101D2000236E2350D8A407D0000E166E000E176E37
:101D3000000E186E12001BC01CF01D6A1E6A1A34B9
:101D40001C3601E31D801C50246E2450D8A407D0FB
:101D5000000E166E000E176E000E186E1200000EAA
:101D6000206E000E216E000E226E2450890F235E1D
:101D700018C024F01B50241A800E2416178EFF0E54
:101D80001616FF0E1716000E18161A8EFF0E1916CD
:101D9000FF0E1A16000E1B16180E1F6ED890203656
:101DA000213622361950165C1A5017581B501858F5
:101DB000D8A007D01950165E1A50175A1B50185A3F
:101DC0002080D8901636173618361F2EE7D720C039
:101DD0000EF021C00FF022C010F023C011F024C07B
:101DE00012F09CEC10F00EC016F00FC017F010C0EF
:101DF00018F0120035C00EF036C00FF037C010F0EA
:101E00003B0E116ED6EC11F03CAE10D037AE07D0C1
:101E1000000E356E800E366EBF0E376E1200000E4D
:101E2000356E000E366E000E376E12003C5004E127
:101E3000150E3B5CD8A007D035C035F036C036F063
:101E400037C037F0120035C019F036C01AF037C06D
:101E50001BF067EC0FF019C028F01AC029F01BC066
:101E60002AF01CC02BF095EC12F028C038F029C0E5
:101E700039F02AC03AF035C00EF036C00FF037C046
:101E800010F038C011F039C012F03AC013F0D1ECA4
:101E900012F0D8B015D038C029F039C02AF03AC0B5
:101EA0002BF0000E2C6E800E2D6EBF0E2E6EF2ECFF
:101EB0000BF029C035F02AC036F02BC037F01200E5
:101EC00038C035F039C036F03AC037F012001BC0C8
:101ED0001DF01E6A1F6A1A341D3601E31E801D5054
:101EE000276E2750D8A409D0000E196E000E1A6E66
:101EF000000E1B6E000E1C6E1200170E1D6E19C018
:101F00001EF01AC01FF01BC020F01D28216E04D047
:101F1000D89020321F321E32212EFAD71E50226E48
:101F20001A8EFF0E1916FF0E1A16000E1B161950E8
:101F3000236E1A50246E1B50256E266A8E0E275E65
:101F400027AE0DD02750800A8F0FD8A0CDD7D890BC
:101F50002632253224322332273EF9D70DD0170EF0
:101F6000276407D0C1D7D8902336243625362636A5
:101F700027062750D8A4F7D72250D8B408D0261E59
:101F8000251E241E236C000E24222522262223C077
:101F900019F024C01AF025C01BF026C01CF0120056
:101FA00081B881AA04D081AC02D081BEF9D7000EDD
:101FB000476E010E466EFE0E8A6E81B80BD0000190
:101FC0009C51D8A402D02B0E12009C51D8B44DD0F5
:101FD0005E0E120081BA02D03D0E120081BC02D00A
:101FE000300E120081BE02D0430E1200FD0E8A6E2A
:101FF00081B80BD000019B51D8A402D02D0E120045
:102000009B51D8B432D0210E120081BA02D0390EC1
:10201000120081BC02D0380E120081BE02D0370EF1
:102020001200FB0E8A6E81B802D0780E120081BABF
:1020300002D0360E120081BC02D0350E120081BED5
:1020400002D0340E1200F70E8A6E81B802D02F0E25
:10205000120081BA02D0330E120081BC02D0320EBF
:10206000120081BE02D0310E12003F0E12003F500E
:1020700040104110D8A407D0000E3F6E000E406EF5
:10208000000E416E120041507F0B0001606F616BCA
:10209000D89060376137605142266151432240AE8B
:1020A00003D0606B602B02D00001606B6051422650
:1020B000000E432243AE0BD0000E906F220E8F6FA6
:1020C000000E3F6E000E406E000E416E120043BEC9
:1020D00017D04304D8A014D0000E906F220E8F6F3B
:1020E00041AE07D0FF0E3F6E7F0E406EFF0E416E79
:1020F0001200FF0E3F6E7F0E406E7F0E416E12008B
:1021000043344330616F4230606F41506019800B3F
:102110006019416E42C060F0010E60176033603399
:10212000405060197F0B6019406E3FC03FF040C0C7
:1021300040F041C041F012001150D8B405D00E500B
:102140000F101010D8A40CD0000E0E6E000E0F6EE3
:10215000000E106E1200112AD89010320F320E327B
:10216000000E0E14136E000E0F14146EFE0E1014DB
:10217000156E135014101510D8B40CD0ECD7112ACA
:10218000010E0E26000E0F22000E1022D8901032E3
:102190000F320E32000E0E14136E000E0F14146E5A
:1021A000FF0E1014156E135014101510D8B406D06D
:1021B000E6D71106D8900E360F3610360FBE03D074
:1021C000020E1160F6D711A00F9ED8901132115057
:1021D00010121250D8A4108E0EC00EF00FC00FF0C7
:1021E00010C010F012003950030D3850F3243B6E2C
:1021F0003BC0F6FF080EF76E0900F5CF3CF0090072
:10220000F5CF3DF00A00F5CF3EF031D03CC01DF0D7
:102210003DC01EF03EC01FF035C01AF036C01BF0A6
:1022200037C01CF00DEC0EF01AC029F01BC02AF0CC
:102230001CC02BF03906D8A03A063950030D38508F
:10224000F3243B6E3BC0F6FF080EF76E0900F5CF96
:102250002CF00900F5CF2DF00A00F5CF2EF0F2ECAE
:102260000BF029C03CF02AC03DF02BC03EF03950A5
:102270003A10D8A4CBD73CC035F03DC036F03EC0B4
:1022800037F012008D90040E5018D8A404D08C5052
:102290000F0B300901D03F0E8C6EE1EC15F0010EF2
:1022A000EEEC13F0040E5018D8A404D08C500F0B91
:1022B000300901D03F0E8C6EE1EC15F0030EEEEC10
:1022C00013F0040E5018D8A404D08C500F0B300912
:1022D00001D03F0E8C6EE1EC15F0040EEEEC13F025
:1022E000040E5018D8A411D08C500F0B20098C6EFE
:1022F000E1EC15F0040EEEEC13F02F0EBBEC14F035
:10230000E1EC15F0040EEEEC13F0CDEC15F00F0E31
:10231000BBEC14F0E1EC15F0040EEEEC13F012003F
:102320000600F6CF0AF0F7CF0BF0F8CF0CF0F5CFA0
:102330000DF0F2A419D046504710D8A407D0010ED2
:102340004824486E000E4920496E04D0000E496EA4
:10235000000E486EF2948DB402D08D8401D08D941D
:10236000C20ED76EF70ED66E140E48184910D8A4B8
:1023700013D046504710D8A40FD08BBE02D08B8EFE
:1023800001D08B9ED7EC15F0820EC2EC15F0650ED5
:10239000066E94EC14F003000DC0F5FF0CC0F8FFBE
:1023A0000BC0F7FF0AC0F6FF519211000E500F103C
:1023B0001010D8A40ED01150D96EDA6A000EDE6E5D
:1023C000000EDD6E000E0E6E000E0F6E000E106E13
:1023D000120010507F0B126E136AD890123613360B
:1023E0001150D96EDA6A12C0DEFF13C0DDFF115042
:1023F000D96EDA6A0FAE03D0126A122A01D0126ABD
:102400001250DE12000EDD121150D96EDA6A820E01
:10241000DE26FF0EDD221050800B3F09106E0F9E4E
:102420000EC00EF00FC00FF010C010F01200000E22
:102430001F6E000E206E000E216E000E226E1B50CD
:102440001C101D101E10D8B42AD0010E236E06D009
:10245000D8901B361C361D361E36232A1EAEF8D7E2
:10246000D8901F362036213622361B50175C1C5060
:1024700018581D5019581E501A58D8A009D01B5072
:10248000175E1C50185A1D50195A1E501A5A1F8098
:10249000D8901E321D321C321B32232EE1D71FC0B2
:1024A00017F020C018F021C019F022C01AF0120055
:1024B000080E4A184B10D8A414D0000E4B6E000E14
:1024C0004A6E0FD0000E0BD0050E09D0060E07D0B5
:1024D000030E05D0020E03D0040E01D0070E8B6E42
:1024E00021D04AC00EF04BC00FF00F50000AD8A404
:1024F00019D00E50000AD8B4E5D7010AD8B4E4D7F1
:10250000030AD8B4E3D7010AD8B4E2D7070AD8B48B
:10251000E1D7010AD8B4DAD7030AD8B4DDD7010A63
:10252000D8B4DCD74A4A4B2A1200000E316E8E0E08
:10253000306E2BAE11D02B1E2A1E291E286C000EC9
:1025400029222A222B22010E316E06D0D8902B325E
:102550002A3229322832302A000E28142C6E000E1E
:1025600029142D6E000E2A142E6EFF0E2B142F6EC2
:102570002C502D102E102F10D8A4E8D728C00EF004
:1025800029C00FF02AC010F030C011F031C012F095
:102590009CEC10F00EC028F00FC029F010C02AF0FB
:1025A000120010AE0FD0000E146E000E156E800ECD
:1025B000166E0E50145C0E6E0F5015580F6E1050A4
:1025C0001658106E13AE0FD0000E146E000E156E5E
:1025D000800E166E1150145C116E12501558126E4A
:1025E00013501658136E000E0E1A000E0F1A800E9E
:1025F000101A000E111A000E121A800E131A115022
:102600000E5C12500F5813501058D8B002D0D8900A
:102610001200D88012001250131014101510D8B4E4
:1026200024D0010E166E06D0D8901236133614360A
:102630001536162A15AEF8D712500E5C13500F58E7
:102640001450105815501158D8A008D012500E5ED2
:1026500013500F5A1450105A1550115AD890153261
:10266000143213321232162EE7D70EC00EF00FC0FE
:102670000FF010C010F011C011F012008E0E1E6E7F
:1026800006D0D89019321832173216321E2A000E90
:1026900016141A6E000E17141B6E000E18141C6E02
:1026A000FF0E19141D6E1A501B101C101D10D8A4FB
:1026B000E8D716C00EF017C00FF018C010F01EC0FB
:1026C00011F0000E126E9CEC10F00EC016F00FC050
:1026D00017F010C018F01200000E196E010E186EDF
:1026E00014C044F015C045F011D018C00EF019C048
:1026F0000FF044C010F045C011F05EEC15F00EC0B4
:1027000018F00FC019F04406D8A0450645BE06D003
:102710004550EBE1020E445CD8B0E7D718C014F086
:1027200019C015F0000E15BEFF0E166E176E1200C2
:10273000DE0EF66E2B0EF76E000EF86E0900F5CF6A
:102740009EF00900F5CF9FF00900F5CFA0F0E10E53
:10275000F66E2B0EF76E000EF86E0900F5CF50F0F6
:1027600000EE83F01B0EEE6AE806FDE100EE44F099
:102770000C0EEE6AE806FDE151905192000EF86EE3
:1027800000015AEF04F0000E166E000E176E000ED8
:10279000186E000E196E0EA008D012501626135097
:1027A00017221450182215501922D89012361336B9
:1027B00014361536D890113210320F320E320E50B8
:1027C0000F1010101110D8A4E6D716C00EF017C0C5
:1027D0000FF018C010F019C011F012000F6E1BD0CE
:1027E000050E0E6EDE0EE82EFED70E2EFCD7120062
:1027F000530EE82EFED700F0350EE82EFED700F07F
:102800001200080EE82EFED700F01200030EE82E8C
:10281000FED700F012000F50010AD8B4E1D7030A26
:10282000D8B4E6D7010AD8B4ECD7070AD8A4120066
:10283000EDD7026E1BD0050E016EDE0EE82EFED720
:10284000012EFCD71200530EE82EFED700F0350EF5
:10285000E82EFED700F01200080EE82EFED700F09A
:102860001200030EE82EFED700F012000250010AFB
:10287000D8B4E1D7030AD8B4E6D7010AD8B4ECD764
:10288000070AD8A41200EDD7000E196E000E186EBC
:1028900016501710D8B41CD0010E1A6E04D0D89060
:1028A000163617361A2A17AEFAD7D89018361936B0
:1028B0001650145C17501558D8A005D01650145E49
:1028C0001750155A1880D890173216321A2EEDD795
:1028D00018C014F019C015F01200000E166E000E8C
:1028E000156E13501524146E14C0F6FF080EF76E03
:1028F0000800F5500009D8B4120013501524146EC6
:1029000014C0F6FF080EF76E0800F550A1EC15F0A4
:10291000154A162A16BEE5D7165005E1100E155CAD
:10292000D8B01200DED71200000E096E000E086E3D
:1029300006500824076E07C0F6FF080EF76E080061
:10294000F5500009D8B4120006500824076E07C0DD
:10295000F6FF080EF76E0800F550B7EC15F0084AC0
:10296000092A09BEE5D7095005E1100E085CD8B068
:102970001200DED71200116E040E5018D8A417D022
:1029800011C010F0F00E10168C500F0B10108C6E42
:10299000E1EC15F0010EEEEC13F011C010F0103A5E
:1029A000F00E10168C500F0B10108C6E1200080ECB
:1029B0005018D8A4120011C08CFF1200046E040E2F
:1029C0005018D8A417D004C003F0F00E03168C5092
:1029D0000F0B03108C6EE8EC15F0010E19EC14F0DF
:1029E00004C003F0033AF00E03168C500F0B0310D3
:1029F0008C6E1200080E5018D8A4120004C08CFF70
:102A0000120010501110D8B418D0010E126E04D05C
:102A1000D89010361136122A11AEFAD710500E5C2B
:102A200011500F58D8A004D010500E5E11500F5AFC
:102A3000D89011321032122EF1D70EC00EF00FC006
:102A40000FF01200385039103A10D8B406D0000EEA
:102A5000381A000E391A800E3A1A35C029F036C0DD
:102A60002AF037C02BF038C02CF039C02DF03AC016
:102A70002EF0F2EC0BF029C035F02AC036F02BC056
:102A800037F01200000E196E17AE06D0166C171E26
:102A9000D8B0172A010E196E16C00EF017C00FF02D
:102AA000106A8E0E116E19C012F09CEC10F00EC060
:102AB00016F00FC017F010C018F012000E501002E0
:102AC000F3CF12F0F4CF13F00E501102F35013268F
:102AD0000F501002F350132612C00EF013C00FF067
:102AE00012000E500F101010D8B406D0000E0E1A9F
:102AF000000E0F1A800E101A0EC00EF00FC00FF04D
:102B000010C010F0120016C00EF017C00FF0106ABF
:102B10008E0E116E000E126E9CEC10F00EC016F0B0
:102B20000FC017F010C018F012000E6E040E0E1831
:102B3000D8B404D0080E0E18D8A412000EC050F05D
:102B40001200126E8D801250BBEC14F0E1EC15F007
:102B5000040EEEEC13F01200126E8D901250BBECCE
:102B600014F0E1EC15F0040EEEEC13F01200056E1B
:102B70008D800550DEEC14F0E8EC15F0040E19EC35
:102B800014F01200056E8D900550DEEC14F0E8ECA8
:102B900015F0040E19EC14F012008D90010EBBEC30
:102BA00014F0E1EC15F0020EEEEC13F012008D9033
:102BB000010EDEEC14F0E8EC15F0020E19EC14F046
:102BC00012008D82030EE82EFED700F08D921200C7
:102BD0008D82030EE82EFED700F08D921200202089
:022BE0002008CB
:020000040020DA
:08000000FFFFFFFFFFFFFFFF00
:020000040030CA
:0E00000000091F1EFF8185FF0FC00FE00F409B
:00000001FF
