:0400000007EF00F016
:0A000800518278ED0AF09BEF0CF036
:10080000004D6F646F20466163746F7269616C00A4
:100810004D6F646F20506F74656E63696100496E3F
:1008200064657465726D696E61646F004C5650202A
:10083000416374697661646F004D6F646F20526527
:10084000737461004D6F646F2053756D6100496E64
:1008500066696E69746F00456E6572676961004D07
:05086000434C520000B2
:100866000F0EC16E000E956EF00E936E000E966E14
:10087600000E946EF19E040EF3EC0CF02AEC0AF0D6
:10088600820ED56EF294C20ED76EF70ED66EF28A2F
:10089600F28ED58EC40ED36E2BEC0DF0D0B6D0A44E
:1008A60007D02BEC0DF0570E136EE2EC0BF008D0D0
:1008B600D0B206D02BEC0DF05F0E136EE2EC0BF00F
:1008C600030E256E8A0E246E560EE82EFED7242EB3
:1008D600FCD7252EFAD72BEC0DF0000E8A6E000EF3
:1008E600396E000E386E6FEC09F0486EBFEC0AF0F8
:1008F600430E4818D8A41BD0200E4F6E200E4E6E05
:10090600200E4D6E000E456E000E446E000E436EB8
:10091600000E426E000E416E000E406E000E306EEE
:10092600000E316E000E326E000E336ED4D7200EDE
:100936004F18D8A43DD02B0E4818D8B404D05E0E5C
:100946004818D8A435D0200E4E18D8A431D0200E81
:100956004D18D8A42DD0471E4750D8B41AD0800EB3
:100966000AEC0DF0100E136EE2EC0BF0C00E0AEC62
:100976000DF0300E136EE2EC0BF0020E256E450EF6
:10098600246EAA0EE82EFED7242EFCD7252EFAD7E3
:10099600A2D7800E0AEC0DF0440E136EE2EC0BF0BB
:1009A600C00E0AEC0DF0300E136EE2EC0BF0E5D73C
:1009B600200E4F18D8A432D02D0E4818D8B404D023
:1009C600210E4818D8A42AD0200E4E18D8A426D016
:1009D600200E4D18D8A422D0461E4650D8B40FD0AB
:1009E600800E0AEC0DF0010E136EE2EC0BF0C00E59
:1009F6000AEC0DF0300E136EE2EC0BF0BED7800E53
:100A06000AEC0DF0390E136EE2EC0BF0C00E0AEC98
:100A16000DF0300E136EE2EC0BF0AFD7200E4E1831
:100A2600D8B408D0200E4D18D8B404D0200E4F18D4
:100A3600D8A492D04650D8A48FD0200E4F18D8A450
:100A460025D02B0E4818D8B410D02D0E4818D8B47F
:100A56000CD02F0E4818D8B408D0780E4818D8B441
:100A660004D05E0E4818D8A411D0200E4E18D8B463
:100A76000DD0200E4D18D8A409D0810E0AEC0DF029
:100A86004850FFEC0CF048C04FF00CD2200E4E1828
:100A9600D8A42BD02B0E4818D8A418D02D0E481841
:100AA600D8A414D02F0E4818D8A410D0780E481801
:100AB600D8A40CD03D0E4818D8A408D0430E481828
:100AC600D8A404D05E0E4818D8B40FD0800E0AEC15
:100AD6000DF04850FFEC0CF048C04EF0D00E482404
:100AE600446E456AFF0E4522DDD1200E4D18D8A46E
:100AF600D9D1200E4F18D8B4D5D1200E4E18D8B45F
:100B0600D1D12B0E4818D8A418D02D0E4818D8A429
:100B160014D02F0E4818D8A410D0780E4818D8A490
:100B26000CD03D0E4818D8A408D0430E4818D8A4B7
:100B360004D05E0E4818D8B4B5D1820E0AEC0DF07A
:100B46004850FFEC0CF048C04DF0D00E4824426EE1
:100B5600436AFF0E4322A6D1010E266E200E4E18C2
:100B6600D8B406D0200E4F18D8B402D0000E266E88
:100B7600265046140009D8B456D0200E4F18D8A4D3
:100B860027D02B0E4818D8B414D02D0E4818D8B438
:100B960010D02F0E4818D8B40CD0780E4818D8B4F8
:100BA60008D05E0E4818D8B404D0210E4818D8A430
:100BB6000FD0200E4E18D8B40BD0200E4D18D8A446
:100BC60007D0810E0AEC0DF04850FFEC0CF05BD715
:100BD600200E4E18D8A466D12B0E4818D8A41CD0C7
:100BE6002D0E4818D8A418D02F0E4818D8A414D003
:100BF600780E4818D8A410D03D0E4818D8A40CD0AA
:100C0600430E4818D8A408D05E0E4818D8A404D0BD
:100C1600210E4818D8B446D1800E0AEC0DF0485083
:100C2600FFEC0CF059D73D0E4818D8A4F4D0200E8E
:100C36004D18D8B4F0D0200E4F18D8B4ECD0200EF2
:100C46004E18D8B4E8D04650D8A4E5D0830E0AECA6
:100C56000DF03D0EFFEC0CF0BFD042504424246E44
:100C660043504520256E24C02CF025C02DF02E6A59
:100C76002F6A2CC00EF02DC00FF02EC010F02FC022
:100C860011F0640E126E000E136E000E146E000E3E
:100C9600156E38EC0BF00EC030F00FC031F010C0FE
:100CA60032F011C033F0A9D04250445C246E435058
:100CB6004558D8D744C00EF045C00FF042C010F0DA
:100CC60043C011F0E0EC0CF00EC02CF00FC02DF07C
:100CD600CED742504310D8B42FD044504510D8B484
:100CE6008CD044C014F045C015F042C016F043C085
:100CF60017F0B9EC0BF014C02CF015C02DF02E6ACD
:100D06002F6A44C00EF045C00FF0000E116E640E3F
:100D1600106EE0EC0CF00EC014F00FC015F042C0DF
:100D260016F043C017F0B9EC0BF014C030F015C044
:100D360031F0326A336A61D044504510D8B406D0D7
:100D460042504310D8A402D0E80E09D044504510B2
:100D5600D8A48FD742504310D8A48BD7E90E2C6E57
:100D6600030E2D6E000E2E6E000E2F6E82D744C01F
:100D76002CF045C02DF02E6A2F6A000E416E010E32
:100D8600406E1AD044C00EF045C00FF0106A116ACA
:100D96002CC012F02DC013F02EC014F02FC015F089
:100DA60038EC0BF00EC02CF00FC02DF010C02EF05A
:100DB60011C02FF0404A412A4250405C43504158EE
:100DC600D8B057D7DFD7000E2C6E000E2D6E000E52
:100DD6002E6E000E2F6E11D04F502B0AD8B43DD771
:100DE600060AD8B461D7020AD8B473D7710AD8B440
:100DF600BED7260AD8B45ED7E6D7840E0AEC0DF025
:100E06002CC01CF02DC01DF02EC01EF02FC01FF0F0
:100E16005EEC07F047D0000E276E3D0E4818D8A4AA
:100E26000AD0210E4F18D8A406D0200E4E18D8B4DA
:100E360002D0010E276E275046140009D8B42FD0D1
:100E4600820E0AEC0DF03D0EFFEC0CF044C01AF0D9
:100E560045C01BF0FCEC0AF01AC02CF01BC02DF0AC
:100E66001CC02EF01DC02FF02CC00EF02DC00FF0B0
:100E76002EC010F02FC011F0640E126E000E136E0D
:100E8600000E146E000E156E38EC0BF00EC030F02E
:100E96000FC031F010C032F011C033F0B1D7570E89
:100EA600FFEC0CF0E40E246E440EE82EFED7242E42
:100EB600FCD700D012D5000E0001606F1CC00EF0EA
:100EC6001DC00FF01EC010F01FC011F09C0E126E58
:100ED600FF0E136EFF0E146EFF0E156E38EC0BF040
:100EE60030500E24206E31500F20216E32501020CB
:100EF600226E33501120236E205021102210231011
:100F0600D8B458D0000E0001646F000E636F44C061
:100F160014F045C015F042C016F043C017F0B9EC06
:100F26000BF014C01CF015C01DF01E6A1F6A44C0E9
:100F36000EF045C00FF042C010F043C011F07AEC3D
:100F46000CF00EC049F00FC04AF04B6A4C6A1C50B8
:100F5600300FFFEC0CF0000163516411D8A409D0E6
:100F660049504A104B104C10D8B403D02C0EFFEC4D
:100F76000CF049504A104B104C10D8B4120049C01E
:100F86000EF04AC00FF0000E116E0A0E106EE0EC65
:100F96000CF00EC044F00FC045F00001634B642B0B
:100FA60064BFB5D7645105E1030E635DD8B0120086
:100FB600AED712001FBE2DD01F501E1005E11C0417
:100FC600800E1D58D8A025D0E80E1C1806E1030E89
:100FD6001D181E101F10D8B41CD0E90E1C1806E1EF
:100FE600030E1D181E101F10D8B413D02D0EFFECC3
:100FF6000CF0850E0AEC0DF01F1E1E1E1D1E1C6C2D
:10100600000E1D221E221F221C50300FFFEC0CF07A
:1010160012001FBED7D01F501E101D1004E10A0E6D
:101026001C5CD8A0CFD0E80E1C1806E1030E1D18D4
:101036001E101F10D8B4C6D0E90E1C1806E1030E08
:101046001D181E101F10D8B4BDD0000E0001666F0B
:10105600090E656F0A0E676F000E686F000E696FE6
:10106600000E6A6FFF0E6525616FFF0E6621626FC7
:1010760062BF24D0625103E16105D8A01FD067C0CA
:101086000EF068C00FF069C010F06AC011F00A0EC9
:10109600126E000E136E000E146E000E156E38ECF6
:1010A6000BF00EC067F00FC068F010C069F011C0F9
:1010B6006AF000016107D8A06207DAD71CC00EF0FB
:1010C6001DC00FF01EC010F01FC011F067C012F057
:1010D60068C013F069C014F06AC015F009EC09F095
:1010E60011BE3BD0115010100F1003E10E04D8A012
:1010F60034D0010E0001606F1CC00EF01DC00FF051
:101106001EC010F01FC011F067C012F068C013F0C7
:1011160069C014F06AC015F009EC09F00E50300FE2
:10112600FFEC0CF01CC00EF01DC00FF01EC010F03E
:101136001FC011F067C012F068C013F069C014F048
:101146006AC015F0D4EC09F00EC01CF00FC01DF0FB
:1011560010C01EF011C01FF02ED01CC00EF01DC016
:101166000FF01EC010F01FC011F067C012F068C06B
:1011760013F069C014F06AC015F009EC09F00E50BE
:101186000F1010101110D8A416D000016051D8B459
:1011960012D01FBE08D01F501E101D1009E10A0EE6
:1011A6001C5CD8B005D01C50300FFFEC0CF003D0FF
:1011B600300EFFEC0CF000016507D8A0660766BF8D
:1011C600120048D7E80E1C180BE1030E1D181E105E
:1011D6001F10D8A405D04E0E136EE2EC0BF01200D1
:1011E600E90E1C180EE1030E1D181E101F10D8A4C0
:1011F60008D0C10E0AEC0DF01E0E136EE2EC0BF0D9
:1012060012001C50300FFFEC0CF01200000E176E8F
:1012160015AE0AD0151E141E131E126C000E1322D4
:1012260014221522010E176E11AE0AD0111E101EC1
:101236000F1E0E6C000E0F2210221122010E171A1D
:10124600000E186E000E196E000E1A6E000E1B6E42
:101256001250131014101510D8B42AD0010E166EA1
:1012660006D0D8901236133614361536162A15AE11
:10127600F8D7D890183619361A361B3612500E5C27
:1012860013500F581450105815501158D8A009D0A3
:1012960012500E5E13500F5A1450105A1550115A10
:1012A6001880D8901532143213321232162EE1D726
:1012B6001750D8B408D01B1E1A1E191E186C000E23
:1012C60019221A221B2218C00EF019C00FF01AC0DC
:1012D60010F01BC011F0120081B881AA04D081ACB5
:1012E60002D081BEF9D7000E396E010E386EFE0EA1
:1012F6008A6E81B80AD04750D8A402D02B0E1200AD
:101306004750D8B44CD05E0E120081BA02D03D0EC2
:10131600120081BC02D0300E120081BE02D0430EF4
:101326001200FD0E8A6E81B80AD04650D8A402D0AB
:101336002D0E12004650D8B432D0210E120081BABA
:1013460002D0390E120081BC02D0380E120081BEC6
:1013560002D0370E1200FB0E8A6E81B802D0780ECC
:10136600120081BA02D0360E120081BC02D0350EB0
:10137600120081BE02D0340E1200F70E8A6E81B8BA
:1013860002D02F0E120081BA02D0330E120081BC99
:1013960002D0320E120081BE02D0310E12003F0E74
:1013A6001200000E176E11AE0AD0111E101E0F1E6F
:1013B6000E6C000E0F2210221122010E176E15AEB2
:1013C60008D0151E141E131E126C000E13221422B2
:1013D60015221250131014101510D8B424D0010E73
:1013E600166E06D0D8901236133614361536162ACF
:1013F60015AEF8D712500E5C13500F5814501058F3
:1014060015501158D8A008D012500E5E13500F5A1E
:101416001450105A1550115AD890153214321332EE
:101426001232162EE7D71750D8B408D0111E101E48
:101436000F1E0E6C000E0F22102211220EC00EF08F
:101446000FC00FF010C010F011C011F012008D90F7
:10145600040E5018D8A404D08C500F0B300901D0BC
:101466003F0E8C6E3FEC0DF0010E63EC0BF0040E9C
:101476005018D8A404D08C500F0B300901D03F0E61
:101486008C6E3FEC0DF0030E63EC0BF0040E50185F
:10149600D8A404D08C500F0B300901D03F0E8C6EAF
:1014A6003FEC0DF0040E63EC0BF0040E5018D8A4BC
:1014B60011D08C500F0B20098C6E3FEC0DF0040EF2
:1014C60063EC0BF02F0E34EC0CF03FEC0DF0040E39
:1014D60063EC0BF02BEC0DF00F0E34EC0CF03FEC44
:1014E6000DF0040E63EC0BF012000600F6CF0AF0C6
:1014F600F7CF0BF0F8CF0CF0F5CF0DF0F2A419D022
:1015060038503910D8A407D0010E3C243C6E000E8A
:101516003D203D6E04D0000E3D6E000E3C6EF294F2
:101526008DB402D08D8401D08D94C20ED76EF70E85
:10153600D66E140E3C183D10D8A414D0385039106D
:10154600D8A410D08BBE02D08B8E01D08B9E35ECEA
:101556000DF0820E20EC0DF02C0E066E0BEC0CF04E
:101566000300FFD70DC0F5FF0CC0F8FF0BC0F7FF57
:101576000AC0F6FF51921100080E3E183F10D8A47B
:1015860014D0000E3F6E000E3E6E0FD0000E0BD034
:10159600050E09D0060E07D0030E05D0020E03D0A5
:1015A600040E01D0070E8B6E21D03EC00EF03FC058
:1015B6000FF00F50000AD8A419D00E50000AD8B464
:1015C600E5D7010AD8B4E4D7030AD8B4E3D7010AA9
:1015D600D8B4E2D7070AD8B4E1D7010AD8B4DAD723
:1015E600030AD8B4DDD7010AD8B4DCD73E4A3F2A6D
:1015F6001200010E1E6E000E1F6E000E206E000EF3
:10160600216E1AC034F01BC035F01ED034C00EF067
:1016160035C00FF0000E0FBEFF0E106E116E1EC00D
:1016260012F01FC013F020C014F021C015F038ECE2
:101636000BF00EC01EF00FC01FF010C020F011C03E
:1016460021F03406D8A0350635BE06D03550DEE189
:10165600020E345CD8B0DAD71EC01AF01FC01BF0D9
:1016660020C01CF021C01DF01200000E166E000EE8
:10167600176E000E186E000E196E0EA008D01250CE
:101686001626135017221450182215501922D890D6
:101696001236133614361536D890113210320F32F0
:1016A6000E320E500F1010101110D8A4E6D716C027
:1016B6000EF017C00FF018C010F019C011F012008C
:1016C6000F6E1BD0050E0E6EDE0EE82EFED70E2E0A
:1016D600FCD71200530EE82EFED700F0350EE82E8A
:1016E600FED700F01200080EE82EFED700F012001A
:1016F600030EE82EFED700F012000F50010AD8B4F0
:10170600E1D7030AD8B4E6D7010AD8B4ECD7070A5A
:10171600D8A41200EDD7026E1BD0050E016EDE0EA8
:10172600E82EFED7012EFCD71200530EE82EFED768
:1017360000F0350EE82EFED700F01200080EE82E57
:10174600FED700F01200030EE82EFED700F01200BE
:101756000250010AD8B4E1D7030AD8B4E6D7010A81
:10176600D8B4ECD7070AD8A41200EDD7000E1A6E2B
:10177600000E196E16501710D8B41CD0010E186E34
:1017860004D0D89016361736182A17AEFAD7D8903E
:1017960019361A361650145C17501558D8A005D0AD
:1017A6001650145E1750155A1980D89017321632F3
:1017B600182EEDD719C014F01AC015F01200000E3D
:1017C600166E000E156E19D013501524146E14C023
:1017D600F6FF080EF76E0800F5500009D8B412009F
:1017E60013501524146E14C0F6FF080EF76E080089
:1017F600F550FFEC0CF0154A162A13C00EF0B8ECA3
:101806000CF00E50155C0F501658D8B01200DCD7ED
:10181600000E096E000E086E19D006500824076ED9
:1018260007C0F6FF080EF76E0800F5500009D8B499
:10183600120006500824076E07C0F6FF080EF76E62
:101846000800F55015EC0DF0084A092A06C001F00B
:10185600CCEC0CF00150085C02500958D8B01200CC
:10186600DCD7116E040E5018D8A417D011C010F092
:10187600F00E10168C500F0B10108C6E3FEC0DF006
:10188600010E63EC0BF011C010F0103AF00E1016BA
:101896008C500F0B10108C6E1200080E5018D8A426
:1018A600120011C08CFF1200046E040E5018D8A44A
:1018B60017D004C003F0F00E03168C500F0B031064
:1018C6008C6E46EC0DF0010E8EEC0BF004C003F0AE
:1018D600033AF00E03168C500F0B03108C6E120099
:1018E600080E5018D8A4120004C08CFF1200105025
:1018F6001110D8B418D0010E126E04D0D89010363C
:101906001136122A11AEFAD710500E5C11500F582C
:10191600D8A004D010500E5E11500F5AD890113234
:101926001032122EF1D70EC00EF00FC00FF01200BB
:101936009A0EF66E1A0EF76E000EF86E00EE4DF069
:1019460010EE04F00900F5CFEEFFE550E150FAE1A4
:1019560000EE28F0250EEE6AE806FDE15190519260
:10196600000EF86E000133EF04F00EC010F001D047
:10197600102A10C0F6FF080EF76E0800F550000991
:10198600D8A4F6D70E50105C0E6E0F6A0EBE0F0668
:10199600120001C003F001D0032A03C0F6FF080EAF
:1019A600F76E0800F5500009D8A4F6D70150035C7D
:1019B600016E026A01BE020612000E501002F3CF3B
:1019C60012F0F4CF13F00E501102F35013260F50FD
:1019D6001002F350132612C00EF013C00FF01200BF
:1019E6000E6E040E0E18D8B404D0080E0E18D8A425
:1019F60012000EC050F01200126E8D80125034ECA0
:101A06000CF03FEC0DF0040E63EC0BF01200126EBE
:101A16008D90125034EC0CF03FEC0DF0040E63EC9C
:101A26000BF01200056E8D80055057EC0CF046EC5D
:101A36000DF0040E8EEC0BF01200056E8D90055025
:101A460057EC0CF046EC0DF0040E8EEC0BF0120089
:101A56008D90010E34EC0CF03FEC0DF0020E63ECB1
:101A66000BF012008D90010E57EC0CF046EC0DF0C9
:101A7600020E8EEC0BF012008D82030EE82EFED7BE
:101A860000F08D9212008D82030EE82EFED700F034
:081A96008D92120020202008AF
:020000040020DA
:08000000FFFFFFFFFFFFFFFF00
:020000040030CA
:0E00000000091F1EFF8181FF0FC00FE00F409F
:00000001FF
