:0400000007EF00F016
:0A0008005182A4ED10F03BEF12F05E
:100800000000803F72313FFE753E58633D951D3CB0
:10081000C5AE3A79213994803793A73556153400FF
:10082000000000803FF0FFBEE2A93E8376BEAE2B03
:100830003E3CC3BDD2133D78D3BB4D6F646F2046A1
:100840006163746F7269616C004D6F646F20506FEB
:1008500074656E63696100496E64657465726D6983
:100860006E61646F004C5650204163746976616418
:100870006F0064652063616C63756C6172004D6F1D
:10088000646F205265737461004D6F646F205375FF
:100890006D6100496D706F7369626C6500496E66C9
:1008A000696E69746F00456E6572676961004D43DA
:1008B0004C5200000F0EC16E000E956EF00E936E3E
:1008C000000E966E000E946EF19E040E52EC14F023
:1008D00056EC10F0820ED56EF294C20ED76EF70E63
:1008E000D66EF28AF28ED58EC40ED36E8AEC14F0D8
:1008F000D0B6D0A407D08AEC14F0A60E136E10EC7C
:1009000013F008D0D0B206D08AEC14F0AE0E136EFD
:1009100010EC13F0030E00019D6F8A0E9C6F550EB4
:10092000E82EFED79C2FFCD79D2FFAD700D08AEC5B
:1009300014F0000E8A6E000E496E000E486E26EC12
:100940000EF00001B66F2EEC11F0430EB619D8A4CC
:100950001BD0200EBD6F200EBC6F200EBB6F000E93
:10096000B36F000EB26F000EB16F000EB06F000ECD
:10097000AF6F000EAE6F000EA86F000EA96F000ED5
:10098000AA6F000EAB6FD3D7200EBD19D8A43ED0EE
:100990002B0EB619D8B404D05E0EB619D8A436D032
:1009A000200EBC19D8A432D0200EBB19D8A42ED04A
:1009B000B51FB551D8B41BD0800E69EC14F0490EA8
:1009C000136E10EC13F0C00E69EC14F0690E136E88
:1009D00010EC13F0020E00019D6F450E9C6FA90EE6
:1009E000E82EFED79C2FFCD79D2FFAD79FD7800EDD
:1009F00069EC14F0890E136E10EC13F0C00E69EC64
:100A000014F0690E136E10EC13F0E4D7200EBD192C
:100A1000D8A432D02D0EB619D8B404D0210EB619F0
:100A2000D8A42AD0200EBC19D8A426D0200EBB19D9
:100A3000D8A422D0B41FB451D8B40FD0800E69EC22
:100A400014F03A0E136E10EC13F0C00E69EC14F0B3
:100A5000690E136E10EC13F0BDD7800E69EC14F024
:100A60007E0E136E10EC13F0C00E69EC14F0690EDC
:100A7000136E10EC13F0AED7200EBC19D8B408D00A
:100A8000200EBB19D8B404D0200EBD19D8A497D01D
:100A9000B451D8A494D0200EBD19D8A426D02B0EC2
:100AA000B619D8B410D02D0EB619D8B40CD02F0E5C
:100AB000B619D8B408D0780EB619D8B404D05E0EE2
:100AC000B619D8A412D0200EBC19D8B40ED0200E5E
:100AD000BB19D8A40AD0810E69EC14F00001B651FC
:100AE0005EEC14F0B6C0BDF01AD2200EBC19D8A42A
:100AF0002DD02B0EB619D8A418D02D0EB619D8A407
:100B000014D02F0EB619D8A410D0780EB619D8A4C8
:100B10000CD03D0EB619D8A408D0430EB619D8A4EF
:100B200004D05E0EB619D8B411D0800E69EC14F062
:100B30000001B6515EEC14F0B6C0BCF0D00E00015E
:100B4000B625B26FB36BFF0EB323E9D1200EBB19EC
:100B5000D8A4E5D1200EBD19D8B4E1D1200EBC191E
:100B6000D8B4DDD12B0EB619D8A418D02D0EB619D5
:100B7000D8A414D02F0EB619D8A410D0780EB61958
:100B8000D8A40CD03D0EB619D8A408D0430EB6197F
:100B9000D8A404D05E0EB619D8B4C1D1820E69ECC7
:100BA00014F00001B6515EEC14F0B6C0BBF0D00EEC
:100BB0000001B625B06FB16BFF0EB123B0D1010EAD
:100BC0009E6F200EBC19D8B406D0200EBD19D8B423
:100BD00002D0000E9E6F9E51B4150009D8B458D0B3
:100BE000200EBD19D8A428D02B0EB619D8B414D015
:100BF0002D0EB619D8B410D02F0EB619D8B40CD00B
:100C0000780EB619D8B408D05E0EB619D8B404D090
:100C1000210EB619D8A410D0200EBC19D8B40CD00F
:100C2000200EBB19D8A408D0810E69EC14F0000185
:100C3000B6515EEC14F056D7200EBC19D8A46FD173
:100C40002B0EB619D8A41CD02D0EB619D8A418D0C6
:100C50002F0EB619D8A414D0780EB619D8A410D077
:100C60003D0EB619D8A40CD0430EB619D8A408D09E
:100C70005E0EB619D8A404D0210EB619D8B44FD13F
:100C8000800E69EC14F00001B6515EEC14F054D7FC
:100C90003D0EB619D8A4F9D0200EBB19D8B4F5D0A2
:100CA000200EBD19D8B4F1D0200EBC19D8B4EDD0A7
:100CB000B451D8A4EAD0830E69EC14F03D0E5EEC7A
:100CC00014F0C3D0B051B2259C6FB151B3219D6FC8
:100CD0009CC0A4F09DC0A5F0A66BA76BA4C00EF0AD
:100CE000A5C00FF0A6C010F0A7C011F0640E126EE0
:100CF000000E136E000E146E000E156E66EC12F0F0
:100D00000EC0A8F00FC0A9F010C0AAF011C0ABF03F
:100D1000AED0B051B25D9C6FB151B359D8D7B2C00B
:100D20000EF0B3C00FF0B0C010F0B1C011F02DEC58
:100D300014F00EC0A4F00FC0A5F00001CDD7B05143
:100D4000B111D8B431D0B251B311D8B490D0B2C02F
:100D500014F0B3C015F0B0C016F0B1C017F0E7EC56
:100D600012F014C0A4F015C0A5F00001A66BA76B8B
:100D7000B2C00EF0B3C00FF0000E116E640E106E14
:100D80002DEC14F00EC014F00FC015F0B0C016F02A
:100D9000B1C017F0E7EC12F014C0A8F015C0A9F02C
:100DA0000001AA6BAB6B63D0B251B311D8B406D0BB
:100DB000B051B111D8A402D0E80E09D0B251B3118C
:100DC000D8A48CD7B051B111D8A488D7E90EA46F9C
:100DD000030EA56F000EA66F000EA76F7FD7B2C0DF
:100DE000A4F0B3C0A5F0A66BA76B000EAF6F010E09
:100DF000AE6F1BD0B2C00EF0B3C00FF0106A116A14
:100E0000A4C012F0A5C013F0A6C014F0A7C015F03E
:100E100066EC12F00EC0A4F00FC0A5F010C0A6F052
:100E200011C0A7F00001AE4BAF2BB051AE5DB15178
:100E3000AF59D8B053D7DED7000EA46F000EA56F00
:100E4000000EA66F000EA76F12D00001BD512B0A35
:100E5000D8B438D7060AD8B45CD7020AD8B46FD74A
:100E6000710AD8B4BCD7260AD8B459D7E5D7840EAE
:100E700069EC14F0A4C08AF0A5C08BF0A6C08CF079
:100E8000A7C08DF099EC07F04AD0000E9F6F3D0E81
:100E9000B619D8A40AD0210EBD19D8A406D0200EA8
:100EA000BC19D8B402D0010E9F6F9F51B415000930
:100EB000D8B432D0820E69EC14F03D0E5EEC14F022
:100EC000B2C014F0B3C015F00FEC12F014C0A4F0CF
:100ED00015C0A5F016C0A6F017C0A7F0A4C00EF06C
:100EE000A5C00FF0A6C010F0A7C011F0640E126EDE
:100EF000000E136E000E146E000E156E66EC12F0EE
:100F00000EC0A8F00FC0A9F010C0AAF011C0ABF03D
:100F1000830E69EC14F0AED7570E5EEC14F0E40EBD
:100F200000019C6F440EE82EFED79C2FFCD700F0EA
:100F300000D58AC00EF08BC00FF08CC010F08DC0B1
:100F400011F09C0E126EFF0E136EFF0E146EFF0E4C
:100F5000156E66EC12F00001A8510E248E6FA95197
:100F60000F208F6FAA511020906FAB511120916FFD
:100F70008E518F1190119111D8B459D0000E936FEA
:100F8000000E926FB2C014F0B3C015F0B0C016F0EE
:100F9000B1C017F0E7EC12F014C08AF015C08BF066
:100FA00000018C6B8D6BB2C00EF0B3C00FF0B0C0FF
:100FB00010F0B1C011F0A8EC13F00EC0B7F00FC0E4
:100FC000B8F0B96BBA6B8A51300F5EEC14F00001C7
:100FD00092519311D8A409D0B751B811B911BA11CF
:100FE000D8B403D02C0E5EEC14F00001B751B81148
:100FF000B911BA11D8B41200B7C00EF0B8C00FF0D2
:10100000000E116E0A0E106E2DEC14F00EC0B2F030
:101010000FC0B3F00001924B932B93BFB3D7935102
:1010200005E1030E925DD8B01200ACD712008DBF5F
:101030002BD04A0E8A5D910E8B59170E8C59170EC4
:101040008D59D8A021D0E80E8A1906E1030E8B191C
:101050008C118D11D8B418D0E90E8A1906E1030E4F
:101060008B198C118D11D8B40FD0850E69EC14F04A
:10107000930E136E10EC13F0C00E69EC14F0720EA8
:10108000136E10EC13F012008DBFEAD08D518C114D
:101090008B1104E10A0E8A5DD8A0E2D0E80E8A190D
:1010A00006E1030E8B198C118D11D8B4D9D0E90E3D
:1010B0008A1906E1030E8B198C118D11D8B4D0D08A
:1010C000000E9B6F090E9A6F9AC016F09BC017F026
:1010D000E9EC13F016C094F017C095F018C096F024
:1010E00094C06EF095C06FF096C070F0000E0001D5
:1010F0006B6F200E6C6F410E6D6F1DEC0BF06BC0B3
:1011000097F06CC098F06DC099F08AC07CF08BC0ED
:101110007DF08CC07EF08DC07FF097C01AF098C033
:101120001BF099C01CF0BDEC0DF01AC080F01BC084
:1011300081F01CC082F01DC083F08DEC0EF07FBFEB
:1011400089D07F517E117D1103E17C05D8A082D02A
:101150009AC016F09BC017F0E9EC13F016C094F09B
:1011600017C095F018C096F094C06EF095C06FF05F
:1011700096C070F0000E00016B6F200E6C6F410E78
:101180006D6F1DEC0BF06BC097F06CC098F06DC0EC
:1011900099F08AC07CF08BC07DF08CC07EF08DC051
:1011A0007FF097C01AF098C01BF099C01CF0BDECFE
:1011B0000DF01AC080F01BC081F01CC082F01DC071
:1011C00083F08DEC0EF07C51300F5EEC14F09AC081
:1011D00016F09BC017F0E9EC13F016C094F017C09E
:1011E00095F018C096F094C06EF095C06FF096C060
:1011F00070F0000E00016B6F200E6C6F410E6D6F72
:101200001DEC0BF06BC097F06CC098F06DC099F0BE
:101210008AC07CF08BC07DF08CC07EF08DC07FF0EA
:1012200097C01AF098C01BF099C01CF0BDEC0DF0EF
:101230001AC080F01BC081F01CC082F01DC083F07A
:10124000B0EC0FF07CC08AF07DC08BF07EC08CF0DB
:101250007FC08DF09A07D8A09B079BBF120034D7A0
:10126000E80E8A190BE1030E8B198C118D11D8A48D
:1012700005D09D0E136E10EC13F01200E90E8A19C2
:101280000EE1030E8B198C118D11D8A408D0C10E5C
:1012900069EC14F0570E136E10EC13F012008A5123
:1012A000300F5EEC14F01200000162516311641102
:1012B000D8A407D0000E626F800E636F3F0E646F7C
:1012C0001200720E0E6E310E0F6E440E106E62C062
:1012D00011F063C012F064C013F0A7EC11F0D8B0A5
:1012E0000CD0000E0001AD6F220EAC6FFF0E626FCE
:1012F0007F0E636F7F0E646F120062C00EF063C0DA
:101300000FF064C010F0490E116E3A0E126EC40E4A
:10131000136EA7EC11F0D8B00CD0000E0001AD6F29
:10132000220EAC6F000E626F000E636F000E646FD2
:101330001200000164AF02D0010E01D0000E6A6FEE
:101340006A51D8B40ED062C00EF063C00FF064C012
:1013500010F040EC14F00EC062F00FC063F010C04B
:1013600064F062C01AF063C01BF064C01CF0AA0EE7
:101370001D6EB80E1E6E3F0E1F6E63EC0CF01AC091
:1013800062F01BC063F01CC064F062C035F063C043
:1013900036F064C037F050EC0DF035C065F036C063
:1013A00066F037C067F065C01AF066C01BF067C012
:1013B0001CF0BDEC0DF01AC068F01BC069F062C0F3
:1013C00035F063C036F064C037F068C016F069C00D
:1013D00017F0E9EC13F016C038F017C039F018C058
:1013E0003AF0C9EC13F035C062F036C063F037C094
:1013F00064F062C035F063C036F064C037F0010EAF
:10140000386E000E3A6E090E396E07EC10F035C0DA
:101410003FF036C040F037C041F068C042F069C0CC
:1014200043F0F4EC0EF03FC062F040C063F041C006
:1014300064F000016A51D8B425D062290EE17F0E14
:1014400063190BE17F0E6419D8A407D0000E626FF8
:10145000000E636F000E646F1200000E166E800E99
:10146000176E3F0E186E62C019F063C01AF064C0A8
:101470001BF0DDEC0CF016C062F017C063F018C072
:1014800064F0120062C062F063C063F064C064F094
:1014900012002BC02FF0306A316A2A342F3601E354
:1014A00030802F50346E2EC02FF0306A316A2D34C8
:1014B0002F3601E330802F50336E3450D8B40AD029
:1014C0003350345CD8B00DD03450335C2F6E180ECE
:1014D0002F6407D02CC029F02DC02AF02EC02BF08D
:1014E00012003350D8B40AD03450335CD8B00DD089
:1014F0003350345C2F6E180E2F6407D029C029F0AA
:101500002AC02AF02BC02BF01200060E326E2BBE22
:10151000328E2EBE328C2A8EFF0E2916FF0E2A1610
:10152000000E2B162D8EFF0E2C16FF0E2D16000E04
:101530002E163350345CD8B01BD0D8902C362D36B4
:101540002E36330634503318D8B40DD0320632C09C
:101550002FF0070E2F16D8B406D0EFD7D8902B3225
:101560002A322932342A33503418D8B41FD0F6D74F
:101570003450335CD8B01AD0D89029362A362B365E
:10158000340634503318D8B40DD0320632C02FF0A0
:10159000070E2F16D8B406D0EFD7D8902E322D32A2
:1015A0002C32332A33503418D8A4F7D732AE0CD0AB
:1015B000FF0E291AFF0E2A1AFF0E2B1A010E2926DA
:1015C000000E2A22000E2B2232AC0CD0FF0E2C1A59
:1015D000FF0E2D1AFF0E2E1A010E2C26000E2D22A4
:1015E000000E2E22000E326E29502C262A502D225B
:1015F0002B502E222EAE0ED0FF0E2C1AFF0E2D1ABF
:10160000FF0E2E1A010E2C26000E2D22000E2E2269
:10161000010E326E2CC00EF02DC00FF02EC010F057
:1016200034C011F032C012F059EC0FF00EC029F0A6
:101630000FC02AF010C02BF01200000E776F6B5114
:101640006C116D11D8A41DD0000E0E6E000E0F6E21
:10165000000E106E6EC011F06FC012F070C013F06B
:10166000A7EC11F0D8A005D0000E0001AD6F210E3F
:10167000AC6F000E00016B6F000E6C6F000E6D6F93
:1016800012006E516F117011D8A407D0000E6B6F4D
:10169000800E6C6F3F0E6D6F12006DAF41D06EC04B
:1016A0001AF06FC01BF070C01CF0BDEC0DF01AC03A
:1016B00078F01BC079F01CC07AF01DC07BF078C0B8
:1016C00016F079C017F07AC018F07BC019F0E1EC81
:1016D00011F000016E51161807E16F51171804E15F
:1016E00070511818D8B40BD0000EAD6F210EAC6F2E
:1016F000000E6B6F000E6C6F000E6D6F1200785154
:10170000010B776F6BC00EF06CC00FF06DC010F066
:1017100040EC14F00EC06BF00FC06CF010C06DF018
:101720006BC03FF06CC040F06DC041F0DAEC0BF0E4
:101730003FC071F040C072F041C073F071C01AF048
:1017400072C01BF073C01CF06EC01DF06FC01EF0A5
:1017500070C01FF063EC0CF01AC074F01BC075F081
:101760001CC076F074C062F075C063F076C064F09F
:1017700054EC09F062C06BF063C06CF064C06DF0B3
:1017800000017751D8B40FD06BC00EF06CC00FF0D1
:101790006DC010F040EC14F00EC06BF00FC06CF098
:1017A00010C06DF012006BC06BF06CC06CF06DC0BF
:1017B0006DF0120041AE0BD0000EAD6F210EAC6F7C
:1017C000000E3F6E000E406E000E416E12003F5044
:1017D00040104110D8A40BD0000EAD6F220EAC6F9C
:1017E000000E3F6E000E406E000E416E1200000EA5
:1017F0001D6E000E1E6E400E1F6E420E116E3FC01B
:101800000EF040C00FF041C010F0EDEC10F00EC033
:101810001AF00FC01BF010C01CF063EC0CF01AC0E3
:1018200029F01BC02AF01CC02BF0000E2C6E800E7D
:101830002D6EBF0E2E6E49EC0AF029C03FF02AC073
:1018400040F02BC041F04206D8A043063FC035F01F
:1018500040C036F041C037F01F0E386E000E3A6EB1
:10186000080E396E07EC10F035C03FF036C040F07E
:1018700037C041F0720E1D6E310E1E6E3F0E1F6E90
:1018800042C016F043C017F0E9EC13F016C01AF08E
:1018900017C01BF018C01CF063EC0CF01AC029F044
:1018A0001BC02AF01CC02BF03FC02CF040C02DF014
:1018B00041C02EF049EC0AF029C03FF02AC040F0A8
:1018C0002BC041F012001CC020F0216A226A1B3498
:1018D000203601E321802050236E2350D8A407D066
:1018E000000E1A6E000E1B6E000E1C6E12001FC042
:1018F00020F0216A226A1E34203601E32180205024
:10190000286E2850D8A407D0000E1A6E000E1B6E49
:10191000000E1C6E120028507B0F23261CC028F0DE
:101920001F50281A800E28161B8E1E8EFF0E1D16A5
:10193000FF0E1E16000E1F16000E246E000E256EE2
:10194000000E266E070E276E1AA006D01D50242604
:101950001E5025221F502622D8901C321B321A32CC
:10196000D8901D361E361F36272EEED7090E276E4D
:101970001AA006D01D5024261E5025221F502622B4
:10198000D8901C321B321A32D8902632253224329B
:10199000272EEED724C00EF025C00FF026C010F081
:1019A00023C011F028C012F059EC0FF00EC01AF04D
:1019B0000FC01BF010C01CF0120018C01CF01D6AF4
:1019C0001E6A17341C3601E31D801C50236E235001
:1019D000D8A407D0000E166E000E176E000E186EFB
:1019E00012001BC01CF01D6A1E6A1A341C3601E36B
:1019F0001D801C50246E2450D8A407D0000E166EF3
:101A0000000E176E000E186E1200000E206E000EF3
:101A1000216E000E226E2450890F235E18C024F020
:101A20001B50241A800E2416178EFF0E1616FF0E5A
:101A30001716000E18161A8EFF0E1916FF0E1A161C
:101A4000000E1B16180E1F6ED89020362136223637
:101A50001950165C1A5017581B501858D8A007D0A8
:101A60001950165E1A50175A1B50185A2080D890D9
:101A70001636173618361F2EE7D720C00EF021C0B5
:101A80000FF022C010F023C011F024C012F059EC66
:101A90000FF00EC016F00FC017F010C018F01200B3
:101AA00035C00EF036C00FF037C010F03B0E116E8F
:101AB000EDEC10F03CAE10D037AE07D0000E356E16
:101AC000800E366EBF0E376E1200000E356E000EA1
:101AD000366E000E376E12003C5004E1150E3B5C72
:101AE000D8A007D035C035F036C036F037C037F053
:101AF000120035C01AF036C01BF037C01CF0BDEC28
:101B00000DF01AC029F01BC02AF01CC02BF01DC01C
:101B10002CF06BEC11F029C038F02AC039F02BC042
:101B20003AF035C00EF036C00FF037C010F038C0B4
:101B300011F039C012F03AC013F0A7EC11F0D8B090
:101B400015D038C029F039C02AF03AC02BF0000E69
:101B50002C6E800E2D6EBF0E2E6E49EC0AF029C041
:101B600035F02AC036F02BC037F0120038C035F0FF
:101B700039C036F03AC037F012001CC01EF01F6AA0
:101B8000206A1B341E3601E31F801E50286E285029
:101B9000D8A409D0000E1A6E000E1B6E000E1C6E2B
:101BA000000E1D6E1200170E1E6E1AC01FF01BC015
:101BB00020F01CC021F01E28226E04D0D8902132C3
:101BC00020321F32222EFAD71F50236E1B8EFF0E9B
:101BD0001A16FF0E1B16000E1C161A50246E1B50F0
:101BE000256E1C50266E276A8E0E285E28AE0DD0FC
:101BF0002850800A8F0FD8A0CDD7D8902732263210
:101C000025322432283EF9D70DD0170E286407D08C
:101C1000C1D7D890243625362636273628062850B0
:101C2000D8A4F7D72350D8B408D0271E261E251EC7
:101C3000246C000E25222622272224C01AF025C05B
:101C40001BF026C01CF027C01DF0120081B881AA2D
:101C500004D081AC02D081BEF9D7000E496E010ECE
:101C6000486EFE0E8A6E81B80BD00001B551D8A423
:101C700002D02B0E1200B551D8B44DD05E0E12001A
:101C800081BA02D03D0E120081BC02D0300E12008B
:101C900081BE02D0430E1200FD0E8A6E81B80BD0B9
:101CA0000001B451D8A402D02D0E1200B451D8B402
:101CB00032D0210E120081BA02D0390E120081BC3E
:101CC00002D0380E120081BE02D0370E1200FB0E79
:101CD0008A6E81B802D0780E120081BA02D0360E18
:101CE000120081BC02D0350E120081BE02D0340E2B
:101CF0001200F70E8A6E81B802D02F0E120081BA40
:101D000002D0330E120081BC02D0320E120081BE0E
:101D100002D0310E12003F0E1200000E0001856F3E
:101D200083AF0AD0831F821F811F806D000E812325
:101D300082238323010E856F7FAF0AD07F1F7E1F12
:101D40007D1F7C6D000E7D237E237F23010E851B6E
:101D5000000E866F000E876F000E886F000E896F71
:101D60008051811182118311D8B42AD0010E846F61
:101D700006D0D8908037813782378337842B83AF62
:101D8000F8D7D890863787378837893780517C5D78
:101D900081517D5982517E5983517F59D8A009D0F4
:101DA00080517C5F81517D5B82517E5B83517F5B83
:101DB0008681D8908333823381338033842FE1D777
:101DC0008551D8B408D0891F881F871F866D000EE3
:101DD00087238823892386C07CF087C07DF088C054
:101DE0007EF089C07FF012003F5040104110D8A40F
:101DF00007D0000E3F6E000E406E000E416E1200C6
:101E000041507F0B0001606F616BD8906037613784
:101E1000605142266151432240AE03D0606B602B7B
:101E200002D00001606B60514226000E432243AE97
:101E30000BD0000EAD6F220EAC6F000E3F6E000E89
:101E4000406E000E416E120043BE17D04304D8A06E
:101E500014D0000EAD6F220EAC6F41AE07D0FF0E56
:101E60003F6E7F0E406EFF0E416E1200FF0E3F6E02
:101E70007F0E406E7F0E416E120043344330616F1F
:101E80004230606F41506019800B6019416E42C052
:101E900060F0010E601760336033405060197F0BB3
:101EA0006019406E3FC03FF040C040F041C041F07B
:101EB00012001150D8B405D00E500F101010D8A435
:101EC0000CD0000E0E6E000E0F6E000E106E120083
:101ED000112AD89010320F320E32000E0E14136EEB
:101EE000000E0F14146EFE0E1014156E1350141005
:101EF0001510D8B40CD0ECD7112A010E0E26000E06
:101F00000F22000E1022D89010320F320E32000E27
:101F10000E14136E000E0F14146EFF0E1014156EB7
:101F2000135014101510D8B406D0E6D71106D89067
:101F30000E360F3610360FBE03D0020E1160F6D7E4
:101F400011A00F9ED8901132115010121250D8A427
:101F5000108E0EC00EF00FC00FF010C010F0120067
:101F6000000E0001856F7FAF0AD07F1F7E1F7D1F8F
:101F70007C6D000E7D237E237F23010E856F83AF52
:101F800008D0831F821F811F806D000E8123822352
:101F900083238051811182118311D8B424D0010E82
:101FA000846F06D0D8908037813782378337842B6F
:101FB00083AFF8D780517C5D81517D5982517E5924
:101FC00083517F59D8A008D080517C5F81517D5BBF
:101FD00082517E5B83517F5BD89083338233813320
:101FE0008033842FE7D78551D8B408D07F1F7E1F58
:101FF0007D1F7C6D000E7D237E237F237CC07CF0C3
:102000007DC07DF07EC07EF07FC07FF01200395031
:10201000030D3850F3243B6E3BC0F6FF080EF76EFD
:102020000900F5CF3CF00900F5CF3DF00A00F5CFEF
:102030003EF031D03CC01DF03DC01EF03EC01FF050
:1020400035C01AF036C01BF037C01CF063EC0CF042
:102050001AC029F01BC02AF01CC02BF03906D8A0EA
:102060003A063950030D3850F3243B6E3BC0F6FF5F
:10207000080EF76E0900F5CF2CF00900F5CF2DF012
:102080000A00F5CF2EF049EC0AF029C03CF02AC036
:102090003DF02BC03EF039503A10D8A4CBD73CC00D
:1020A00035F03DC036F03EC037F012008D90040E82
:1020B0005018D8A404D08C500F0B300901D03F0E1B
:1020C0008C6E9EEC14F0010E91EC12F0040E501880
:1020D000D8A404D08C500F0B300901D03F0E8C6E69
:1020E0009EEC14F0030E91EC12F0040E5018D8A4DC
:1020F00004D08C500F0B300901D03F0E8C6E9EEC3B
:1021000014F0040E91EC12F0040E5018D8A411D063
:102110008C500F0B20098C6E9EEC14F0040E91EC89
:1021200012F02F0E62EC13F09EEC14F0040E91EC02
:1021300012F08AEC14F00F0E62EC13F09EEC14F027
:10214000040E91EC12F012000600F6CF0AF0F7CF61
:102150000BF0F8CF0CF0F5CF0DF0F2A419D04850E9
:102160004910D8A407D0010E4C244C6E000E4D200F
:102170004D6E04D0000E4D6E000E4C6EF2948DB478
:1021800002D08D8401D08D94C20ED76EF70ED66E1C
:10219000340E4C1818E1080E4D18D8A414D048502D
:1021A0004910D8A410D08BBE02D08B8E01D08B9E4C
:1021B00094EC14F0820E7FEC14F0650E066E39EC90
:1021C00013F00300FFD70DC0F5FF0CC0F8FF0BC0E4
:1021D000F7FF0AC0F6FF519211000E500F101010B9
:1021E000D8A40ED01150D96EDA6A000EDE6E000E41
:1021F000DD6E000E0E6E000E0F6E000E106E1200E1
:1022000010507F0B126E136AD8901236133611508D
:10221000D96EDA6A12C0DEFF13C0DDFF1150D96E2D
:10222000DA6A0FAE03D0126A122A01D0126A125073
:10223000DE12000EDD121150D96EDA6A820EDE2631
:10224000FF0EDD221050800B3F09106E0F9E0EC056
:102250000EF00FC00FF010C010F01200080E4E1854
:102260004F10D8A414D0000E4F6E000E4E6E0FD03B
:10227000000E0BD0050E09D0060E07D0030E05D0B8
:10228000020E03D0040E01D0070E8B6E21D04EC07B
:102290000EF04FC00FF00F50000AD8A419D00E5006
:1022A000000AD8B4E5D7010AD8B4E4D7030AD8B4F1
:1022B000E3D7010AD8B4E2D7070AD8B4E1D7010AB4
:1022C000D8B4DAD7030AD8B4DDD7010AD8B4DCD73A
:1022D0004E4A4F2A1200000E326E8E0E316E2CAE18
:1022E00011D02C1E2B1E2A1E296C000E2A222B22F6
:1022F0002C22010E326E06D0D8902C322B322A328C
:102300002932312A000E29142D6E000E2A142E6E49
:10231000000E2B142F6EFF0E2C14306E2D502E102D
:102320002F103010D8A4E8D729C00EF02AC00FF023
:102330002BC010F031C011F032C012F059EC0FF088
:102340000EC029F00FC02AF010C02BF0120010AE02
:102350000FD0000E146E000E156E800E166E0E500D
:10236000145C0E6E0F5015580F6E10501658106EEC
:1023700013AE0FD0000E146E000E156E800E166E8A
:102380001150145C116E12501558126E13501658DD
:10239000136E000E0E1A000E0F1A800E101A000E89
:1023A000111A000E121A800E131A11500E5C1250E0
:1023B0000F5813501058D8B002D0D8901200D880BF
:1023C00012008E0E1E6E06D0D890193218321732B7
:1023D00016321E2A000E16141A6E000E17141B6EEB
:1023E000000E18141C6EFF0E19141D6E1A501B10CF
:1023F0001C101D10D8A4E8D716C00EF017C00FF09F
:1024000018C010F01EC011F0000E126E59EC0FF043
:102410000EC016F00FC017F010C018F01200000E1A
:10242000196E010E186E14C044F015C045F011D09D
:1024300018C00EF019C00FF044C010F045C011F0E4
:102440002DEC14F00EC018F00FC019F04406D8A0FF
:10245000450645BE06D04550EBE1020E445CD8B0BF
:10246000E7D718C014F019C015F0000E15BEFF0E06
:10247000166E176E1200580EF66E290EF76E000ECD
:10248000F86E0900F5CFBBF00900F5CFBCF00900EC
:10249000F5CFBDF05B0EF66E290EF76E000EF86EEE
:1024A0000900F5CF50F000EEA0F01B0EEE6AE80632
:1024B000FDE100EE44F00C0EEE6AE806FDE15190FD
:1024C0005192000EF86E00015AEF04F0000E166EE5
:1024D000000E176E000E186E000E196E0EA008D0BA
:1024E0001250162613501722145018221550192274
:1024F000D8901236133614361536D8901132103261
:102500000F320E320E500F1010101110D8A4E6D753
:1025100016C00EF017C00FF018C010F019C011F05F
:1025200012000F6E1BD0050E0E6EDE0EE82EFED7CB
:102530000E2EFCD71200530EE82EFED700F0350EFB
:10254000E82EFED700F01200080EE82EFED700F0AD
:102550001200030EE82EFED700F012000F50010A01
:10256000D8B4E1D7030AD8B4E6D7010AD8B4ECD777
:10257000070AD8A41200EDD7026E1BD0050E016E1B
:10258000DE0EE82EFED7012EFCD71200530EE82EE9
:10259000FED700F0350EE82EFED700F01200080E30
:1025A000E82EFED700F01200030EE82EFED700F052
:1025B00012000250010AD8B4E1D7030AD8B4E6D712
:1025C000010AD8B4ECD7070AD8A41200EDD7000E40
:1025D000196E000E186E16501710D8B41CD0010ECC
:1025E0001A6E04D0D890163617361A2A17AEFAD7B4
:1025F000D890183619361650145C17501558D8A0B4
:1026000005D01650145E1750155A1880D8901732FE
:1026100016321A2EEDD718C014F019C015F012009A
:10262000000E166E000E156E19D013501524146E80
:1026300014C0F6FF080EF76E0800F5500009D8B474
:10264000120013501524146E14C0F6FF080EF76E16
:102650000800F5505EEC14F0154A162A13C00EF06F
:1026600005EC14F00E50155C0F501658D8B012003F
:10267000DCD7000E096E000E086E19D00650082433
:10268000076E07C0F6FF080EF76E0800F550000948
:10269000D8B4120006500824076E07C0F6FF080ED3
:1026A000F76E0800F55074EC14F0084A092A06C0C9
:1026B00001F019EC14F00150085C02500958D8B030
:1026C0001200DCD7116E040E5018D8A417D011C018
:1026D00010F0F00E10168C500F0B10108C6E9EEC3C
:1026E00014F0010E91EC12F011C010F0103AF00E3F
:1026F00010168C500F0B10108C6E1200080E501814
:10270000D8A4120011C08CFF1200046E040E5018E1
:10271000D8A417D004C003F0F00E03168C500F0B92
:1027200003108C6EA5EC14F0010EBCEC12F004C08A
:1027300003F0033AF00E03168C500F0B03108C6E4F
:102740001200080E5018D8A4120004C08CFF12000A
:1027500010501110D8B418D0010E126E04D0D890B9
:1027600010361136122A11AEFAD710500E5C1150E5
:102770000F58D8A004D010500E5E11500F5AD890A8
:1027800011321032122EF1D70EC00EF00FC00FF022
:102790001200385039103A10D8B406D0000E381A4A
:1027A000000E391A800E3A1A35C029F036C02AF0C8
:1027B00037C02BF038C02CF039C02DF03AC02EF0C5
:1027C00049EC0AF029C035F02AC036F02BC037F0AA
:1027D0001200000E196E17AE06D0166C171ED8B078
:1027E000172A010E196E16C00EF017C00FF0106AEE
:1027F0008E0E116E19C012F059EC0FF00EC016F0CB
:102800000FC017F010C018F012000EC010F001D069
:10281000102A10C0F6FF080EF76E0800F5500009E8
:10282000D8A4F6D70E50105C0E6E0F6A0EBE0F06BF
:10283000120001C003F001D0032A03C0F6FF080E06
:10284000F76E0800F5500009D8A4F6D70150035CD4
:10285000016E026A01BE020612000E501002F3CF92
:1028600012F0F4CF13F00E501102F35013260F5054
:102870001002F350132612C00EF013C00FF0120016
:102880000E500F101010D8B406D0000E0E1A000E05
:102890000F1A800E101A0EC00EF00FC00FF010C0ED
:1028A00010F012000E6E040E0E18D8B404D0080EEC
:1028B0000E18D8A412000EC050F01200126E8D80B7
:1028C000125062EC13F09EEC14F0040E91EC12F036
:1028D0001200126E8D90125062EC13F09EEC14F008
:1028E000040E91EC12F01200056E8D80055085ECFF
:1028F00013F0A5EC14F0040EBCEC12F01200056EFF
:102900008D90055085EC13F0A5EC14F0040EBCEC92
:1029100012F012008D90010E62EC13F09EEC14F098
:10292000020E91EC12F012008D90010E85EC13F066
:10293000A5EC14F0020EBCEC12F012008D82030E16
:10294000E82EFED700F08D9212008D82030EE82E45
:0C295000FED700F08D921200202020081D
:020000040020DA
:08000000FFFFFFFFFFFFFFFF00
:020000040030CA
:0E00000000091F1EFF8181FF0FC00FE00F409F
:00000001FF
