:0400000007EF00F016
:0A0008004D82A4ED0AF064EF0BF046
:10080000004D6F646F20466163746F7269616C00A4
:100810004D6F646F20506F74656E63696100496E3F
:1008200064657465726D696E61646F004C5650202A
:10083000416374697661646F004D6F646F20526527
:10084000737461004D6F646F2053756D6100496E64
:1008500066696E69746F00456E6572676961004D07
:05086000434C520000B2
:100866000F0EC16E000E956EF00E936E000E966E14
:10087600000E946EF19E040E2FEC0DF056EC0AF06D
:10088600820ED56EF294C20ED76EF70ED66EF28A2F
:10089600F28ED58EC40ED36E67EC0DF0D0B6D0A412
:1008A60007D067EC0DF0570E136E3BEC0CF008D03A
:1008B600D0B206D067EC0DF05F0E136E3BEC0CF079
:1008C600030E256E8A0E246E560EE82EFED7242EB3
:1008D600FCD7252EFAD767EC0DF0000E3BEC0DF099
:1008E600A30E246E550EE82EFED7242EFCD700F05C
:1008F600010E3BEC0DF0000E416E000E8A6E000EEE
:10090600356E000E346E9BEC09F0446EEBEC0AF08B
:10091600430E4418D8A41DD0200E4B6E200E4A6EEE
:10092600200E496E000E3F6E000E3E6E000E3D6EAE
:10093600000E3C6E000E3B6E000E3A6E000E2C6EE4
:10094600000E2D6E000E2E6E000E2F6E67EC0DF053
:10095600D2D7200E4B18D8A43DD02B0E4418D8B4AD
:1009660004D05E0E4418D8A435D0200E4A18D8A458
:1009760031D0200E4918D8A42DD0431E4350D8B4E8
:100986001AD0800E46EC0DF0100E136E3BEC0CF0F8
:10099600C00E46EC0DF0300E136E3BEC0CF0020E62
:1009A600256E450E246EAA0EE82EFED7242EFCD701
:1009B600252EFAD7CBD7800E46EC0DF0440E136EDB
:1009C6003BEC0CF0C00E46EC0DF0300E136E3BEC1B
:1009D6000CF0E5D7200E4B18D8A432D02D0E4418B3
:1009E600D8B404D0210E4418D8A42AD0200E4A1810
:1009F600D8A426D0200E4918D8A422D0421E425090
:100A0600D8B40FD0800E46EC0DF0010E136E3BEC01
:100A16000CF0C00E46EC0DF0300E136E3BEC0CF0F5
:100A2600BED7800E46EC0DF0390E136E3BEC0CF083
:100A3600C00E46EC0DF0300E136E3BEC0CF0AFD74B
:100A4600200E4A18D8B408D0200E4918D8B404D0BD
:100A5600200E4B18D8A492D04250D8A48FD0200E86
:100A66004B18D8A425D02B0E4418D8B410D02D0E70
:100A76004418D8B40CD02F0E4418D8B408D0780E29
:100A86004418D8B404D05E0E4418D8A411D0200E51
:100A96004A18D8B40DD0200E4918D8A409D0810E12
:100AA60046EC0DF044503BEC0DF044C04BF023D225
:100AB600200E4A18D8A42BD02B0E4418D8A418D030
:100AC6002D0E4418D8A414D02F0E4418D8A410D034
:100AD600780E4418D8A40CD03D0E4418D8A408D0DB
:100AE600430E4418D8A404D05E0E4418D8B40FD0D0
:100AF600800E46EC0DF044503BEC0DF044C04AF03D
:100B0600D00E44243E6E3F6AFF0E3F22F4D1200EE3
:100B16004918D8A4F0D1200E4B18D8B4ECD1200E29
:100B26004A18D8B4E8D12B0E4418D8A418D02D0EE4
:100B36004418D8A414D02F0E4418D8A410D0780E78
:100B46004418D8A40CD03D0E4418D8A408D0430E9F
:100B56004418D8A404D05E0E4418D8B4CCD1820E62
:100B660046EC0DF044503BEC0DF044C049F0D00E7D
:100B760044243C6E3D6AFF0E3D22BDD1010E266E19
:100B8600200E4A18D8B406D0200E4B18D8B402D07E
:100B9600000E266E265042140009D8B456D0200EF8
:100BA6004B18D8A427D02B0E4418D8B414D02D0E29
:100BB6004418D8B410D02F0E4418D8B40CD0780EE0
:100BC6004418D8B408D05E0E4418D8B404D0210E08
:100BD6004418D8A40FD0200E4A18D8B40BD0200E33
:100BE6004918D8A407D0810E46EC0DF044503BECD2
:100BF6000DF05BD7200E4A18D8A47DD12B0E4418D1
:100C0600D8A41CD02D0E4418D8A418D02F0E4418E2
:100C1600D8A414D0780E4418D8A410D03D0E441889
:100C2600D8A40CD0430E4418D8A408D05E0E44189D
:100C3600D8A404D0210E4418D8B45DD1800E46EC59
:100C46000DF044503BEC0DF059D73D0E4418D8A496
:100C56000BD1200E4918D8B407D1200E4B18D8B4A2
:100C660003D1200E4A18D8B4FFD04250D8A4FCD0E5
:100C7600830E46EC0DF03D0E3BEC0DF0D6D03C500D
:100C86003E24246E3D503F20256E24C028F025C00A
:100C960029F02A6A2B6A28C00EF029C00FF02AC054
:100CA60010F02BC011F0640E126E000E136E000EC3
:100CB600146E000E156E91EC0BF00EC02CF00FC0EA
:100CC6002DF010C02EF011C02FF0C0D03C503E5C6D
:100CD600246E3D503F58256E24C028F025C029F0CB
:100CE6002A6A2B6A3C503E5C3D503F58D8B0D3D759
:100CF600010E416ED0D73EC00EF03FC00FF03CC093
:100D060010F03DC011F01CEC0DF00EC028F00FC025
:100D160029F0BFD73C503D10D8B42FD03E503F10DD
:100D2600D8B494D03EC014F03FC015F03CC016F0C5
:100D36003DC017F012EC0CF014C028F015C029F0D5
:100D46002A6A2B6A3EC00EF03FC00FF0000E116EED
:100D5600640E106E1CEC0DF00EC014F00FC015F0F2
:100D66003CC016F03DC017F012EC0CF014C02CF08D
:100D760015C02DF02E6A2F6A69D03E503F10D8B4A8
:100D860006D03C503D10D8A402D0E80E09D03E5003
:100D96003F10D8A480D73C503D10D8A47CD7E90E8C
:100DA600286E030E07D03C503D10D8A409D0010E82
:100DB600286E000E296E000E2A6E000E2B6E6BD763
:100DC6003EC028F03FC029F02A6A2B6A000E3B6E0F
:100DD600010E3A6E1AD03EC00EF03FC00FF0106AF8
:100DE600116A28C012F029C013F02AC014F02BC0D3
:100DF60015F091EC0BF00EC028F00FC029F010C0D2
:100E06002AF011C02BF03A4A3B2A3C503A5C3D503E
:100E16003B58D8B040D7DFD7000E286E000E296E9B
:100E2600000E2A6E000E2B6E11D04B502B0AD8B432
:100E360026D7060AD8B44AD7020AD8B46BD7710A9D
:100E4600D8B4B1D7260AD8B456D7E6D7840E46EC1E
:100E56000DF028C01CF029C01DF02AC01EF02BC0C2
:100E66001FF087EC07F047D0000E276E3D0E4418A2
:100E7600D8A40AD0210E4B18D8A406D0200E4A18A2
:100E8600D8B402D0010E276E275042140009D8B4F8
:100E96002FD0820E46EC0DF03D0E3BEC0DF03EC021
:100EA6001AF03FC01BF028EC0BF01AC028F01BC04C
:100EB60029F01CC02AF01DC02BF028C00EF029C056
:100EC6000FF02AC010F02BC011F0640E126E000E47
:100ED600136E000E146E000E156E91EC0BF00EC024
:100EE6002CF00FC02DF010C02EF011C02FF0B1D78E
:100EF600570E3BEC0DF0E40E246E440EE82EFED7A2
:100F0600242EFCD700D0F7D4000E0001706F1CC051
:100F16000EF01DC00FF01EC010F01FC011F09C0E89
:100F2600126EFF0E136EFF0E146EFF0E156E91EC11
:100F36000BF02C500E24206E2D500F20216E2E50BB
:100F46001020226E2F501120236E205021102210C7
:100F56002310D8B458D0000E0001746F000E736FC2
:100F66003EC014F03FC015F03CC016F03DC017F06F
:100F760012EC0CF014C01CF015C01DF01E6A1F6A9E
:100F86003EC00EF03FC00FF03CC010F03DC011F067
:100F9600D3EC0CF00EC045F00FC046F0476A486A25
:100FA6001C50300F3BEC0DF0000173517411D8A4A6
:100FB60009D04550461047104810D8B403D02C0E1F
:100FC6003BEC0DF04550461047104810D8B41200BF
:100FD60045C00EF046C00FF0000E116E0A0E106EE0
:100FE6001CEC0DF00EC03EF00FC03FF00001734B3D
:100FF600742B74BFB5D7745105E1030E735DD8B079
:101006001200AED712001FBE30D01F501E1005E1D1
:101016001C04800E1D58D8A028D0E80E1C1806E126
:10102600030E1D181E101F10D8B41FD0E90E1C1871
:1010360006E1030E1D181E101F10D8B416D0410469
:10104600D8A413D02D0E3BEC0DF0850E46EC0DF01A
:101056001F1E1E1E1D1E1C6C000E1D221E221F2280
:101066001C50300F3BEC0DF012001FBED7D01F50A6
:101076001E101D1004E10A0E1C5CD8A0CFD0E80E8D
:101086001C1806E1030E1D181E101F10D8B4C6D07A
:10109600E90E1C1806E1030E1D181E101F10D8B409
:1010A600BDD0000E0001766F090E756F0A0E776FC0
:1010B600000E786F000E796F000E7A6FFF0E7525A1
:1010C600716FFF0E7621726F72BF24D0725103E1E9
:1010D6007105D8A01FD077C00EF078C00FF079C088
:1010E60010F07AC011F00A0E126E000E136E000E8A
:1010F600146E000E156E91EC0BF00EC077F00FC05B
:1011060078F010C079F011C07AF000017107D8A00C
:101116007207DAD71CC00EF01DC00FF01EC010F00B
:101126001FC011F077C012F078C013F079C014F028
:101136007AC015F035EC09F011BE3BD011501010F5
:101146000F1003E10E04D8A034D0010E0001706F19
:101156001CC00EF01DC00FF01EC010F01FC011F015
:1011660077C012F078C013F079C014F07AC015F089
:1011760035EC09F00E50300F3BEC0DF01CC00EF0B4
:101186001DC00FF01EC010F01FC011F077C012F086
:1011960078C013F079C014F07AC015F000EC0AF0AC
:1011A6000EC01CF00FC01DF010C01EF011C01FF0C5
:1011B6002ED01CC00EF01DC00FF01EC010F01FC0B8
:1011C60011F077C012F078C013F079C014F07AC02D
:1011D60015F035EC09F00E500F1010101110D8A4B0
:1011E60016D000017051D8B412D01FBE08D01F50BF
:1011F6001E101D1009E10A0E1C5CD8B005D01C504B
:10120600300F3BEC0DF003D0300E3BEC0DF000013F
:101216007507D8A0760776BF120048D7E80E1C18C7
:101226000BE1030E1D181E101F10D8A405D04E0E7C
:10123600136E3BEC0CF01200E90E1C180EE1030EC7
:101246001D181E101F10D8A408D0C10E46EC0DF0B4
:101256001E0E136E3BEC0CF012001C50300F3BECD4
:101266000DF01200000E176E15AE0AD0151E141ED4
:10127600131E126C000E132214221522010E176E75
:1012860011AE0AD0111E101E0F1E0E6C000E0F227C
:1012960010221122010E171A000E186E000E196E7A
:1012A600000E1A6E000E1B6E12501310141015103D
:1012B600D8B42AD0010E166E06D0D8901236133640
:1012C60014361536162A15AEF8D7D89018361936AC
:1012D6001A361B3612500E5C13500F581450105805
:1012E60015501158D8A009D012500E5E13500F5A3F
:1012F6001450105A1550115A1880D89015321432BD
:1013060013321232162EE1D71750D8B408D01B1E4E
:101316001A1E191E186C000E19221A221B2218C03A
:101326000EF019C00FF01AC010F01BC011F0120019
:1013360081B881AA04D081AC02D081BEF9D7000E53
:10134600356E010E346EFE0E8A6E81B80AD0435099
:10135600D8A402D02B0E12004350D8B44CD05E0E47
:10136600120081BA02D03D0E120081BC02D0300EAE
:10137600120081BE02D0430E1200FD0E8A6E81B8A5
:101386000AD04250D8A402D02D0E12004250D8B432
:1013960032D0210E120081BA02D0390E120081BC61
:1013A60002D0380E120081BE02D0370E1200FB0E9C
:1013B6008A6E81B802D0780E120081BA02D0360E3B
:1013C600120081BC02D0350E120081BE02D0340E4E
:1013D6001200F70E8A6E81B802D02F0E120081BA63
:1013E60002D0330E120081BC02D0320E120081BE32
:1013F60002D0310E12003F0E1200000E176E11AE13
:101406000AD0111E101E0F1E0E6C000E0F22102287
:101416001122010E176E15AE08D0151E141E131ECE
:10142600126C000E132214221522125013101410DF
:101436001510D8B424D0010E166E06D0D8901236E8
:10144600133614361536162A15AEF8D712500E5C1A
:1014560013500F581450105815501158D8A008D0D2
:1014660012500E5E13500F5A1450105A1550115A3E
:10147600D8901532143213321232162EE7D717507F
:10148600D8B408D0111E101E0F1E0E6C000E0F22AF
:10149600102211220EC00EF00FC00FF010C010F077
:1014A60011C011F012008D90040E4C18D8A404D06F
:1014B6008C500F0B300901D03F0E8C6E83EC0DF073
:1014C600010EBCEC0BF0040E4C18D8A404D08C50C2
:1014D6000F0B300901D03F0E8C6E83EC0DF0030E1E
:1014E600BCEC0BF0040E4C18D8A404D08C500F0B97
:1014F600300901D03F0E8C6E83EC0DF0040EBCEC6F
:101506000BF0040E4C18D8A411D08C500F0B2009E8
:101516008C6E83EC0DF0040EBCEC0BF02F0E8DECF4
:101526000CF083EC0DF0040EBCEC0BF067EC0DF048
:101536000F0E8DEC0CF083EC0DF0040EBCEC0BF0F2
:1015460012000600F6CF0AF0F7CF0BF0F8CF0CF03A
:10155600F5CF0DF0F2A419D034503510D8A407D029
:10156600010E3624366E000E3720376E04D0000E7C
:10157600376E000E366EF2948DB402D08D8401D093
:101586008D94C20ED76EF70ED66E140E361837101F
:10159600D8A414D034503510D8A410D08BBE02D0A5
:1015A6008B8E01D08B9E71EC0DF0820E5CEC0DF0F3
:1015B6002C0E066E64EC0CF00300FFD70DC0F5FF91
:1015C6000CC0F8FF0BC0F7FF0AC0F6FF4D921100E2
:1015D600080E38183910D8A414D0000E396E000E33
:1015E600386E0FD0000E0BD0050E09D0060E07D0B0
:1015F600030E05D0020E03D0040E01D0070E8B6E2B
:1016060021D038C00EF039C00FF00F50000AD8A410
:1016160019D00E50000AD8B4E5D7010AD8B4E4D7D9
:10162600030AD8B4E3D7010AD8B4E2D7070AD8B474
:10163600E1D7010AD8B4DAD7030AD8B4DDD7010A4C
:10164600D8B4DCD7384A392A1200010E1E6E000EB5
:101656001F6E000E206E000E216E1AC030F01BC0E9
:1016660031F01ED030C00EF031C00FF0000E0FBEAC
:10167600FF0E106E116E1EC012F01FC013F020C0B8
:1016860014F021C015F091EC0BF00EC01EF00FC047
:101696001FF010C020F011C021F03006D8A031068E
:1016A60031BE06D03150DEE1020E305CD8B0DAD75A
:1016B6001EC01AF01FC01BF020C01CF021C01DF078
:1016C6001200F60EF66E1A0EF76E000EF86E00EEAB
:1016D60060F010EE10F00900F5CFEEFFE550E15096
:1016E600FAE1220EF66E1B0EF76E000EF86E00EE95
:1016F60049F010EE04F00900F5CFEEFFE550E15099
:10170600FAE100EE28F0210EEE6AE806FDE14D90C2
:101716004D92000EF86E000133EF04F0000E166EC7
:10172600000E176E000E186E000E196E0EA008D071
:10173600125016261350172214501822155019222B
:10174600D8901236133614361536D8901132103218
:101756000F320E320E500F1010101110D8A4E6D70B
:1017660016C00EF017C00FF018C010F019C011F017
:1017760012000F6E1BD0050E0E6EDE0EE82EFED783
:101786000E2EFCD71200530EE82EFED700F0350EB3
:10179600E82EFED700F01200080EE82EFED700F065
:1017A6001200030EE82EFED700F012000F50010AB9
:1017B600D8B4E1D7030AD8B4E6D7010AD8B4ECD72F
:1017C600070AD8A41200EDD7026E1BD0050E016ED3
:1017D600DE0EE82EFED7012EFCD71200530EE82EA1
:1017E600FED700F0350EE82EFED700F01200080EE8
:1017F600E82EFED700F01200030EE82EFED700F00A
:1018060012000250010AD8B4E1D7030AD8B4E6D7C9
:10181600010AD8B4ECD7070AD8A41200EDD7000EF7
:101826001A6E000E196E16501710D8B41CD0010E81
:10183600186E04D0D89016361736182A17AEFAD76F
:10184600D89019361A361650145C17501558D8A069
:1018560005D01650145E1750155A1980D8901732B5
:101866001632182EEDD719C014F01AC015F0120052
:10187600000E166E000E156E19D013501524146E38
:1018860014C0F6FF080EF76E0800F5500009D8B42C
:10189600120013501524146E14C0F6FF080EF76ECE
:1018A6000800F5503BEC0DF0154A162A13C00EF051
:1018B600F4EC0CF00E50155C0F501658D8B0120010
:1018C600DCD7000E096E000E086E19D006500824EB
:1018D600076E07C0F6FF080EF76E0800F550000900
:1018E600D8B4120006500824076E07C0F6FF080E8B
:1018F600F76E0800F55051EC0DF0084A092A06C0AB
:1019060001F008EC0DF00150085C02500958D8B0FF
:101916001200DCD7116E040E4C18D8A417D011C0D3
:1019260010F0F00E10168C500F0B10108C6E83EC0E
:101936000DF0010EBCEC0BF011C010F0103AF00ED9
:1019460010168C500F0B10108C6E1200080E4C18CF
:10195600D8A4120011C08CFF1200046E040E4C189D
:10196600D8A417D004C003F0F00E03168C500F0B4A
:1019760003108C6E8AEC0DF0010EE7EC0BF004C040
:1019860003F0033AF00E03168C500F0B03108C6E07
:101996001200080E4C18D8A4120004C08CFF1200C6
:1019A60010501110D8B418D0010E126E04D0D89071
:1019B60010361136122A11AEFAD710500E5C11509D
:1019C6000F58D8A004D010500E5E11500F5AD89060
:1019D60011321032122EF1D70EC00EF00FC00FF0DA
:1019E60012000EC010F001D0102A10C0F6FF080E2B
:1019F600F76E0800F5500009D8A4F6D70E50105C13
:101A06000E6E0F6A0EBE0F06120001C003F001D063
:101A1600032A03C0F6FF080EF76E0800F55000090A
:101A2600D8A4F6D70150035C016E026A01BE020615
:101A360012000E501002F3CF12F0F4CF13F00E5036
:101A46001102F35013260F501002F350132612C042
:101A56000EF013C00FF012000E6E040E0E18D8B45E
:101A660004D0080E0E18D8A412000EC04CF01200B6
:101A7600126E8D8012508DEC0CF083EC0DF0040E7E
:101A8600BCEC0BF01200126E8D9012508DEC0CF027
:101A960083EC0DF0040EBCEC0BF01200056E8D808D
:101AA6000550B0EC0CF08AEC0DF0040EE7EC0BF0F0
:101AB6001200056E8D900550B0EC0CF08AEC0DF01E
:101AC600040EE7EC0BF012008D90010E8DEC0CF07D
:101AD60083EC0DF0020EBCEC0BF012008D90010EA3
:101AE600B0EC0CF08AEC0DF0020EE7EC0BF01200F5
:101AF6000E0E041F04040A11001B1F1F0E04000013
:101B06008D82030EE82EFED700F08D9212008D8294
:101B1600030EE82EFED700F08D921200202020083A
:020000040020DA
:08000000FFFFFFFFFFFFFFFF00
:020000040030CA
:0E00000000091F1EFF8181FF0FC00FE00F409F
:00000001FF
