:0400000007EF00F016
:0A000800118214ED04F00BEF06F076
:1008000000486F6C61206D756E646F00313000318F
:1008100031003132003133003134003135003600DF
:070820003700380039000029
:100828000600F2A059D0F00E8118D8B44CD0100EA2
:100838000F6EFE0E8A6E81B802D00D0E41D081BABD
:1008480002D0100E3DD081BC02D0130E39D081BE2B
:1008580002D0160E35D0FD0E8A6E81B802D0190E60
:100868002FD081BA02D01C0E2BD081BC02D01E0E14
:1008780027D081BE02D0200E23D0FB0E8A6E81B80D
:1008880002D0220E1DD081BA02D0240E19D081BC0C
:1008980002D00C0E15D081BE02D00F0E11D0F70E6B
:1008A8008A6E81B802D0120E0BD081BA02D0150E12
:1008B80007D081BC02D0180E03D081BE02D01B0E17
:1008C8000F6EF00E8A6E210E016E760EE82EFED7A0
:1008D800012EFCD700D0F290F2A40AD0F2940B0EAD
:1008E800D76EDC0ED66E8CB202D08C8201D08C9280
:1008F800119211000F0EC16E000E956E000E966ECD
:10090800F00E936E000E8C6E000E8D6E000E8A6EC9
:10091800210E0D6E760EE82EFED70D2EFCD700D0D8
:10092800F19E210E0D6E760EE82EFED70D2EFCD709
:1009380000D0F290F286F28E020E0E6E450E0D6E0B
:10094800AA0EE82EFED70D2EFCD70E2EFAD7040ECF
:100958001CEC06F02EEC05F03EEC06F0010E076EDE
:100968000750D8A4080E086E7CEC05F0C00E33ECD6
:1009780006F0200E076E0750D8A4080E086E7CEC0F
:1009880005F0020E0E6E450E0D6EAA0EE82EFED76D
:100998000D2EFCD70E2EFAD7DDEC04F00F6E0F509B
:1009A8000D6E0E6A0DC007F00EC008F07CEC05F065
:1009B800F3D781B881AA04D081AC02D081BEF9D71F
:1009C800FE0E8A6E81B802D0310E120081BA02D0B2
:1009D800320E120081BC02D0330E120081BE02D04A
:1009E8002B0E1200FD0E8A6E81B802D0340E120052
:1009F80081BA02D0350E120081BC02D0360E120028
:100A080081BE02D02D0E1200FB0E8A6E81B802D074
:100A1800370E120081BA02D0380E120081BC02D003
:100A2800390E120081BE02D02F0E1200F70E8A6E08
:100A380081B802D0430E120081BA02D0300E1200E3
:100A480081BC02D03D0E120081BE02D0780E120089
:100A58003F0E12008D90040E1018D8A404D08C50AC
:100A68000F0B300901D03F0E8C6E48EC06F0010EDA
:100A7800BDEC05F0040E1018D8A404D08C500F0B50
:100A8800300901D03F0E8C6E48EC06F0030EBDEC29
:100A980005F0040E1018D8A404D08C500F0B3009A0
:100AA80001D03F0E8C6E48EC06F0040EBDEC05F04C
:100AB800040E1018D8A411D08C500F0B20098C6E7E
:100AC80048EC06F0040EBDEC05F02F0EE8EC05F03E
:100AD80048EC06F0040EBDEC05F03EEC06F00F0EF7
:100AE800E8EC05F048EC06F0040EBDEC05F0120049
:100AF800000E0C6E000E0B6E0B500724096E0C5086
:100B080008200A6E09C0F6FF0AC0F7FFF86A070E48
:100B1800F76403D00800F55005D0F6CFE9FFF7CF0A
:100B2800EAFFEF500009D8B412000B500724096EF1
:100B38000C5008200A6E09C0F6FF0AC0F7FFF86AD1
:100B4800070EF76403D00800F55005D0F6CFE9FF8B
:100B5800F7CFEAFFEF5028EC06F00B4A0C2A0CBE40
:100B6800CBD70C5005E1100E0B5CD8B01200C4D7DF
:100B78001200036E1BD0050E026EDE0EE82EFED7A5
:100B8800022EFCD71200530EE82EFED700F0350EC9
:100B9800E82EFED700F01200080EE82EFED700F06F
:100BA8001200030EE82EFED700F012000350010ACF
:100BB800D8B4E1D7030AD8B4E6D7010AD8B4ECD739
:100BC800070AD8A41200EDD7056E040E1018D8A491
:100BD80017D005C004F0F00E04168C500F0B04104B
:100BE8008C6E48EC06F0010EBDEC05F005C004F073
:100BF800043AF00E04168C500F0B04108C6E120081
:100C0800080E1018D8A4120005C08CFF12009E0E02
:100C1800F66E0C0EF76E000EF86E0900F5CF10F0A8
:100C28000F6A11901192000EF86E00017EEF04F029
:100C3800026E040E0218D8B404D0080E0218D8A404
:100C4800120002C010F01200066E8D800650E8EC0B
:100C580005F048EC06F0040EBDEC05F01200066E37
:100C68008D900650E8EC05F048EC06F0040EBDEC5B
:100C780005F012008D90010EE8EC05F048EC06F046
:100C8800020EBDEC05F012008D82030EE82EFED791
:070C980000F08D921200082C
:020000040020DA
:08000000FFFFFFFFFFFFFFFF00
:020000040030CA
:0E00000000091F1EFF8181FF0FC00FE00F409F
:00000001FF
