:0400000007EF00F016
:0A0008004C828CED0AF0AFEF0CF013
:10080000004D6F646F20466163746F7269616C00A4
:100810004D6F646F20506F74656E63696100496E3F
:1008200064657465726D696E61646F004C5650202A
:10083000416374697661646F004D6F646F20526527
:10084000737461004D6F646F2053756D6100496E64
:1008500066696E69746F00456E6572676961004D07
:05086000434C520000B2
:100866000F0EC16E000E956EF00E936E000E966E14
:10087600000E946EF19E040E07EC0DF03EEC0AF0AD
:10088600820ED56EF294C20ED76EF70ED66EF28A2F
:10089600F28ED58EC40ED36E3FEC0DF0D0B6D0A43A
:1008A60007D03FEC0DF0570E136EF6EC0BF008D0A8
:1008B600D0B206D03FEC0DF05F0E136EF6EC0BF0E7
:1008C600030E256E8A0E246E560EE82EFED7242EB3
:1008D600FCD7252EFAD73FEC0DF0000E406E000E29
:1008E6008A6E000E356E000E346E83EC09F0436E90
:1008F600D3EC0AF0430E4318D8A41BD0200E4A6E40
:10090600200E496E200E486E000E3F6E000E3E6EA3
:10091600000E3D6E000E3C6E000E3B6E000E3A6EF3
:10092600000E2C6E000E2D6E000E2E6E000E2F6E1B
:10093600D2D7200E4A18D8A43DD02B0E4318D8B4CF
:1009460004D05E0E4318D8A435D0200E4918D8A47A
:1009560031D0200E4818D8A42DD0421E4250D8B40B
:100966001AD0800E1EEC0DF0100E136EF6EC0BF086
:10097600C00E1EEC0DF0300E136EF6EC0BF0020EF0
:10098600256E450E246EAA0EE82EFED7242EFCD721
:10099600252EFAD7A0D7800E1EEC0DF0440E136E4E
:1009A600F6EC0BF0C00E1EEC0DF0300E136EF6ECEE
:1009B6000BF0E5D7200E4A18D8A432D02D0E4318D6
:1009C600D8B404D0210E4318D8A42AD0200E491832
:1009D600D8A426D0200E4818D8A422D0411E4150B3
:1009E600D8B40FD0800E1EEC0DF0010E136EF6EC8F
:1009F6000BF0C00E1EEC0DF0300E136EF6EC0BF085
:100A0600BED7800E1EEC0DF0390E136EF6EC0BF011
:100A1600C00E1EEC0DF0300E136EF6EC0BF0AFD7D9
:100A2600200E4918D8B408D0200E4818D8B404D0DF
:100A3600200E4A18D8A492D04150D8A48FD0200EA8
:100A46004A18D8A425D02B0E4318D8B410D02D0E92
:100A56004318D8B40CD02F0E4318D8B408D0780E4B
:100A66004318D8B404D05E0E4318D8A411D0200E73
:100A76004918D8B40DD0200E4818D8A409D0810E34
:100A86001EEC0DF0435013EC0DF043C04AF01BD2A0
:100A9600200E4918D8A42BD02B0E4318D8A418D052
:100AA6002D0E4318D8A414D02F0E4318D8A410D056
:100AB600780E4318D8A40CD03D0E4318D8A408D0FD
:100AC600430E4318D8A404D05E0E4318D8B40FD0F2
:100AD600800E1EEC0DF0435013EC0DF043C049F0B0
:100AE600D00E43243E6E3F6AFF0E3F22ECD1200E0D
:100AF6004818D8A4E8D1200E4A18D8B4E4D1200E5C
:100B06004918D8B4E0D12B0E4318D8A418D02D0E0E
:100B16004318D8A414D02F0E4318D8A410D0780E9A
:100B26004318D8A40CD03D0E4318D8A408D0430EC1
:100B36004318D8A404D05E0E4318D8B4C4D1820E8C
:100B46001EEC0DF0435013EC0DF043C048F0D00EF0
:100B560043243C6E3D6AFF0E3D22B5D1010E266E42
:100B6600200E4918D8B406D0200E4A18D8B402D0A0
:100B7600000E266E265041140009D8B456D0200E19
:100B86004A18D8A427D02B0E4318D8B414D02D0E4B
:100B96004318D8B410D02F0E4318D8B40CD0780E02
:100BA6004318D8B408D05E0E4318D8B404D0210E2A
:100BB6004318D8A40FD0200E4918D8B40BD0200E55
:100BC6004818D8A407D0810E1EEC0DF0435013EC44
:100BD6000DF05BD7200E4918D8A475D12B0E4318FB
:100BE600D8A41CD02D0E4318D8A418D02F0E431805
:100BF600D8A414D0780E4318D8A410D03D0E4318AC
:100C0600D8A40CD0430E4318D8A408D05E0E4318BF
:100C1600D8A404D0210E4318D8B455D1800E1EECAA
:100C26000DF0435013EC0DF059D73D0E4318D8A4E0
:100C360003D1200E4818D8B4FFD0200E4A18D8B4D5
:100C4600FBD0200E4918D8B4F7D04150D8A4F4D020
:100C5600830E1EEC0DF03D0E13EC0DF0CED03C5085
:100C66003E24246E3D503F20256E24C028F025C02A
:100C760029F02A6A2B6A28C00EF029C00FF02AC074
:100C860010F02BC011F0640E126E000E136E000EE3
:100C9600146E000E156E4CEC0BF00EC02CF00FC04F
:100CA6002DF010C02EF011C02FF0B8D03C503E5C95
:100CB600246E3D503F58256E24C028F025C029F0EB
:100CC6002A6A2B6A3C503E5C3D503F58D8B0D3D779
:100CD600010E406ED0D73EC00EF03FC00FF03CC0B4
:100CE60010F03DC011F0F4EC0CF00EC028F00FC06F
:100CF60029F0BFD73C503D10D8B42FD03E503F10FE
:100D0600D8B48CD03EC014F03FC015F03CC016F0ED
:100D16003DC017F0CDEC0BF014C028F015C029F03B
:100D26002A6A2B6A3EC00EF03FC00FF0000E116E0D
:100D3600640E106EF4EC0CF00EC014F00FC015F03B
:100D46003CC016F03DC017F0CDEC0BF014C02CF0F3
:100D560015C02DF02E6A2F6A61D03E503F10D8B4D0
:100D660006D03C503D10D8A402D0E80E09D03E5023
:100D76003F10D8A480D73C503D10D8A47CD7E90EAC
:100D8600286E030E296E000E2A6E000E2B6E73D788
:100D96003EC028F03FC029F02A6A2B6A000E3B6E3F
:100DA600010E3A6E1AD03EC00EF03FC00FF0106A28
:100DB600116A28C012F029C013F02AC014F02BC003
:100DC60015F04CEC0BF00EC028F00FC029F010C047
:100DD6002AF011C02BF03A4A3B2A3C503A5C3D506F
:100DE6003B58D8B048D7DFD7000E286E000E296EC4
:100DF600000E2A6E000E2B6E11D04A502B0AD8B464
:100E06002ED7060AD8B452D7020AD8B473D7710AB5
:100E1600D8B4BED7260AD8B45ED7E6D7840E1EEC61
:100E26000DF028C01CF029C01DF02AC01EF02BC0F2
:100E36001FF06FEC07F047D0000E276E3D0E4318EB
:100E4600D8A40AD0210E4A18D8A406D0200E4918D4
:100E5600D8B402D0010E276E275041140009D8B429
:100E66002FD0820E1EEC0DF03D0E13EC0DF03EC0A1
:100E76001AF03FC01BF010EC0BF01AC028F01BC094
:100E860029F01CC02AF01DC02BF028C00EF029C086
:100E96000FF02AC010F02BC011F0640E126E000E77
:100EA600136E000E146E000E156E4CEC0BF00EC099
:100EB6002CF00FC02DF010C02EF011C02FF0B1D7BE
:100EC600570E13EC0DF0E40E246E440EE82EFED7FA
:100ED600242EFCD700D001D5000E0001606F1CC087
:100EE6000EF01DC00FF01EC010F01FC011F09C0EBA
:100EF600126EFF0E136EFF0E146EFF0E156E4CEC87
:100F06000BF02C500E24206E2D500F20216E2E50EB
:100F16001020226E2F501120236E205021102210F7
:100F26002310D8B458D0000E0001646F000E636F12
:100F36003EC014F03FC015F03CC016F03DC017F09F
:100F4600CDEC0BF014C01CF015C01DF01E6A1F6A14
:100F56003EC00EF03FC00FF03CC010F03DC011F097
:100F66008EEC0CF00EC044F00FC045F0466A476A9E
:100F76001C50300F13EC0DF0000163516411D8A41E
:100F860009D04450451046104710D8B403D02C0E53
:100F960013EC0DF04450451046104710D8B412001B
:100FA60044C00EF045C00FF0000E116E0A0E106E12
:100FB600F4EC0CF00EC03EF00FC03FF00001634BA6
:100FC600642B64BFB5D7645105E1030E635DD8B0E9
:100FD6001200AED712001FBE30D01F501E1005E102
:100FE6001C04800E1D58D8A028D0E80E1C1806E157
:100FF600030E1D181E101F10D8B41FD0E90E1C18A2
:1010060006E1030E1D181E101F10D8B416D040049A
:10101600D8A413D02D0E13EC0DF0850E1EEC0DF09A
:101026001F1E1E1E1D1E1C6C000E1D221E221F22B0
:101036001C50300F13EC0DF012001FBED7D01F50FE
:101046001E101D1004E10A0E1C5CD8A0CFD0E80EBD
:101056001C1806E1030E1D181E101F10D8B4C6D0AA
:10106600E90E1C1806E1030E1D181E101F10D8B439
:10107600BDD0000E0001666F090E656F0A0E676F20
:10108600000E686F000E696F000E6A6FFF0E652511
:10109600616FFF0E6621626F62BF24D0625103E169
:1010A6006105D8A01FD067C00EF068C00FF069C0F8
:1010B60010F06AC011F00A0E126E000E136E000ECA
:1010C600146E000E156E4CEC0BF00EC067F00FC0E0
:1010D60068F010C069F011C06AF000016107D8A07D
:1010E6006207DAD71CC00EF01DC00FF01EC010F04C
:1010F6001FC011F067C012F068C013F069C014F089
:101106006AC015F01DEC09F011BE3BD0115010104D
:101116000F1003E10E04D8A034D0010E0001606F59
:101126001CC00EF01DC00FF01EC010F01FC011F045
:1011360067C012F068C013F069C014F06AC015F0F9
:101146001DEC09F00E50300F13EC0DF01CC00EF024
:101156001DC00FF01EC010F01FC011F067C012F0C6
:1011660068C013F069C014F06AC015F0E8EC09F025
:101176000EC01CF00FC01DF010C01EF011C01FF0F5
:101186002ED01CC00EF01DC00FF01EC010F01FC0E8
:1011960011F067C012F068C013F069C014F06AC09D
:1011A60015F01DEC09F00E500F1010101110D8A4F8
:1011B60016D000016051D8B412D01FBE08D01F50FF
:1011C6001E101D1009E10A0E1C5CD8B005D01C507B
:1011D600300F13EC0DF003D0300E13EC0DF00001C0
:1011E6006507D8A0660766BF120048D7E80E1C1828
:1011F6000BE1030E1D181E101F10D8A405D04E0EAD
:10120600136EF6EC0BF01200E90E1C180EE1030E3D
:101216001D181E101F10D8A408D0C10E1EEC0DF00C
:101226001E0E136EF6EC0BF012001C50300F13EC72
:101236000DF01200000E176E15AE0AD0151E141E04
:10124600131E126C000E132214221522010E176EA5
:1012560011AE0AD0111E101E0F1E0E6C000E0F22AC
:1012660010221122010E171A000E186E000E196EAA
:10127600000E1A6E000E1B6E12501310141015106D
:10128600D8B42AD0010E166E06D0D8901236133670
:1012960014361536162A15AEF8D7D89018361936DC
:1012A6001A361B3612500E5C13500F581450105835
:1012B60015501158D8A009D012500E5E13500F5A6F
:1012C6001450105A1550115A1880D89015321432ED
:1012D60013321232162EE1D71750D8B408D01B1E7F
:1012E6001A1E191E186C000E19221A221B2218C06B
:1012F6000EF019C00FF01AC010F01BC011F012004A
:1013060081B881AA04D081AC02D081BEF9D7000E83
:10131600356E010E346EFE0E8A6E81B80AD04250CA
:10132600D8A402D02B0E12004250D8B44CD05E0E78
:10133600120081BA02D03D0E120081BC02D0300EDE
:10134600120081BE02D0430E1200FD0E8A6E81B8D5
:101356000AD04150D8A402D02D0E12004150D8B464
:1013660032D0210E120081BA02D0390E120081BC91
:1013760002D0380E120081BE02D0370E1200FB0ECC
:101386008A6E81B802D0780E120081BA02D0360E6B
:10139600120081BC02D0350E120081BE02D0340E7E
:1013A6001200F70E8A6E81B802D02F0E120081BA93
:1013B60002D0330E120081BC02D0320E120081BE62
:1013C60002D0310E12003F0E1200000E176E11AE43
:1013D6000AD0111E101E0F1E0E6C000E0F221022B8
:1013E6001122010E176E15AE08D0151E141E131EFF
:1013F600126C000E13221422152212501310141010
:101406001510D8B424D0010E166E06D0D890123618
:10141600133614361536162A15AEF8D712500E5C4A
:1014260013500F581450105815501158D8A008D002
:1014360012500E5E13500F5A1450105A1550115A6E
:10144600D8901532143213321232162EE7D71750AF
:10145600D8B408D0111E101E0F1E0E6C000E0F22DF
:10146600102211220EC00EF00FC00FF010C010F0A7
:1014760011C011F012008D90040E4B18D8A404D0A0
:101486008C500F0B300901D03F0E8C6E53EC0DF0D3
:10149600010E77EC0BF0040E4B18D8A404D08C5038
:1014A6000F0B300901D03F0E8C6E53EC0DF0030E7E
:1014B60077EC0BF0040E4B18D8A404D08C500F0B0D
:1014C600300901D03F0E8C6E53EC0DF0040E77EC14
:1014D6000BF0040E4B18D8A411D08C500F0B20091A
:1014E6008C6E53EC0DF0040E77EC0BF02F0E48ECDF
:1014F6000CF053EC0DF0040E77EC0BF03FEC0DF016
:101506000F0E48EC0CF053EC0DF0040E77EC0BF0DC
:1015160012000600F6CF0AF0F7CF0BF0F8CF0CF06A
:10152600F5CF0DF0F2A419D034503510D8A407D059
:10153600010E3624366E000E3720376E04D0000EAC
:10154600376E000E366EF2948DB402D08D8401D0C3
:101556008D94C20ED76EF70ED66E140E361837104F
:10156600D8A414D034503510D8A410D08BBE02D0D5
:101576008B8E01D08B9E49EC0DF0820E34EC0DF073
:101586002C0E066E1FEC0CF00300FFD70DC0F5FF06
:101596000CC0F8FF0BC0F7FF0AC0F6FF4C92110013
:1015A600080E38183910D8A414D0000E396E000E63
:1015B600386E0FD0000E0BD0050E09D0060E07D0E0
:1015C600030E05D0020E03D0040E01D0070E8B6E5B
:1015D60021D038C00EF039C00FF00F50000AD8A441
:1015E60019D00E50000AD8B4E5D7010AD8B4E4D70A
:1015F600030AD8B4E3D7010AD8B4E2D7070AD8B4A5
:10160600E1D7010AD8B4DAD7030AD8B4DDD7010A7C
:10161600D8B4DCD7384A392A1200010E1E6E000EE5
:101626001F6E000E206E000E216E1AC030F01BC019
:1016360031F01ED030C00EF031C00FF0000E0FBEDC
:10164600FF0E106E116E1EC012F01FC013F020C0E8
:1016560014F021C015F04CEC0BF00EC01EF00FC0BC
:101666001FF010C020F011C021F03006D8A03106BE
:1016760031BE06D03150DEE1020E305CD8B0DAD78A
:101686001EC01AF01FC01BF020C01CF021C01DF0A8
:101696001200000E166E000E176E000E186E000E6B
:1016A600196E0EA008D01250162613501722145089
:1016B600182215501922D8901236133614361536BC
:1016C600D890113210320F320E320E500F10101009
:1016D6001110D8A4E6D716C00EF017C00FF018C028
:1016E60010F019C011F012000F6E1BD0050E0E6E11
:1016F600DE0EE82EFED70E2EFCD71200530EE82E75
:10170600FED700F0350EE82EFED700F01200080EC8
:10171600E82EFED700F01200030EE82EFED700F0EA
:1017260012000F50010AD8B4E1D7030AD8B4E6D79D
:10173600010AD8B4ECD7070AD8A41200EDD7026E76
:101746001BD0050E016EDE0EE82EFED7012EFCD74D
:101756001200530EE82EFED700F0350EE82EFED707
:1017660000F01200080EE82EFED700F01200030E5D
:10177600E82EFED700F012000250010AD8B4E1D7D5
:10178600030AD8B4E6D7010AD8B4ECD7070AD8A416
:101796001200EDD7000E1A6E000E196E16501710B5
:1017A600D8B41CD0010E186E04D0D8901636173651
:1017B600182A17AEFAD7D89019361A361650145C6E
:1017C60017501558D8A005D01650145E1750155A44
:1017D6001980D89017321632182EEDD719C014F08A
:1017E6001AC015F01200000E166E000E156E19D0F6
:1017F60013501524146E14C0F6FF080EF76E080079
:10180600F5500009D8B4120013501524146E14C0F4
:10181600F6FF080EF76E0800F55013EC0DF0154AAA
:10182600162A13C00EF0CCEC0CF00E50155C0F50BF
:101836001658D8B01200DCD7000E096E000E086EDE
:1018460019D006500824076E07C0F6FF080EF76E7B
:101856000800F5500009D8B4120006500824076E97
:1018660007C0F6FF080EF76E0800F55029EC0DF0DC
:10187600084A092A06C001F0E0EC0CF00150085CA9
:1018860002500958D8B01200DCD7116E040E4B185E
:10189600D8A417D011C010F0F00E10168C500F0BF4
:1018A60010108C6E53EC0DF0010E77EC0BF011C09E
:1018B60010F0103AF00E10168C500F0B10108C6EA4
:1018C6001200080E4B18D8A4120011C08CFF12008B
:1018D600046E040E4B18D8A417D004C003F0F00E03
:1018E60003168C500F0B03108C6E5AEC0DF0010E84
:1018F600A2EC0BF004C003F0033AF00E03168C5072
:101906000F0B03108C6E1200080E4B18D8A4120091
:1019160004C08CFF120010501110D8B418D0010E5C
:10192600126E04D0D89010361136122A11AEFAD79C
:1019360010500E5C11500F58D8A004D010500E5EF7
:1019460011500F5AD89011321032122EF1D70EC004
:101956000EF00FC00FF01200C20EF66E1A0EF76EE2
:10196600000EF86E00EE48F010EE04F00900F5CF18
:10197600EEFFE550E150FAE100EE28F0200EEE6AA7
:10198600E806FDE14C904C92000EF86E000133EF34
:1019960004F00EC010F001D0102A10C0F6FF080E99
:1019A600F76E0800F5500009D8A4F6D70E50105C63
:1019B6000E6E0F6A0EBE0F06120001C003F001D0B4
:1019C600032A03C0F6FF080EF76E0800F55000095B
:1019D600D8A4F6D70150035C016E026A01BE020666
:1019E60012000E501002F3CF12F0F4CF13F00E5087
:1019F6001102F35013260F501002F350132612C093
:101A06000EF013C00FF012000E6E040E0E18D8B4AE
:101A160004D0080E0E18D8A412000EC04BF0120007
:101A2600126E8D80125048EC0CF053EC0DF0040E43
:101A360077EC0BF01200126E8D90125048EC0CF001
:101A460053EC0DF0040E77EC0BF01200056E8D8052
:101A560005506BEC0CF05AEC0DF0040EA2EC0BF0FA
:101A66001200056E8D9005506BEC0CF05AEC0DF0E3
:101A7600040EA2EC0BF012008D90010E48EC0CF057
:101A860053EC0DF0020E77EC0BF012008D90010E68
:101A96006BEC0CF05AEC0DF0020EA2EC0BF01200FF
:101AA6008D82030EE82EFED700F08D9212008D82F5
:101AB600030EE82EFED700F08D921200202020089B
:020000040020DA
:08000000FFFFFFFFFFFFFFFF00
:020000040030CA
:0E00000000091F1EFF8181FF0FC00FE00F409F
:00000001FF
