:0400000007EF00F016
:0A0008005282DDED0AF09DEF0BF0CF
:10080000004D6F646F20466163746F7269616C00A4
:100810004D6F646F20506F74656E63696100496E3F
:1008200064657465726D696E61646F004C5650202A
:10083000416374697661646F004D6F646F20526527
:10084000737461004269656E76656E69646F004D10
:100850006F646F2053756D6100496E66696E6974CF
:100860006F00456E6572676961004D434C52000030
:100870000F0EC16E000E956EF00E936E000E966E0A
:10088000000E946EF19E040E9DEC0DF08FEC0AF0BC
:10089000820ED56EF294C20ED76EF70ED66EF28A25
:1008A000F28ED58EC40ED36ED5EC0DF0010ED0A60F
:1008B000000ED0A8000EE8A008D0D5EC0DF0D0981E
:1008C000620E136E74EC0CF014D0D0A602D0010EA0
:1008D00001D0000E246ED0B402D0010E01D0000E63
:1008E0002410E8A006D0D5EC0DF06A0E136E74EC5F
:1008F0000CF0020E256E450E246EAA0EE82EFED7D1
:10090000242EFCD7252EFAD7D5EC0DF04A0E136E07
:10091000000E2DEC0DF0800EB4EC0DF0000EA9ECE5
:100920000DF0A30E246E550EE82EFED7242EFCD714
:1009300000F0820EB4EC0DF0440E136E74EC0CF06B
:100940006D0E136E040E2DEC0DF08E0EB4EC0DF04A
:10095000040EA9EC0DF0030E256E8A0E246E560EC1
:10096000E82EFED7242EFCD7252EFAD7D5EC0DF095
:10097000000E3E6E000E8A6E000E336E000E326E5A
:10098000D4EC09F0416E24EC0BF0430E4118D8A4CE
:100990001BD0200E486E200E476E200E466E000EB5
:1009A0003D6E000E3C6E000E3B6E000E3A6E000E69
:1009B000396E000E386E000E2A6E000E2B6E000E81
:1009C0002C6E000E2D6ED2D7200E4818D8A43DD024
:1009D0002B0E4118D8B404D05E0E4118D8A435D0DF
:1009E000200E4718D8A431D0200E4618D8A42DD0F8
:1009F000401E4050D8B41AD0800EB4EC0DF0100E4A
:100A0000136E74EC0CF0C00EB4EC0DF0300E136EDF
:100A100074EC0CF0020E256E450E246EAA0EE82E24
:100A2000FED7242EFCD7252EFAD7A0D7800EB4EC03
:100A30000DF04F0E136E74EC0CF0C00EB4EC0DF014
:100A4000300E136E74EC0CF0E5D7200E4818D8A4C5
:100A500032D02D0E4118D8B404D0210E4118D8A49C
:100A60002AD0200E4718D8A426D0200E4618D8A485
:100A700022D03F1E3F50D8B40FD0800EB4EC0DF002
:100A8000010E136E74EC0CF0C00EB4EC0DF0300ED1
:100A9000136E74EC0CF0BED7800EB4EC0DF0390E72
:100AA000136E74EC0CF0C00EB4EC0DF0300E136E3F
:100AB00074EC0CF0AFD7200E4718D8B408D0200E35
:100AC0004618D8B404D0200E4818D8A492D03F506D
:100AD000D8A48FD0200E4818D8A425D02B0E4118AA
:100AE000D8B410D02D0E4118D8B40CD02F0E411808
:100AF000D8B408D0780E4118D8B404D05E0E41188E
:100B0000D8A411D0200E4718D8B40DD0200E461806
:100B1000D8A409D0810EB4EC0DF04150A9EC0DF031
:100B200041C048F024D2200E4718D8A42BD02B0E59
:100B30004118D8A418D02D0E4118D8A414D02F0EC7
:100B40004118D8A410D0780E4118D8A40CD03D0E6E
:100B50004118D8A408D0430E4118D8A404D05E0E82
:100B60004118D8B40FD0800EB4EC0DF04150A9EC70
:100B70000DF041C047F0D00E41243C6E3D6AFF0E9F
:100B80003D22F5D1200E4618D8A4F1D1200E4818E8
:100B9000D8B4EDD1200E4718D8B4E9D12B0E4118A6
:100BA000D8A418D02D0E4118D8A414D02F0E411857
:100BB000D8A410D0780E4118D8A40CD03D0E4118FE
:100BC000D8A408D0430E4118D8A404D05E0E411812
:100BD000D8B4CDD1820EB4EC0DF04150A9EC0DF09B
:100BE00041C046F0D00E41243A6E3B6AFF0E3B22D4
:100BF000BED1010E00016B6F200E4718D8B406D08D
:100C0000200E4818D8B402D0000E6B6F6B513F1401
:100C10000009D8B456D0200E4818D8A427D02B0EDF
:100C20004118D8B414D02D0E4118D8B410D02F0EBE
:100C30004118D8B40CD0780E4118D8B408D05E0E44
:100C40004118D8B404D0210E4118D8A40FD0200EDA
:100C50004718D8B40BD0200E4618D8A407D0810E60
:100C6000B4EC0DF04150A9EC0DF05AD7200E471806
:100C7000D8A47DD12B0E4118D8A41CD02D0E41181C
:100C8000D8A418D02F0E4118D8A414D0780E41182B
:100C9000D8A410D03D0E4118D8A40CD0430E411852
:100CA000D8A408D05E0E4118D8A404D0210E411853
:100CB000D8B45DD1800EB4EC0DF04150A9EC0DF02C
:100CC00058D73D0E4118D8A40BD1200E4618D8B4E1
:100CD00007D1200E4818D8B403D1200E4718D8B435
:100CE000FFD03F50D8A4FCD0830EB4EC0DF03D0EE5
:100CF000A9EC0DF0D6D03A503C24246E3B503D2058
:100D0000256E24C026F025C027F0286A296A26C04F
:100D10000EF027C00FF028C010F029C011F0640EAB
:100D2000126E000E136E000E146E000E156ECAECDD
:100D30000BF00EC02AF00FC02BF010C02CF011C029
:100D40002DF0C0D03A503C5C246E3B503D58256E8F
:100D500024C026F025C027F0286A296A3A503C5C56
:100D60003B503D58D8B0D3D7010E3E6ED0D73CC0D3
:100D70000EF03DC00FF03AC010F03BC011F08AEC0D
:100D80000DF00EC026F00FC027F0BFD73A503B1031
:100D9000D8B42FD03C503D10D8B494D03CC014F0FF
:100DA0003DC015F03AC016F03BC017F04BEC0CF00C
:100DB00014C026F015C027F0286A296A3CC00EF03E
:100DC0003DC00FF0000E116E640E106E8AEC0DF037
:100DD0000EC014F00FC015F03AC016F03BC017F06B
:100DE0004BEC0CF014C02AF015C02BF02C6A2D6AC5
:100DF00069D03C503D10D8B406D03A503B10D8A42E
:100E000002D0E80E09D03C503D10D8A480D73A500B
:100E10003B10D8A47CD7E90E266E030E07D03A50BB
:100E20003B10D8A409D0010E266E000E276E000ECE
:100E3000286E000E296E6BD73CC026F03DC027F00F
:100E4000286A296A000E396E010E386E1AD03CC02D
:100E50000EF03DC00FF0106A116A26C012F027C0D4
:100E600013F028C014F029C015F0CAEC0BF00EC026
:100E700026F00FC027F010C028F011C029F0384A22
:100E8000392A3A50385C3B503958D8B040D7DFD770
:100E9000000E266E000E276E000E286E000E296EC4
:100EA00011D048502B0AD8B426D7060AD8B44AD74E
:100EB000020AD8B46BD7710AD8B4B1D7260AD8B40D
:100EC00056D7E6D7840EB4EC0DF026C01CF027C030
:100ED0001DF028C01EF029C01FF0C0EC07F047D05D
:100EE000000E6C6F3D0E4118D8A40AD0210E481890
:100EF000D8A406D0200E4718D8B402D0010E6C6FCB
:100F00006C513F140009D8B42FD0820EB4EC0DF010
:100F10003D0EA9EC0DF03CC01AF03DC01BF061EC99
:100F20000BF01AC026F01BC027F01CC028F01DC013
:100F300029F026C00EF027C00FF028C010F029C0FD
:100F400011F0640E126E000E136E000E146E000E81
:100F5000156ECAEC0BF00EC02AF00FC02BF010C0BB
:100F60002CF011C02DF0B1D7570EA9EC0DF0E40E06
:100F7000246E440EE82EFED7242EFCD700D0F8D4E1
:100F8000000E0001606F1CC00EF01DC00FF01EC0EF
:100F900010F01FC011F09C0E126EFF0E136EFF0EAC
:100FA000146EFF0E156ECAEC0BF02A500E24206E44
:100FB0002B500F20216E2C501020226E2D5011200E
:100FC000236E2050211022102310D8B458D0000EC8
:100FD0000001646F000E636F3CC014F03DC015F05B
:100FE0003AC016F03BC017F04BEC0CF014C01CF0EC
:100FF00015C01DF01E6A1F6A3CC00EF03DC00FF008
:101000003AC010F03BC011F00CEC0DF00EC042F0F5
:101010000FC043F0446A456A1C50300FA9EC0DF034
:10102000000163516411D8A409D042504310441008
:101030004510D8B403D02C0EA9EC0DF0425043104B
:1010400044104510D8B4120042C00EF043C00FF057
:10105000000E116E0A0E106E8AEC0DF00EC03CF000
:101060000FC03DF00001634B642B64BFB5D76451E2
:1010700005E1030E635DD8B01200AED712001FBEAB
:1010800030D01F501E1005E11C04800E1D58D8A042
:1010900028D0E80E1C1806E1030E1D181E101F10A4
:1010A000D8B41FD0E90E1C1806E1030E1D181E103F
:1010B0001F10D8B416D03E04D8A413D02D0EA9EC1E
:1010C0000DF0850EB4EC0DF01F1E1E1E1D1E1C6CB7
:1010D000000E1D221E221F221C50300FA9EC0DF005
:1010E00012001FBED7D01F501E101D1004E10A0EA3
:1010F0001C5CD8A0CFD0E80E1C1806E1030E1D180A
:101100001E101F10D8B4C6D0E90E1C1806E1030E3D
:101110001D181E101F10D8B4BDD0000E0001666F40
:10112000090E656F0A0E676F000E686F000E696F1B
:10113000000E6A6FFF0E6525616FFF0E6621626FFC
:1011400062BF24D0625103E16105D8A01FD067C0FF
:101150000EF068C00FF069C010F06AC011F00A0EFE
:10116000126E000E136E000E146E000E156ECAEC99
:101170000BF00EC067F00FC068F010C069F011C02E
:101180006AF000016107D8A06207DAD71CC00EF030
:101190001DC00FF01EC010F01FC011F067C012F08C
:1011A00068C013F069C014F06AC015F06EEC09F065
:1011B00011BE3BD0115010100F1003E10E04D8A047
:1011C00034D0010E0001606F1CC00EF01DC00FF086
:1011D0001EC010F01FC011F067C012F068C013F0FD
:1011E00069C014F06AC015F06EEC09F00E50300FB3
:1011F000A9EC0DF01CC00EF01DC00FF01EC010F0C9
:101200001FC011F067C012F068C013F069C014F07D
:101210006AC015F039EC0AF00EC01CF00FC01DF0CA
:1012200010C01EF011C01FF02ED01CC00EF01DC04B
:101230000FF01EC010F01FC011F067C012F068C0A0
:1012400013F069C014F06AC015F06EEC09F00E508E
:101250000F1010101110D8A416D000016051D8B48E
:1012600012D01FBE08D01F501E101D1009E10A0E1B
:101270001C5CD8B005D01C50300FA9EC0DF003D089
:10128000300EA9EC0DF000016507D8A0660766BF17
:10129000120048D7E80E1C180BE1030E1D181E1093
:1012A0001F10D8A405D0590E136E74EC0CF0120068
:1012B000E90E1C180EE1030E1D181E101F10D8A4F5
:1012C00008D0C10EB4EC0DF01E0E136E74EC0CF0D1
:1012D00012001C50300FA9EC0DF01200000E176E1A
:1012E00015AE0AD0151E141E131E126C000E13220A
:1012F00014221522010E176E11AE0AD0111E101EF7
:101300000F1E0E6C000E0F2210221122010E171A52
:10131000000E186E000E196E000E1A6E000E1B6E77
:101320001250131014101510D8B42AD0010E166ED6
:1013300006D0D8901236133614361536162A15AE46
:10134000F8D7D890183619361A361B3612500E5C5C
:1013500013500F581450105815501158D8A009D0D8
:1013600012500E5E13500F5A1450105A1550115A45
:101370001880D8901532143213321232162EE1D75B
:101380001750D8B408D01B1E1A1E191E186C000E58
:1013900019221A221B2218C00EF019C00FF01AC011
:1013A00010F01BC011F0120081B881AA04D081ACEA
:1013B00002D081BEF9D7000E336E010E326EFE0EE2
:1013C0008A6E81B80AD04050D8A402D02B0E1200E9
:1013D0004050D8B44CD05E0E120081BA02D03D0EFF
:1013E000120081BC02D0300E120081BE02D0430E2A
:1013F0001200FD0E8A6E81B80AD03F50D8A402D0E8
:101400002D0E12003F50D8B432D0210E120081BAF6
:1014100002D0390E120081BC02D0380E120081BEFB
:1014200002D0370E1200FB0E8A6E81B802D0780E01
:10143000120081BA02D0360E120081BC02D0350EE5
:10144000120081BE02D0340E1200F70E8A6E81B8EF
:1014500002D02F0E120081BA02D0330E120081BCCE
:1014600002D0320E120081BE02D0310E12003F0EA9
:101470001200000E176E11AE0AD0111E101E0F1EA4
:101480000E6C000E0F2210221122010E176E15AEE7
:1014900008D0151E141E131E126C000E13221422E7
:1014A00015221250131014101510D8B424D0010EA8
:1014B000166E06D0D8901236133614361536162A04
:1014C00015AEF8D712500E5C13500F581450105828
:1014D00015501158D8A008D012500E5E13500F5A54
:1014E0001450105A1550115AD89015321432133224
:1014F0001232162EE7D71750D8B408D0111E101E7E
:101500000F1E0E6C000E0F22102211220EC00EF0C4
:101510000FC00FF010C010F011C011F012008D902C
:10152000040E4918D8A404D08C500F0B300901D0F8
:101530003F0E8C6EE9EC0DF0010EF5EC0BF0040E95
:101540004918D8A404D08C500F0B300901D03F0E9D
:101550008C6EE9EC0DF0030EF5EC0BF0040E49185F
:10156000D8A404D08C500F0B300901D03F0E8C6EE4
:10157000E9EC0DF0040EF5EC0BF0040E4918D8A4BC
:1015800011D08C500F0B20098C6EE9EC0DF0040E7D
:10159000F5EC0BF02F0EC6EC0CF0E9EC0DF0040EA0
:1015A000F5EC0BF0D5EC0DF00F0EC6EC0CF0E9EC01
:1015B0000DF0040EF5EC0BF012000600F6CF0AF069
:1015C000F7CF0BF0F8CF0CF0F5CF0DF0F2A419D057
:1015D00032503310D8A407D0010E3424346E000EDC
:1015E0003520356E04D0000E356E000E346EF29448
:1015F0008DB402D08D8401D08D94C20ED76EF70EBB
:10160000D66E140E34183510D8A414D032503310BE
:10161000D8A410D08BBE02D08B8E01D08B9EDFEC75
:101620000DF0820ECAEC0DF02C0E066E9DEC0CF047
:101630000300FFD70DC0F5FF0CC0F8FF0BC0F7FF8C
:101640000AC0F6FF52921100080E36183710D8A4BF
:1016500014D0000E376E000E366E0FD0000E0BD079
:10166000050E09D0060E07D0030E05D0020E03D0DA
:10167000040E01D0070E8B6E21D036C00EF037C09D
:101680000FF00F50000AD8A419D00E50000AD8B499
:10169000E5D7010AD8B4E4D7030AD8B4E3D7010ADE
:1016A000D8B4E2D7070AD8B4E1D7010AD8B4DAD758
:1016B000030AD8B4DDD7010AD8B4DCD7364A372AB2
:1016C0001200010E1E6E000E1F6E000E206E000E28
:1016D000216E1AC02EF01BC02FF01ED02EC00EF0AF
:1016E0002FC00FF0000E0FBEFF0E106E116E1EC049
:1016F00012F01FC013F020C014F021C015F0CAEC86
:101700000BF00EC01EF00FC01FF010C020F011C073
:1017100021F02E06D8A02F062FBE06D02F50DEE1D6
:10172000020E2E5CD8B0DAD71EC01AF01FC01BF014
:1017300020C01CF021C01DF01200FA0EF66E1B0E28
:10174000F76E000EF86E00EE6DF010EE08F0090076
:10175000F5CFEEFFE550E150FAE1EE0EF66E1B0E0E
:10176000F76E000EF86E00EE46F010EE0CF0090079
:10177000F5CFEEFFE550E150FAE100EE26F0200E45
:10178000EE6AE806FDE152905292000EF86E0001FA
:1017900038EF04F0000E166E000E176E000E186E75
:1017A000000E196E0EA008D01250162613501722E4
:1017B0001450182215501922D890123613361436A8
:1017C0001536D890113210320F320E320E500F10E3
:1017D00010101110D8A4E6D716C00EF017C00FF0E5
:1017E00018C010F019C011F012000F6E1BD0050EBA
:1017F0000E6EDE0EE82EFED70E2EFCD71200530E14
:10180000E82EFED700F0350EE82EFED700F01200CD
:10181000080EE82EFED700F01200030EE82EFED7C9
:1018200000F012000F50010AD8B4E1D7030AD8B46F
:10183000E6D7010AD8B4ECD7070AD8A41200EDD72E
:10184000026E1BD0050E016EDE0EE82EFED7012EB5
:10185000FCD71200530EE82EFED700F0350EE82E0E
:10186000FED700F01200080EE82EFED700F012009E
:10187000030EE82EFED700F012000250010AD8B481
:10188000E1D7030AD8B4E6D7010AD8B4ECD7070ADF
:10189000D8A41200EDD7000E1A6E000E196E165065
:1018A0001710D8B41CD0010E186E04D0D89016367C
:1018B0001736182A17AEFAD7D89019361A36165096
:1018C000145C17501558D8A005D01650145E175048
:1018D000155A1980D89017321632182EEDD719C024
:1018E00014F01AC015F01200000E166E000E156EE0
:1018F00019D013501524146E14C0F6FF080EF76E9D
:101900000800F5500009D8B4120013501524146EC5
:1019100014C0F6FF080EF76E0800F550A9EC0DF0A4
:10192000154A162A13C00EF062EC0DF00E50155C2D
:101930000F501658D8B01200DCD7000E096E000EFA
:10194000086E19D006500824076E07C0F6FF080E6F
:10195000F76E0800F5500009D8B4120006500824AC
:10196000076E07C0F6FF080EF76E0800F550BFECD3
:101970000DF0084A092A06C001F076EC0DF001507E
:10198000085C02500958D8B01200DCD7116E040E62
:101990004918D8A417D011C010F0F00E10168C50B2
:1019A0000F0B10108C6EE9EC0DF0010EF5EC0BF046
:1019B00011C010F0103AF00E10168C500F0B1010D2
:1019C0008C6E1200080E4918D8A4120011C08CFFAA
:1019D0001200046E040E4918D8A417D004C003F0F6
:1019E000F00E03168C500F0B03108C6EF0EC0DF004
:1019F000010E20EC0CF004C003F0033AF00E0316C5
:101A00008C500F0B03108C6E1200080E4918D8A4CE
:101A1000120004C08CFF120010501110D8B418D05E
:101A2000010E126E04D0D89010361136122A11AE63
:101A3000FAD710500E5C11500F58D8A004D0105097
:101A40000E5E11500F5AD89011321032122EF1D76B
:101A50000EC00EF00FC00FF01200146E1450080DDF
:101A6000F350400F4BEC0DF0000E166E000E156E8D
:101A700013501524D96EDA6ADF50A9EC0DF0154A1F
:101A8000162A16BEF5D7165005E1080E155CD8B01B
:101A90001200EED71200116E8D901150F00B8C6E6B
:101AA000E9EC0DF011C010F0F00E10161038F00B2C
:101AB0008C6EE9EC0DF0020EF5EC0BF0020EF5EC7D
:101AC0000BF012000EC010F001D0102A10C0F6FF6B
:101AD000080EF76E0800F5500009D8A4F6D70E508E
:101AE000105C0E6E0F6A0EBE0F06120001C003F0EE
:101AF00001D0032A03C0F6FF080EF76E0800F55068
:101B00000009D8A4F6D70150035C016E026A01BE39
:101B1000020612000E501002F3CF12F0F4CF13F0B1
:101B20000E501102F35013260F501002F3501326DB
:101B300012C00EF013C00FF012000E6E040E0E183D
:101B4000D8B404D0080E0E18D8A412000EC049F064
:101B50001200126E8D801250C6EC0CF0E9EC0DF004
:101B6000040EF5EC0BF01200126E8D901250C6ECC4
:101B70000CF0E9EC0DF0040EF5EC0BF01200056E24
:101B80008D800550E9EC0CF0F0EC0DF0040E20EC2B
:101B90000CF01200056E8D900550E9EC0CF0F0ECA5
:101BA0000DF0040E20EC0CF012008D90010EC6EC2E
:101BB0000CF0E9EC0DF0020EF5EC0BF012008D903C
:101BC000010EE9EC0CF0F0EC0DF0020E20EC0CF044
:101BD00012008D82030EE82EFED700F08D921200C7
:101BE0008D82030EE82EFED700F08D921200202089
:101BF0002008001B1F1F0E0400000E0E041F04040B
:021C00000A11C7
:020000040020DA
:08000000FFFFFFFFFFFFFFFF00
:020000040030CA
:0E00000000091F1EFF8181FF0FC00FE00F409F
:00000001FF
