:0400000007EF00F016
:0A000800118214ED04F009EF06F078
:1008000000486F6C61206D756E646F00313000318F
:1008100031003132003133003134003135003136AE
:1008200000370038003900000600F2A059D0F00E61
:100830008118D8B44CD0100E0F6EFE0E8A6E81B89F
:1008400002D00D0E41D081BA02D0100E3DD081BC35
:1008500002D0130E39D081BE02D0160E35D0FD0E57
:100860008A6E81B802D0190E2FD081BA02D01C0E28
:100870002BD081BC02D01F0E27D081BE02D0210E0A
:1008800023D0FB0E8A6E81B802D0230E1DD081BA10
:1008900002D0250E19D081BC02D00C0E15D081BE1D
:1008A00002D00F0E11D0F70E8A6E81B802D0120E50
:1008B0000BD081BA02D0150E07D081BC02D0180E21
:1008C00003D081BE02D01B0E0F6EF00E8A6E210E79
:1008D000016E760EE82EFED7012EFCD700D0F290E6
:1008E000F2A40AD0F2940B0ED76EDC0ED66E8CB248
:1008F00002D08C8201D08C92119211000F0EC16E29
:10090000000E956E000E966EF00E936E000E8C6EBD
:10091000000E8D6E000E8A6E210E0D6E760EE82E84
:10092000FED70D2EFCD700D0F19E210E0D6E760E57
:10093000E82EFED70D2EFCD700D0F290F286F28E74
:10094000020E0E6E450E0D6EAA0EE82EFED70D2E6F
:10095000FCD70E2EFAD7040E1AEC06F02CEC05F09C
:100960003CEC06F0010E076E0750D8A4080E086E86
:100970007AEC05F0C00E31EC06F0210E076E075040
:10098000D8A4080E086E7AEC05F0020E0E6E450E25
:100990000D6EAA0EE82EFED70D2EFCD70E2EFAD71E
:1009A000DDEC04F00F6E0F500D6E0E6A0DC007F0F7
:1009B0000EC008F07AEC05F0F3D781B881AA04D014
:1009C00081AC02D081BEF9D7FE0E8A6E81B802D00A
:1009D000100E120081BA02D0130E120081BC02D098
:1009E000160E120081BE02D0190E1200FD0E8A6E84
:1009F00081B802D01C0E120081BA02D01F0E120064
:100A000081BC02D0210E120081BE02D0230E120042
:100A1000FB0E8A6E81B802D0250E120081BA02D078
:100A20000C0E120081BC02D00F0E120081BE02D04B
:100A3000120E1200F70E8A6E81B802D0150E120047
:100A400081BA02D0180E120081BC02D01B0E120017
:100A500081BE12001E0E12008D90040E1018D8A434
:100A600004D08C500F0B300901D03F0E8C6E46EC39
:100A700006F0010EBBEC05F0040E1018D8A404D04B
:100A80008C500F0B300901D03F0E8C6E46EC06F0F7
:100A9000030EBBEC05F0040E1018D8A404D08C5043
:100AA0000F0B300901D03F0E8C6E46EC06F0040EA1
:100AB000BBEC05F0040E1018D8A411D08C500F0B0D
:100AC00020098C6E46EC06F0040EBBEC05F02F0EF0
:100AD000E6EC05F046EC06F0040EBBEC05F03CEC51
:100AE00006F00F0EE6EC05F046EC06F0040EBBEC4B
:100AF00005F01200000E0C6E000E0B6E0B5007245A
:100B0000096E0C5008200A6E09C0F6FF0AC0F7FFF4
:100B1000F86A070EF76403D00800F55005D0F6CF49
:100B2000E9FFF7CFEAFFEF500009D8B412000B50ED
:100B30000724096E0C5008200A6E09C0F6FF0AC08F
:100B4000F7FFF86A070EF76403D00800F55005D0E8
:100B5000F6CFE9FFF7CFEAFFEF5026EC06F00B4A9D
:100B60000C2A0CBECBD70C5005E1100E0B5CD8B094
:100B70001200C4D71200036E1BD0050E026EDE0EEB
:100B8000E82EFED7022EFCD71200530EE82EFED719
:100B900000F0350EE82EFED700F01200080EE82E09
:100BA000FED700F01200030EE82EFED700F0120070
:100BB0000350010AD8B4E1D7030AD8B4E6D7010A32
:100BC000D8B4ECD7070AD8A41200EDD7056E040EEE
:100BD0001018D8A417D005C004F0F00E04168C50DD
:100BE0000F0B04108C6E46EC06F0010EBBEC05F00A
:100BF00005C004F0043AF00E04168C500F0B0410DC
:100C00008C6E1200080E1018D8A4120005C08CFFBC
:100C100012009A0EF66E0C0EF76E000EF86E0900BA
:100C2000F5CF10F00F6A11901192000EF86E0001CE
:100C30007EEF04F0026E040E0218D8B404D0080E41
:100C40000218D8A4120002C010F01200066E8D80A7
:100C50000650E6EC05F046EC06F0040EBBEC05F0A1
:100C60001200066E8D900650E6EC05F046EC06F09C
:100C7000040EBBEC05F012008D90010EE6EC05F0C1
:100C800046EC06F0020EBBEC05F012008D82030E5E
:0B0C9000E82EFED700F08D9212000845
:020000040020DA
:08000000FFFFFFFFFFFFFFFF00
:020000040030CA
:0E00000000091F1EFF8181FF0FC00FE00F409F
:00000001FF
